{
  "contractName": "FriendLend",
  "abi": [
    {
      "inputs": [
        {
          "internalType": "string",
          "name": "theGroupName",
          "type": "string"
        },
        {
          "internalType": "string",
          "name": "myUsername",
          "type": "string"
        },
        {
          "internalType": "string",
          "name": "myPassword",
          "type": "string"
        }
      ],
      "payable": false,
      "stateMutability": "nonpayable",
      "type": "constructor"
    },
    {
      "constant": true,
      "inputs": [
        {
          "internalType": "uint256",
          "name": "",
          "type": "uint256"
        }
      ],
      "name": "allMembers",
      "outputs": [
        {
          "internalType": "address",
          "name": "",
          "type": "address"
        }
      ],
      "payable": false,
      "stateMutability": "view",
      "type": "function"
    },
    {
      "constant": true,
      "inputs": [
        {
          "internalType": "address",
          "name": "",
          "type": "address"
        }
      ],
      "name": "bannedMembers",
      "outputs": [
        {
          "internalType": "uint256",
          "name": "",
          "type": "uint256"
        }
      ],
      "payable": false,
      "stateMutability": "view",
      "type": "function"
    },
    {
      "constant": true,
      "inputs": [],
      "name": "currLoanId",
      "outputs": [
        {
          "internalType": "uint256",
          "name": "",
          "type": "uint256"
        }
      ],
      "payable": false,
      "stateMutability": "view",
      "type": "function"
    },
    {
      "constant": true,
      "inputs": [],
      "name": "groupName",
      "outputs": [
        {
          "internalType": "string",
          "name": "",
          "type": "string"
        }
      ],
      "payable": false,
      "stateMutability": "view",
      "type": "function"
    },
    {
      "constant": true,
      "inputs": [
        {
          "internalType": "uint256",
          "name": "",
          "type": "uint256"
        },
        {
          "internalType": "address",
          "name": "",
          "type": "address"
        }
      ],
      "name": "loanContributions",
      "outputs": [
        {
          "internalType": "uint256",
          "name": "",
          "type": "uint256"
        }
      ],
      "payable": false,
      "stateMutability": "view",
      "type": "function"
    },
    {
      "constant": true,
      "inputs": [
        {
          "internalType": "uint256",
          "name": "",
          "type": "uint256"
        }
      ],
      "name": "loans",
      "outputs": [
        {
          "internalType": "uint256",
          "name": "id",
          "type": "uint256"
        },
        {
          "internalType": "address",
          "name": "borrower",
          "type": "address"
        },
        {
          "internalType": "uint256",
          "name": "amount",
          "type": "uint256"
        },
        {
          "internalType": "uint256",
          "name": "interest",
          "type": "uint256"
        },
        {
          "internalType": "uint256",
          "name": "filled",
          "type": "uint256"
        },
        {
          "internalType": "uint256",
          "name": "dueDate",
          "type": "uint256"
        },
        {
          "internalType": "bool",
          "name": "isLent",
          "type": "bool"
        },
        {
          "internalType": "bool",
          "name": "isReturned",
          "type": "bool"
        },
        {
          "internalType": "string",
          "name": "reason",
          "type": "string"
        },
        {
          "internalType": "bool",
          "name": "exists",
          "type": "bool"
        }
      ],
      "payable": false,
      "stateMutability": "view",
      "type": "function"
    },
    {
      "constant": true,
      "inputs": [],
      "name": "memberCount",
      "outputs": [
        {
          "internalType": "uint256",
          "name": "",
          "type": "uint256"
        }
      ],
      "payable": false,
      "stateMutability": "view",
      "type": "function"
    },
    {
      "constant": true,
      "inputs": [
        {
          "internalType": "address",
          "name": "",
          "type": "address"
        }
      ],
      "name": "members",
      "outputs": [
        {
          "internalType": "address",
          "name": "memberAddress",
          "type": "address"
        },
        {
          "internalType": "string",
          "name": "username",
          "type": "string"
        },
        {
          "internalType": "string",
          "name": "myPassword",
          "type": "string"
        },
        {
          "internalType": "uint256",
          "name": "friendScore",
          "type": "uint256"
        },
        {
          "internalType": "uint256",
          "name": "balance",
          "type": "uint256"
        },
        {
          "internalType": "bool",
          "name": "isPending",
          "type": "bool"
        },
        {
          "internalType": "uint256",
          "name": "dateAdded",
          "type": "uint256"
        },
        {
          "internalType": "bool",
          "name": "exists",
          "type": "bool"
        },
        {
          "internalType": "uint256",
          "name": "loanid",
          "type": "uint256"
        },
        {
          "internalType": "string",
          "name": "loanStatus",
          "type": "string"
        }
      ],
      "payable": false,
      "stateMutability": "view",
      "type": "function"
    },
    {
      "constant": true,
      "inputs": [],
      "name": "owner",
      "outputs": [
        {
          "internalType": "address",
          "name": "",
          "type": "address"
        }
      ],
      "payable": false,
      "stateMutability": "view",
      "type": "function"
    },
    {
      "constant": true,
      "inputs": [
        {
          "internalType": "address",
          "name": "",
          "type": "address"
        }
      ],
      "name": "test",
      "outputs": [
        {
          "internalType": "uint256",
          "name": "",
          "type": "uint256"
        }
      ],
      "payable": false,
      "stateMutability": "view",
      "type": "function"
    },
    {
      "constant": true,
      "inputs": [
        {
          "internalType": "address",
          "name": "",
          "type": "address"
        },
        {
          "internalType": "address",
          "name": "",
          "type": "address"
        }
      ],
      "name": "votes",
      "outputs": [
        {
          "internalType": "int256",
          "name": "",
          "type": "int256"
        }
      ],
      "payable": false,
      "stateMutability": "view",
      "type": "function"
    },
    {
      "constant": false,
      "inputs": [
        {
          "internalType": "address",
          "name": "newMemberAddress",
          "type": "address"
        }
      ],
      "name": "proposeInvite",
      "outputs": [],
      "payable": false,
      "stateMutability": "nonpayable",
      "type": "function"
    },
    {
      "constant": false,
      "inputs": [
        {
          "internalType": "address",
          "name": "candidateAddress",
          "type": "address"
        },
        {
          "internalType": "bool",
          "name": "vote",
          "type": "bool"
        }
      ],
      "name": "voteOnPendingPerson",
      "outputs": [],
      "payable": false,
      "stateMutability": "nonpayable",
      "type": "function"
    },
    {
      "constant": false,
      "inputs": [
        {
          "internalType": "string",
          "name": "username",
          "type": "string"
        }
      ],
      "name": "join",
      "outputs": [],
      "payable": false,
      "stateMutability": "nonpayable",
      "type": "function"
    },
    {
      "constant": false,
      "inputs": [],
      "name": "depositFunds",
      "outputs": [],
      "payable": true,
      "stateMutability": "payable",
      "type": "function"
    },
    {
      "constant": false,
      "inputs": [
        {
          "internalType": "uint256",
          "name": "amount",
          "type": "uint256"
        },
        {
          "internalType": "uint256",
          "name": "interestRate",
          "type": "uint256"
        },
        {
          "internalType": "uint256",
          "name": "dueDate",
          "type": "uint256"
        },
        {
          "internalType": "string",
          "name": "reason",
          "type": "string"
        }
      ],
      "name": "requestLoan",
      "outputs": [
        {
          "components": [
            {
              "internalType": "uint256",
              "name": "id",
              "type": "uint256"
            },
            {
              "internalType": "address",
              "name": "borrower",
              "type": "address"
            },
            {
              "internalType": "uint256",
              "name": "amount",
              "type": "uint256"
            },
            {
              "internalType": "uint256",
              "name": "interest",
              "type": "uint256"
            },
            {
              "internalType": "uint256",
              "name": "filled",
              "type": "uint256"
            },
            {
              "internalType": "uint256",
              "name": "dueDate",
              "type": "uint256"
            },
            {
              "internalType": "bool",
              "name": "isLent",
              "type": "bool"
            },
            {
              "internalType": "bool",
              "name": "isReturned",
              "type": "bool"
            },
            {
              "internalType": "string",
              "name": "reason",
              "type": "string"
            },
            {
              "internalType": "bool",
              "name": "exists",
              "type": "bool"
            }
          ],
          "internalType": "struct FriendLend.Loan",
          "name": "",
          "type": "tuple"
        }
      ],
      "payable": false,
      "stateMutability": "nonpayable",
      "type": "function"
    },
    {
      "constant": false,
      "inputs": [
        {
          "internalType": "uint256",
          "name": "loanId",
          "type": "uint256"
        },
        {
          "internalType": "uint256",
          "name": "contribution",
          "type": "uint256"
        }
      ],
      "name": "fillLoanRequest",
      "outputs": [],
      "payable": false,
      "stateMutability": "nonpayable",
      "type": "function"
    },
    {
      "constant": false,
      "inputs": [
        {
          "internalType": "uint256",
          "name": "amount",
          "type": "uint256"
        }
      ],
      "name": "withdrawFunds",
      "outputs": [],
      "payable": false,
      "stateMutability": "nonpayable",
      "type": "function"
    },
    {
      "constant": false,
      "inputs": [
        {
          "internalType": "uint256",
          "name": "loanId",
          "type": "uint256"
        }
      ],
      "name": "cancelLoan",
      "outputs": [],
      "payable": false,
      "stateMutability": "nonpayable",
      "type": "function"
    },
    {
      "constant": false,
      "inputs": [
        {
          "internalType": "uint256",
          "name": "loanId",
          "type": "uint256"
        }
      ],
      "name": "payLoan",
      "outputs": [],
      "payable": false,
      "stateMutability": "nonpayable",
      "type": "function"
    },
    {
      "constant": true,
      "inputs": [],
      "name": "canJoin",
      "outputs": [
        {
          "internalType": "bool",
          "name": "cj",
          "type": "bool"
        }
      ],
      "payable": false,
      "stateMutability": "view",
      "type": "function"
    },
    {
      "constant": true,
      "inputs": [],
      "name": "getAllConfirmedMembers",
      "outputs": [
        {
          "components": [
            {
              "internalType": "address",
              "name": "memberAddress",
              "type": "address"
            },
            {
              "internalType": "string",
              "name": "username",
              "type": "string"
            },
            {
              "internalType": "string",
              "name": "myPassword",
              "type": "string"
            },
            {
              "internalType": "uint256",
              "name": "friendScore",
              "type": "uint256"
            },
            {
              "internalType": "uint256",
              "name": "balance",
              "type": "uint256"
            },
            {
              "internalType": "bool",
              "name": "isPending",
              "type": "bool"
            },
            {
              "internalType": "uint256",
              "name": "dateAdded",
              "type": "uint256"
            },
            {
              "internalType": "bool",
              "name": "exists",
              "type": "bool"
            },
            {
              "internalType": "uint256",
              "name": "loanid",
              "type": "uint256"
            },
            {
              "internalType": "string",
              "name": "loanStatus",
              "type": "string"
            }
          ],
          "internalType": "struct FriendLend.Member[]",
          "name": "",
          "type": "tuple[]"
        }
      ],
      "payable": false,
      "stateMutability": "view",
      "type": "function"
    },
    {
      "constant": true,
      "inputs": [],
      "name": "getAllOpenLoans",
      "outputs": [
        {
          "components": [
            {
              "internalType": "uint256",
              "name": "id",
              "type": "uint256"
            },
            {
              "internalType": "address",
              "name": "borrower",
              "type": "address"
            },
            {
              "internalType": "uint256",
              "name": "amount",
              "type": "uint256"
            },
            {
              "internalType": "uint256",
              "name": "interest",
              "type": "uint256"
            },
            {
              "internalType": "uint256",
              "name": "filled",
              "type": "uint256"
            },
            {
              "internalType": "uint256",
              "name": "dueDate",
              "type": "uint256"
            },
            {
              "internalType": "bool",
              "name": "isLent",
              "type": "bool"
            },
            {
              "internalType": "bool",
              "name": "isReturned",
              "type": "bool"
            },
            {
              "internalType": "string",
              "name": "reason",
              "type": "string"
            },
            {
              "internalType": "bool",
              "name": "exists",
              "type": "bool"
            }
          ],
          "internalType": "struct FriendLend.Loan[]",
          "name": "",
          "type": "tuple[]"
        }
      ],
      "payable": false,
      "stateMutability": "view",
      "type": "function"
    },
    {
      "constant": true,
      "inputs": [],
      "name": "getPendingMembers",
      "outputs": [
        {
          "components": [
            {
              "internalType": "address",
              "name": "memberAddress",
              "type": "address"
            },
            {
              "internalType": "string",
              "name": "username",
              "type": "string"
            },
            {
              "internalType": "string",
              "name": "myPassword",
              "type": "string"
            },
            {
              "internalType": "uint256",
              "name": "friendScore",
              "type": "uint256"
            },
            {
              "internalType": "uint256",
              "name": "balance",
              "type": "uint256"
            },
            {
              "internalType": "bool",
              "name": "isPending",
              "type": "bool"
            },
            {
              "internalType": "uint256",
              "name": "dateAdded",
              "type": "uint256"
            },
            {
              "internalType": "bool",
              "name": "exists",
              "type": "bool"
            },
            {
              "internalType": "uint256",
              "name": "loanid",
              "type": "uint256"
            },
            {
              "internalType": "string",
              "name": "loanStatus",
              "type": "string"
            }
          ],
          "internalType": "struct FriendLend.Member[]",
          "name": "",
          "type": "tuple[]"
        }
      ],
      "payable": false,
      "stateMutability": "view",
      "type": "function"
    },
    {
      "constant": true,
      "inputs": [],
      "name": "getMembersToVoteOn",
      "outputs": [
        {
          "components": [
            {
              "internalType": "address",
              "name": "memberAddress",
              "type": "address"
            },
            {
              "internalType": "string",
              "name": "username",
              "type": "string"
            },
            {
              "internalType": "string",
              "name": "myPassword",
              "type": "string"
            },
            {
              "internalType": "uint256",
              "name": "friendScore",
              "type": "uint256"
            },
            {
              "internalType": "uint256",
              "name": "balance",
              "type": "uint256"
            },
            {
              "internalType": "bool",
              "name": "isPending",
              "type": "bool"
            },
            {
              "internalType": "uint256",
              "name": "dateAdded",
              "type": "uint256"
            },
            {
              "internalType": "bool",
              "name": "exists",
              "type": "bool"
            },
            {
              "internalType": "uint256",
              "name": "loanid",
              "type": "uint256"
            },
            {
              "internalType": "string",
              "name": "loanStatus",
              "type": "string"
            }
          ],
          "internalType": "struct FriendLend.Member[]",
          "name": "",
          "type": "tuple[]"
        }
      ],
      "payable": false,
      "stateMutability": "view",
      "type": "function"
    },
    {
      "constant": true,
      "inputs": [],
      "name": "getPortfolio",
      "outputs": [
        {
          "components": [
            {
              "internalType": "uint256",
              "name": "amount",
              "type": "uint256"
            },
            {
              "internalType": "uint256",
              "name": "interest",
              "type": "uint256"
            },
            {
              "internalType": "uint256",
              "name": "dueDate",
              "type": "uint256"
            },
            {
              "internalType": "address",
              "name": "borrower",
              "type": "address"
            },
            {
              "internalType": "string",
              "name": "username",
              "type": "string"
            },
            {
              "internalType": "string",
              "name": "reason",
              "type": "string"
            }
          ],
          "internalType": "struct FriendLend.Investment[]",
          "name": "",
          "type": "tuple[]"
        }
      ],
      "payable": false,
      "stateMutability": "view",
      "type": "function"
    }
  ],
  "bytecode": "0x6080604052600060055560006006553480156200001b57600080fd5b5060405162005f6138038062005f618339818101604052620000419190810190620004d9565b336000806101000a81548173ffffffffffffffffffffffffffffffffffffffff021916908373ffffffffffffffffffffffffffffffffffffffff1602179055506040518061014001604052806000809054906101000a900473ffffffffffffffffffffffffffffffffffffffff1673ffffffffffffffffffffffffffffffffffffffff168152602001838152602001828152602001600081526020016000815260200160001515815260200160008152602001600115158152602001600081526020016040518060400160405280600481526020017f4e4f4e4500000000000000000000000000000000000000000000000000000000815250815250600160008060009054906101000a900473ffffffffffffffffffffffffffffffffffffffff1673ffffffffffffffffffffffffffffffffffffffff1673ffffffffffffffffffffffffffffffffffffffff16815260200190815260200160002060008201518160000160006101000a81548173ffffffffffffffffffffffffffffffffffffffff021916908373ffffffffffffffffffffffffffffffffffffffff16021790555060208201518160010190805190602001906200020292919062000347565b5060408201518160020190805190602001906200022192919062000347565b50606082015181600301556080820151816004015560a08201518160050160006101000a81548160ff02191690831515021790555060c0820151816006015560e08201518160070160006101000a81548160ff0219169083151502179055506101008201518160080155610120820151816009019080519060200190620002aa92919062000347565b50905050600160056000828254019250508190555060023390806001815401808255809150509060018203906000526020600020016000909192909190916101000a81548173ffffffffffffffffffffffffffffffffffffffff021916908373ffffffffffffffffffffffffffffffffffffffff1602179055505082600390805190602001906200033d929190620003ce565b505050506200060b565b828054600181600116156101000203166002900490600052602060002090601f016020900481019282601f106200038a57805160ff1916838001178555620003bb565b82800160010185558215620003bb579182015b82811115620003ba5782518255916020019190600101906200039d565b5b509050620003ca919062000455565b5090565b828054600181600116156101000203166002900490600052602060002090601f016020900481019282601f106200041157805160ff191683800117855562000442565b8280016001018555821562000442579182015b828111156200044157825182559160200191906001019062000424565b5b50905062000451919062000455565b5090565b6200047a91905b80821115620004765760008160009055506001016200045c565b5090565b90565b600082601f8301126200048f57600080fd5b8151620004a6620004a082620005a8565b6200057a565b91508082526020830160208301858383011115620004c357600080fd5b620004d0838284620005d5565b50505092915050565b600080600060608486031215620004ef57600080fd5b600084015167ffffffffffffffff8111156200050a57600080fd5b62000518868287016200047d565b935050602084015167ffffffffffffffff8111156200053657600080fd5b62000544868287016200047d565b925050604084015167ffffffffffffffff8111156200056257600080fd5b62000570868287016200047d565b9150509250925092565b6000604051905081810181811067ffffffffffffffff821117156200059e57600080fd5b8060405250919050565b600067ffffffffffffffff821115620005c057600080fd5b601f19601f8301169050602081019050919050565b60005b83811015620005f5578082015181840152602081019050620005d8565b8381111562000605576000848401525b50505050565b615946806200061b6000396000f3fe6080604052600436106101815760003560e01c80638fc5336e116100d1578063cad1b9061161008a578063e1ec3c6811610064578063e1ec3c681461059f578063e2c41dbc146105e5578063e6011971146105ef578063fd0717bd1461061a57610181565b8063cad1b9061461050c578063cb95fe7a14610549578063d3d034581461057457610181565b80638fc5336e146103ea5780639853387114610415578063a86eaca414610452578063a8d7b3ec1461047d578063bb29998e146104a6578063bdbfa3de146104e357610181565b806352264c5b1161013e578063783cec8011610118578063783cec801461032c5780637ba3f54b1461035757806384733294146103825780638da5cb5b146103bf57610181565b806352264c5b146102af57806369fdfd45146102d85780636a786b071461030357610181565b8063017ebb911461018657806308ae4b0c146101af57806311aee380146101f5578063155dd5ee1461022057806319c68002146102495780634cc7e18b14610286575b600080fd5b34801561019257600080fd5b506101ad60048036036101a89190810190614646565b610657565b005b3480156101bb57600080fd5b506101d660048036036101d19190810190614646565b6109e3565b6040516101ec9a99989796959493929190615299565b60405180910390f35b34801561020157600080fd5b5061020a610c39565b604051610217919061562a565b60405180910390f35b34801561022c57600080fd5b5061024760048036036102429190810190614728565b610c3f565b005b34801561025557600080fd5b50610270600480360361026b9190810190614751565b610df4565b60405161027d919061562a565b60405180910390f35b34801561029257600080fd5b506102ad60048036036102a8919081019061478d565b610e19565b005b3480156102bb57600080fd5b506102d660048036036102d191908101906146ab565b611115565b005b3480156102e457600080fd5b506102ed611495565b6040516102fa919061538e565b60405180910390f35b34801561030f57600080fd5b5061032a600480360361032591908101906146e7565b6119ee565b005b34801561033857600080fd5b50610341611bf0565b60405161034e91906153e6565b60405180910390f35b34801561036357600080fd5b5061036c611c8e565b604051610379919061538e565b60405180910390f35b34801561038e57600080fd5b506103a960048036036103a491908101906147c9565b61238f565b6040516103b69190615608565b60405180910390f35b3480156103cb57600080fd5b506103d46126b4565b6040516103e1919061527e565b60405180910390f35b3480156103f657600080fd5b506103ff6126d9565b60405161040c919061536c565b60405180910390f35b34801561042157600080fd5b5061043c60048036036104379190810190614646565b612a20565b604051610449919061562a565b60405180910390f35b34801561045e57600080fd5b50610467612a38565b60405161047491906153b0565b60405180910390f35b34801561048957600080fd5b506104a4600480360361049f9190810190614728565b612b5d565b005b3480156104b257600080fd5b506104cd60048036036104c89190810190614646565b61329f565b6040516104da919061562a565b60405180910390f35b3480156104ef57600080fd5b5061050a60048036036105059190810190614728565b6132b7565b005b34801561051857600080fd5b50610533600480360361052e919081019061466f565b613712565b60405161054091906153cb565b60405180910390f35b34801561055557600080fd5b5061055e613737565b60405161056b919061538e565b60405180910390f35b34801561058057600080fd5b50610589613e3a565b604051610596919061534a565b60405180910390f35b3480156105ab57600080fd5b506105c660048036036105c19190810190614728565b613ecf565b6040516105dc9a99989796959493929190615645565b60405180910390f35b6105ed61400f565b005b3480156105fb57600080fd5b506106046140f1565b604051610611919061562a565b60405180910390f35b34801561062657600080fd5b50610641600480360361063c9190810190614728565b6140f7565b60405161064e919061527e565b60405180910390f35b600160003373ffffffffffffffffffffffffffffffffffffffff1673ffffffffffffffffffffffffffffffffffffffff16815260200190815260200160002060050160009054906101000a900460ff16156106e7576040517f08c379a00000000000000000000000000000000000000000000000000000000081526004016106de906155e8565b60405180910390fd5b600160008273ffffffffffffffffffffffffffffffffffffffff1673ffffffffffffffffffffffffffffffffffffffff16815260200190815260200160002060070160009054906101000a900460ff1615610777576040517f08c379a000000000000000000000000000000000000000000000000000000000815260040161076e90615488565b60405180910390fd5b6040518061014001604052808273ffffffffffffffffffffffffffffffffffffffff168152602001604051806020016040528060008152508152602001604051806020016040528060008152508152602001600081526020016000815260200160011515815260200160008152602001600115158152602001600081526020016040518060400160405280600481526020017f4e4f4e4500000000000000000000000000000000000000000000000000000000815250815250600160008373ffffffffffffffffffffffffffffffffffffffff1673ffffffffffffffffffffffffffffffffffffffff16815260200190815260200160002060008201518160000160006101000a81548173ffffffffffffffffffffffffffffffffffffffff021916908373ffffffffffffffffffffffffffffffffffffffff16021790555060208201518160010190805190602001906108d2929190614343565b5060408201518160020190805190602001906108ef929190614343565b50606082015181600301556080820151816004015560a08201518160050160006101000a81548160ff02191690831515021790555060c0820151816006015560e08201518160070160006101000a81548160ff0219169083151502179055506101008201518160080155610120820151816009019080519060200190610976929190614343565b5090505060028190806001815401808255809150509060018203906000526020600020016000909192909190916101000a81548173ffffffffffffffffffffffffffffffffffffffff021916908373ffffffffffffffffffffffffffffffffffffffff1602179055505050565b60016020528060005260406000206000915090508060000160009054906101000a900473ffffffffffffffffffffffffffffffffffffffff1690806001018054600181600116156101000203166002900480601f016020809104026020016040519081016040528092919081815260200182805460018160011615610100020316600290048015610ab55780601f10610a8a57610100808354040283529160200191610ab5565b820191906000526020600020905b815481529060010190602001808311610a9857829003601f168201915b505050505090806002018054600181600116156101000203166002900480601f016020809104026020016040519081016040528092919081815260200182805460018160011615610100020316600290048015610b535780601f10610b2857610100808354040283529160200191610b53565b820191906000526020600020905b815481529060010190602001808311610b3657829003601f168201915b5050505050908060030154908060040154908060050160009054906101000a900460ff16908060060154908060070160009054906101000a900460ff1690806008015490806009018054600181600116156101000203166002900480601f016020809104026020016040519081016040528092919081815260200182805460018160011615610100020316600290048015610c2f5780601f10610c0457610100808354040283529160200191610c2f565b820191906000526020600020905b815481529060010190602001808311610c1257829003601f168201915b505050505090508a565b60055481565b600160003373ffffffffffffffffffffffffffffffffffffffff1673ffffffffffffffffffffffffffffffffffffffff16815260200190815260200160002060050160009054906101000a900460ff1615610ccf576040517f08c379a0000000000000000000000000000000000000000000000000000000008152600401610cc6906155e8565b60405180910390fd5b80600160003373ffffffffffffffffffffffffffffffffffffffff1673ffffffffffffffffffffffffffffffffffffffff168152602001908152602001600020600401541015610d54576040517f08c379a0000000000000000000000000000000000000000000000000000000008152600401610d4b90615568565b60405180910390fd5b80600160003373ffffffffffffffffffffffffffffffffffffffff1673ffffffffffffffffffffffffffffffffffffffff1681526020019081526020016000206004016000828254039250508190555060003390508073ffffffffffffffffffffffffffffffffffffffff166108fc839081150290604051600060405180830381858888f19350505050158015610def573d6000803e3d6000fd5b505050565b6008602052816000526040600020602052806000526040600020600091509150505481565b600160003373ffffffffffffffffffffffffffffffffffffffff1673ffffffffffffffffffffffffffffffffffffffff16815260200190815260200160002060050160009054906101000a900460ff1615610ea9576040517f08c379a0000000000000000000000000000000000000000000000000000000008152600401610ea0906155e8565b60405180910390fd5b60078281548110610eb657fe5b906000526020600020906009020160080160009054906101000a900460ff16610f14576040517f08c379a0000000000000000000000000000000000000000000000000000000008152600401610f0b906154a8565b60405180910390fd5b600060078381548110610f2357fe5b90600052602060002090600902016004015460078481548110610f4257fe5b90600052602060002090600902016002015403905081811015610f63578091505b8160078481548110610f7157fe5b90600052602060002090600902016004016000828254019250508190555081600160003373ffffffffffffffffffffffffffffffffffffffff1673ffffffffffffffffffffffffffffffffffffffff168152602001908152602001600020600401541015611014576040517f08c379a000000000000000000000000000000000000000000000000000000000815260040161100b90615568565b60405180910390fd5b81600160003373ffffffffffffffffffffffffffffffffffffffff1673ffffffffffffffffffffffffffffffffffffffff16815260200190815260200160002060040160008282540392505081905550816008600085815260200190815260200160002060003373ffffffffffffffffffffffffffffffffffffffff1673ffffffffffffffffffffffffffffffffffffffff16815260200190815260200160002060008282540192505081905550600783815481106110cf57fe5b906000526020600020906009020160020154600784815481106110ee57fe5b90600052602060002090600902016004015414156111105761110f83614133565b5b505050565b600160003373ffffffffffffffffffffffffffffffffffffffff1673ffffffffffffffffffffffffffffffffffffffff16815260200190815260200160002060050160009054906101000a900460ff16156111a5576040517f08c379a000000000000000000000000000000000000000000000000000000000815260040161119c906155e8565b60405180910390fd5b3373ffffffffffffffffffffffffffffffffffffffff168273ffffffffffffffffffffffffffffffffffffffff161415611214576040517f08c379a000000000000000000000000000000000000000000000000000000000815260040161120b906155c8565b60405180910390fd5b600160008373ffffffffffffffffffffffffffffffffffffffff1673ffffffffffffffffffffffffffffffffffffffff16815260200190815260200160002060050160009054906101000a900460ff166112a3576040517f08c379a000000000000000000000000000000000000000000000000000000000815260040161129a906154e8565b60405180910390fd5b6000600460008473ffffffffffffffffffffffffffffffffffffffff1673ffffffffffffffffffffffffffffffffffffffff16815260200190815260200160002060003373ffffffffffffffffffffffffffffffffffffffff1673ffffffffffffffffffffffffffffffffffffffff1681526020019081526020016000205414611362576040517f08c379a000000000000000000000000000000000000000000000000000000000815260040161135990615408565b60405180910390fd5b80156113ef576001600460008473ffffffffffffffffffffffffffffffffffffffff1673ffffffffffffffffffffffffffffffffffffffff16815260200190815260200160002060003373ffffffffffffffffffffffffffffffffffffffff1673ffffffffffffffffffffffffffffffffffffffff16815260200190815260200160002081905550611491565b7fffffffffffffffffffffffffffffffffffffffffffffffffffffffffffffffff600460008473ffffffffffffffffffffffffffffffffffffffff1673ffffffffffffffffffffffffffffffffffffffff16815260200190815260200160002060003373ffffffffffffffffffffffffffffffffffffffff1673ffffffffffffffffffffffffffffffffffffffff168152602001908152602001600020819055505b5050565b6060600160003373ffffffffffffffffffffffffffffffffffffffff1673ffffffffffffffffffffffffffffffffffffffff16815260200190815260200160002060050160009054906101000a900460ff1615611527576040517f08c379a000000000000000000000000000000000000000000000000000000000815260040161151e906155e8565b60405180910390fd5b606060055460405190808252806020026020018201604052801561156557816020015b6115526143c3565b81526020019060019003908161154a5790505b509050600080905060008090505b6002805490508110156119e557600160006002838154811061159157fe5b9060005260206000200160009054906101000a900473ffffffffffffffffffffffffffffffffffffffff1673ffffffffffffffffffffffffffffffffffffffff1673ffffffffffffffffffffffffffffffffffffffff16815260200190815260200160002060050160009054906101000a900460ff161580156116975750600160006002838154811061162057fe5b9060005260206000200160009054906101000a900473ffffffffffffffffffffffffffffffffffffffff1673ffffffffffffffffffffffffffffffffffffffff1673ffffffffffffffffffffffffffffffffffffffff16815260200190815260200160002060070160009054906101000a900460ff165b156119d85760016000600283815481106116ad57fe5b9060005260206000200160009054906101000a900473ffffffffffffffffffffffffffffffffffffffff1673ffffffffffffffffffffffffffffffffffffffff1673ffffffffffffffffffffffffffffffffffffffff168152602001908152602001600020604051806101400160405290816000820160009054906101000a900473ffffffffffffffffffffffffffffffffffffffff1673ffffffffffffffffffffffffffffffffffffffff1673ffffffffffffffffffffffffffffffffffffffff168152602001600182018054600181600116156101000203166002900480601f01602080910402602001604051908101604052809291908181526020018280546001816001161561010002031660029004801561180d5780601f106117e25761010080835404028352916020019161180d565b820191906000526020600020905b8154815290600101906020018083116117f057829003601f168201915b50505050508152602001600282018054600181600116156101000203166002900480601f0160208091040260200160405190810160405280929190818152602001828054600181600116156101000203166002900480156118af5780601f10611884576101008083540402835291602001916118af565b820191906000526020600020905b81548152906001019060200180831161189257829003601f168201915b5050505050815260200160038201548152602001600482015481526020016005820160009054906101000a900460ff16151515158152602001600682015481526020016007820160009054906101000a900460ff1615151515815260200160088201548152602001600982018054600181600116156101000203166002900480601f0160208091040260200160405190810160405280929190818152602001828054600181600116156101000203166002900480156119af5780601f10611984576101008083540402835291602001916119af565b820191906000526020600020905b81548152906001019060200180831161199257829003601f168201915b5050505050815250508383815181106119c457fe5b602002602001018190525081806001019250505b8080600101915050611573565b50819250505090565b6119f6612a38565b611a35576040517f08c379a0000000000000000000000000000000000000000000000000000000008152600401611a2c90615428565b60405180910390fd5b600160003373ffffffffffffffffffffffffffffffffffffffff1673ffffffffffffffffffffffffffffffffffffffff16815260200190815260200160002060050160009054906101000a900460ff16611ac4576040517f08c379a0000000000000000000000000000000000000000000000000000000008152600401611abb90615588565b60405180910390fd5b80600160003373ffffffffffffffffffffffffffffffffffffffff1673ffffffffffffffffffffffffffffffffffffffff1681526020019081526020016000206001019080519060200190611b1a929190614430565b506000600160003373ffffffffffffffffffffffffffffffffffffffff1673ffffffffffffffffffffffffffffffffffffffff16815260200190815260200160002060050160006101000a81548160ff02191690831515021790555060023390806001815401808255809150509060018203906000526020600020016000909192909190916101000a81548173ffffffffffffffffffffffffffffffffffffffff021916908373ffffffffffffffffffffffffffffffffffffffff16021790555050600160056000828254019250508190555050565b60038054600181600116156101000203166002900480601f016020809104026020016040519081016040528092919081815260200182805460018160011615610100020316600290048015611c865780601f10611c5b57610100808354040283529160200191611c86565b820191906000526020600020905b815481529060010190602001808311611c6957829003601f168201915b505050505081565b6060600160003373ffffffffffffffffffffffffffffffffffffffff1673ffffffffffffffffffffffffffffffffffffffff16815260200190815260200160002060050160009054906101000a900460ff1615611d20576040517f08c379a0000000000000000000000000000000000000000000000000000000008152600401611d17906155e8565b60405180910390fd5b600080905060008090505b600280549050811015611e99576001600060028381548110611d4957fe5b9060005260206000200160009054906101000a900473ffffffffffffffffffffffffffffffffffffffff1673ffffffffffffffffffffffffffffffffffffffff1673ffffffffffffffffffffffffffffffffffffffff16815260200190815260200160002060050160009054906101000a900460ff168015611e7e575060006004600060028481548110611dd957fe5b9060005260206000200160009054906101000a900473ffffffffffffffffffffffffffffffffffffffff1673ffffffffffffffffffffffffffffffffffffffff1673ffffffffffffffffffffffffffffffffffffffff16815260200190815260200160002060003373ffffffffffffffffffffffffffffffffffffffff1673ffffffffffffffffffffffffffffffffffffffff16815260200190815260200160002054145b15611e8c5781806001019250505b8080600101915050611d2b565b50606081604051908082528060200260200182016040528015611ed657816020015b611ec36143c3565b815260200190600190039081611ebb5790505b509050600080905060008090505b600280549050811015612385576001600060028381548110611f0257fe5b9060005260206000200160009054906101000a900473ffffffffffffffffffffffffffffffffffffffff1673ffffffffffffffffffffffffffffffffffffffff1673ffffffffffffffffffffffffffffffffffffffff16815260200190815260200160002060050160009054906101000a900460ff168015612037575060006004600060028481548110611f9257fe5b9060005260206000200160009054906101000a900473ffffffffffffffffffffffffffffffffffffffff1673ffffffffffffffffffffffffffffffffffffffff1673ffffffffffffffffffffffffffffffffffffffff16815260200190815260200160002060003373ffffffffffffffffffffffffffffffffffffffff1673ffffffffffffffffffffffffffffffffffffffff16815260200190815260200160002054145b1561237857600160006002838154811061204d57fe5b9060005260206000200160009054906101000a900473ffffffffffffffffffffffffffffffffffffffff1673ffffffffffffffffffffffffffffffffffffffff1673ffffffffffffffffffffffffffffffffffffffff168152602001908152602001600020604051806101400160405290816000820160009054906101000a900473ffffffffffffffffffffffffffffffffffffffff1673ffffffffffffffffffffffffffffffffffffffff1673ffffffffffffffffffffffffffffffffffffffff168152602001600182018054600181600116156101000203166002900480601f0160208091040260200160405190810160405280929190818152602001828054600181600116156101000203166002900480156121ad5780601f10612182576101008083540402835291602001916121ad565b820191906000526020600020905b81548152906001019060200180831161219057829003601f168201915b50505050508152602001600282018054600181600116156101000203166002900480601f01602080910402602001604051908101604052809291908181526020018280546001816001161561010002031660029004801561224f5780601f106122245761010080835404028352916020019161224f565b820191906000526020600020905b81548152906001019060200180831161223257829003601f168201915b5050505050815260200160038201548152602001600482015481526020016005820160009054906101000a900460ff16151515158152602001600682015481526020016007820160009054906101000a900460ff1615151515815260200160088201548152602001600982018054600181600116156101000203166002900480601f01602080910402602001604051908101604052809291908181526020018280546001816001161561010002031660029004801561234f5780601f106123245761010080835404028352916020019161234f565b820191906000526020600020905b81548152906001019060200180831161233257829003601f168201915b50505050508152505083838151811061236457fe5b602002602001018190525081806001019250505b8080600101915050611ee4565b5081935050505090565b6123976144b0565b600160003373ffffffffffffffffffffffffffffffffffffffff1673ffffffffffffffffffffffffffffffffffffffff16815260200190815260200160002060050160009054906101000a900460ff1615612427576040517f08c379a000000000000000000000000000000000000000000000000000000000815260040161241e906155e8565b60405180910390fd5b61242f6144b0565b60405180610140016040528060065481526020013373ffffffffffffffffffffffffffffffffffffffff16815260200187815260200186815260200160008152602001858152602001600015158152602001600015158152602001848152602001600115158152509050600781908060018154018082558091505090600182039060005260206000209060090201600090919290919091506000820151816000015560208201518160010160006101000a81548173ffffffffffffffffffffffffffffffffffffffff021916908373ffffffffffffffffffffffffffffffffffffffff16021790555060408201518160020155606082015181600301556080820151816004015560a0820151816005015560c08201518160060160006101000a81548160ff02191690831515021790555060e08201518160060160016101000a81548160ff02191690831515021790555061010082015181600701908051906020019061259d929190614343565b506101208201518160080160006101000a81548160ff021916908315150217905550505050600654600160003373ffffffffffffffffffffffffffffffffffffffff1673ffffffffffffffffffffffffffffffffffffffff168152602001908152602001600020600801819055506040518060400160405280600781526020017f50454e44494e4700000000000000000000000000000000000000000000000000815250600160003373ffffffffffffffffffffffffffffffffffffffff1673ffffffffffffffffffffffffffffffffffffffff1681526020019081526020016000206009019080519060200190612696929190614430565b50600160066000828254019250508190555080915050949350505050565b6000809054906101000a900473ffffffffffffffffffffffffffffffffffffffff1681565b6060600160003373ffffffffffffffffffffffffffffffffffffffff1673ffffffffffffffffffffffffffffffffffffffff16815260200190815260200160002060050160009054906101000a900460ff161561276b576040517f08c379a0000000000000000000000000000000000000000000000000000000008152600401612762906155e8565b60405180910390fd5b600080905060008090505b6007805490508110156127c7576007818154811061279057fe5b906000526020600020906009020160060160009054906101000a900460ff166127ba576001820191505b8080600101915050612776565b50600080905060608260405190808252806020026020018201604052801561280957816020015b6127f661451f565b8152602001906001900390816127ee5790505b50905060008090505b600780549050811015612a16576007818154811061282c57fe5b906000526020600020906009020160060160009054906101000a900460ff16612a09576007818154811061285c57fe5b906000526020600020906009020160405180610140016040529081600082015481526020016001820160009054906101000a900473ffffffffffffffffffffffffffffffffffffffff1673ffffffffffffffffffffffffffffffffffffffff1673ffffffffffffffffffffffffffffffffffffffff168152602001600282015481526020016003820154815260200160048201548152602001600582015481526020016006820160009054906101000a900460ff161515151581526020016006820160019054906101000a900460ff16151515158152602001600782018054600181600116156101000203166002900480601f0160208091040260200160405190810160405280929190818152602001828054600181600116156101000203166002900480156129cd5780601f106129a2576101008083540402835291602001916129cd565b820191906000526020600020905b8154815290600101906020018083116129b057829003601f168201915b505050505081526020016008820160009054906101000a900460ff1615151515815250508284815181106129fd57fe5b60200260200101819052505b8080600101915050612812565b5080935050505090565b60096020528060005260406000206000915090505481565b6000806000905060008090505b600280549050811015612b24576001600460003373ffffffffffffffffffffffffffffffffffffffff1673ffffffffffffffffffffffffffffffffffffffff168152602001908152602001600020600060028481548110612aa257fe5b9060005260206000200160009054906101000a900473ffffffffffffffffffffffffffffffffffffffff1673ffffffffffffffffffffffffffffffffffffffff1673ffffffffffffffffffffffffffffffffffffffff168152602001908152602001600020541415612b175781806001019250505b8080600101915050612a45565b506706f05b59d3b20000600554670de0b6b3a7640000830281612b4357fe5b041115612b54576001915050612b5a565b60009150505b90565b600160003373ffffffffffffffffffffffffffffffffffffffff1673ffffffffffffffffffffffffffffffffffffffff16815260200190815260200160002060050160009054906101000a900460ff1615612bed576040517f08c379a0000000000000000000000000000000000000000000000000000000008152600401612be4906155e8565b60405180910390fd5b60078181548110612bfa57fe5b906000526020600020906009020160080160009054906101000a900460ff16612c58576040517f08c379a0000000000000000000000000000000000000000000000000000000008152600401612c4f906154a8565b60405180910390fd5b3373ffffffffffffffffffffffffffffffffffffffff1660078281548110612c7c57fe5b906000526020600020906009020160010160009054906101000a900473ffffffffffffffffffffffffffffffffffffffff1673ffffffffffffffffffffffffffffffffffffffff1614612d04576040517f08c379a0000000000000000000000000000000000000000000000000000000008152600401612cfb90615548565b60405180910390fd5b60078181548110612d1157fe5b906000526020600020906009020160060160009054906101000a900460ff16612d6f576040517f08c379a0000000000000000000000000000000000000000000000000000000008152600401612d6690615448565b60405180910390fd5b60078181548110612d7c57fe5b9060005260206000209060090201600201546001600060078481548110612d9f57fe5b906000526020600020906009020160010160009054906101000a900473ffffffffffffffffffffffffffffffffffffffff1673ffffffffffffffffffffffffffffffffffffffff1673ffffffffffffffffffffffffffffffffffffffff1681526020019081526020016000206004015411612e4f576040517f08c379a0000000000000000000000000000000000000000000000000000000008152600401612e46906154c8565b60405180910390fd5b606460078281548110612e5e57fe5b90600052602060002090600902016002015460078381548110612e7d57fe5b9060005260206000209060090201600301546064010281612e9a57fe5b046001600060078481548110612eac57fe5b906000526020600020906009020160010160009054906101000a900473ffffffffffffffffffffffffffffffffffffffff1673ffffffffffffffffffffffffffffffffffffffff1673ffffffffffffffffffffffffffffffffffffffff1681526020019081526020016000206004016000828254039250508190555060008090505b60028054905081101561311457600060086000848152602001908152602001600020600060028481548110612f5f57fe5b9060005260206000200160009054906101000a900473ffffffffffffffffffffffffffffffffffffffff1673ffffffffffffffffffffffffffffffffffffffff1673ffffffffffffffffffffffffffffffffffffffff1681526020019081526020016000205411156131075760c860086000848152602001908152602001600020600060028481548110612fef57fe5b9060005260206000200160009054906101000a900473ffffffffffffffffffffffffffffffffffffffff1673ffffffffffffffffffffffffffffffffffffffff1673ffffffffffffffffffffffffffffffffffffffff168152602001908152602001600020546007848154811061306257fe5b906000526020600020906009020160030154606401028161307f57fe5b04600160006002848154811061309157fe5b9060005260206000200160009054906101000a900473ffffffffffffffffffffffffffffffffffffffff1673ffffffffffffffffffffffffffffffffffffffff1673ffffffffffffffffffffffffffffffffffffffff168152602001908152602001600020600401600082825401925050819055505b8080600101915050612f2e565b5060016007828154811061312457fe5b906000526020600020906009020160060160016101000a81548160ff0219169083151502179055506040518060400160405280600481526020017f4e6f6e6500000000000000000000000000000000000000000000000000000000815250600160006007848154811061319357fe5b906000526020600020906009020160010160009054906101000a900473ffffffffffffffffffffffffffffffffffffffff1673ffffffffffffffffffffffffffffffffffffffff1673ffffffffffffffffffffffffffffffffffffffff1681526020019081526020016000206009019080519060200190613215929190614430565b506000600160006007848154811061322957fe5b906000526020600020906009020160010160009054906101000a900473ffffffffffffffffffffffffffffffffffffffff1673ffffffffffffffffffffffffffffffffffffffff1673ffffffffffffffffffffffffffffffffffffffff1681526020019081526020016000206008018190555050565b600a6020528060005260406000206000915090505481565b3373ffffffffffffffffffffffffffffffffffffffff16600782815481106132db57fe5b906000526020600020906009020160010160009054906101000a900473ffffffffffffffffffffffffffffffffffffffff1673ffffffffffffffffffffffffffffffffffffffff1614613363576040517f08c379a000000000000000000000000000000000000000000000000000000000815260040161335a90615468565b60405180910390fd5b6007818154811061337057fe5b906000526020600020906009020160080160009054906101000a900460ff166133ce576040517f08c379a00000000000000000000000000000000000000000000000000000000081526004016133c590615508565b60405180910390fd5b600781815481106133db57fe5b906000526020600020906009020160060160009054906101000a900460ff161561343a576040517f08c379a0000000000000000000000000000000000000000000000000000000008152600401613431906155a8565b60405180910390fd5b60006007828154811061344957fe5b906000526020600020906009020160080160006101000a81548160ff02191690831515021790555060008090505b60028054905081101561363a576000600860008481526020019081526020016000206000600284815481106134a857fe5b9060005260206000200160009054906101000a900473ffffffffffffffffffffffffffffffffffffffff1673ffffffffffffffffffffffffffffffffffffffff1673ffffffffffffffffffffffffffffffffffffffff16815260200190815260200160002054111561362d5760026008600084815260200190815260200160002060006002848154811061353857fe5b9060005260206000200160009054906101000a900473ffffffffffffffffffffffffffffffffffffffff1673ffffffffffffffffffffffffffffffffffffffff1673ffffffffffffffffffffffffffffffffffffffff16815260200190815260200160002054816135a557fe5b0460016000600284815481106135b757fe5b9060005260206000200160009054906101000a900473ffffffffffffffffffffffffffffffffffffffff1673ffffffffffffffffffffffffffffffffffffffff1673ffffffffffffffffffffffffffffffffffffffff168152602001908152602001600020600401600082825401925050819055505b8080600101915050613477565b506000600160003373ffffffffffffffffffffffffffffffffffffffff1673ffffffffffffffffffffffffffffffffffffffff168152602001908152602001600020600801819055506040518060400160405280600481526020017f4e4f4e4500000000000000000000000000000000000000000000000000000000815250600160003373ffffffffffffffffffffffffffffffffffffffff1673ffffffffffffffffffffffffffffffffffffffff168152602001908152602001600020600901908051906020019061370e929190614430565b5050565b6004602052816000526040600020602052806000526040600020600091509150505481565b6060600160003373ffffffffffffffffffffffffffffffffffffffff1673ffffffffffffffffffffffffffffffffffffffff16815260200190815260200160002060050160009054906101000a900460ff16156137c9576040517f08c379a00000000000000000000000000000000000000000000000000000000081526004016137c0906155e8565b60405180910390fd5b600080905060008090505b6002805490508110156139435760016000600283815481106137f257fe5b9060005260206000200160009054906101000a900473ffffffffffffffffffffffffffffffffffffffff1673ffffffffffffffffffffffffffffffffffffffff1673ffffffffffffffffffffffffffffffffffffffff16815260200190815260200160002060050160009054906101000a900460ff16801561392857506000600460006002848154811061388257fe5b9060005260206000200160009054906101000a900473ffffffffffffffffffffffffffffffffffffffff1673ffffffffffffffffffffffffffffffffffffffff1673ffffffffffffffffffffffffffffffffffffffff16815260200190815260200160002060003373ffffffffffffffffffffffffffffffffffffffff1673ffffffffffffffffffffffffffffffffffffffff1681526020019081526020016000205414155b156139365781806001019250505b80806001019150506137d4565b5060608160405190808252806020026020018201604052801561398057816020015b61396d6143c3565b8152602001906001900390816139655790505b509050600080905060008090505b600280549050811015613e305760016000600283815481106139ac57fe5b9060005260206000200160009054906101000a900473ffffffffffffffffffffffffffffffffffffffff1673ffffffffffffffffffffffffffffffffffffffff1673ffffffffffffffffffffffffffffffffffffffff16815260200190815260200160002060050160009054906101000a900460ff168015613ae2575060006004600060028481548110613a3c57fe5b9060005260206000200160009054906101000a900473ffffffffffffffffffffffffffffffffffffffff1673ffffffffffffffffffffffffffffffffffffffff1673ffffffffffffffffffffffffffffffffffffffff16815260200190815260200160002060003373ffffffffffffffffffffffffffffffffffffffff1673ffffffffffffffffffffffffffffffffffffffff1681526020019081526020016000205414155b15613e23576001600060028381548110613af857fe5b9060005260206000200160009054906101000a900473ffffffffffffffffffffffffffffffffffffffff1673ffffffffffffffffffffffffffffffffffffffff1673ffffffffffffffffffffffffffffffffffffffff168152602001908152602001600020604051806101400160405290816000820160009054906101000a900473ffffffffffffffffffffffffffffffffffffffff1673ffffffffffffffffffffffffffffffffffffffff1673ffffffffffffffffffffffffffffffffffffffff168152602001600182018054600181600116156101000203166002900480601f016020809104026020016040519081016040528092919081815260200182805460018160011615610100020316600290048015613c585780601f10613c2d57610100808354040283529160200191613c58565b820191906000526020600020905b815481529060010190602001808311613c3b57829003601f168201915b50505050508152602001600282018054600181600116156101000203166002900480601f016020809104026020016040519081016040528092919081815260200182805460018160011615610100020316600290048015613cfa5780601f10613ccf57610100808354040283529160200191613cfa565b820191906000526020600020905b815481529060010190602001808311613cdd57829003601f168201915b5050505050815260200160038201548152602001600482015481526020016005820160009054906101000a900460ff16151515158152602001600682015481526020016007820160009054906101000a900460ff1615151515815260200160088201548152602001600982018054600181600116156101000203166002900480601f016020809104026020016040519081016040528092919081815260200182805460018160011615610100020316600290048015613dfa5780601f10613dcf57610100808354040283529160200191613dfa565b820191906000526020600020905b815481529060010190602001808311613ddd57829003601f168201915b505050505081525050838381518110613e0f57fe5b602002602001018190525081806001019250505b808060010191505061398e565b5081935050505090565b6060600160003373ffffffffffffffffffffffffffffffffffffffff1673ffffffffffffffffffffffffffffffffffffffff16815260200190815260200160002060050160009054906101000a900460ff1615613ecc576040517f08c379a0000000000000000000000000000000000000000000000000000000008152600401613ec3906155e8565b60405180910390fd5b90565b60078181548110613edc57fe5b90600052602060002090600902016000915090508060000154908060010160009054906101000a900473ffffffffffffffffffffffffffffffffffffffff16908060020154908060030154908060040154908060050154908060060160009054906101000a900460ff16908060060160019054906101000a900460ff1690806007018054600181600116156101000203166002900480601f016020809104026020016040519081016040528092919081815260200182805460018160011615610100020316600290048015613ff25780601f10613fc757610100808354040283529160200191613ff2565b820191906000526020600020905b815481529060010190602001808311613fd557829003601f168201915b5050505050908060080160009054906101000a900460ff1690508a565b600160003373ffffffffffffffffffffffffffffffffffffffff1673ffffffffffffffffffffffffffffffffffffffff16815260200190815260200160002060050160009054906101000a900460ff161561409f576040517f08c379a0000000000000000000000000000000000000000000000000000000008152600401614096906155e8565b60405180910390fd5b34600160003373ffffffffffffffffffffffffffffffffffffffff1673ffffffffffffffffffffffffffffffffffffffff16815260200190815260200160002060040160008282540192505081905550565b60065481565b6002818154811061410457fe5b906000526020600020016000915054906101000a900473ffffffffffffffffffffffffffffffffffffffff1681565b806007828154811061414157fe5b90600052602060002090600902016000015414614193576040517f08c379a000000000000000000000000000000000000000000000000000000000815260040161418a90615528565b60405180910390fd5b6001600782815481106141a257fe5b906000526020600020906009020160060160006101000a81548160ff021916908315150217905550600781815481106141d757fe5b90600052602060002090600902016002015460016000600784815481106141fa57fe5b906000526020600020906009020160010160009054906101000a900473ffffffffffffffffffffffffffffffffffffffff1673ffffffffffffffffffffffffffffffffffffffff1673ffffffffffffffffffffffffffffffffffffffff168152602001908152602001600020600401600082825401925050819055506040518060400160405280600681526020017f414354495645000000000000000000000000000000000000000000000000000081525060016000600784815481106142bd57fe5b906000526020600020906009020160010160009054906101000a900473ffffffffffffffffffffffffffffffffffffffff1673ffffffffffffffffffffffffffffffffffffffff1673ffffffffffffffffffffffffffffffffffffffff168152602001908152602001600020600901908051906020019061433f929190614430565b5050565b828054600181600116156101000203166002900490600052602060002090601f016020900481019282601f1061438457805160ff19168380011785556143b2565b828001600101855582156143b2579182015b828111156143b1578251825591602001919060010190614396565b5b5090506143bf919061458e565b5090565b604051806101400160405280600073ffffffffffffffffffffffffffffffffffffffff168152602001606081526020016060815260200160008152602001600081526020016000151581526020016000815260200160001515815260200160008152602001606081525090565b828054600181600116156101000203166002900490600052602060002090601f016020900481019282601f1061447157805160ff191683800117855561449f565b8280016001018555821561449f579182015b8281111561449e578251825591602001919060010190614483565b5b5090506144ac919061458e565b5090565b60405180610140016040528060008152602001600073ffffffffffffffffffffffffffffffffffffffff16815260200160008152602001600081526020016000815260200160008152602001600015158152602001600015158152602001606081526020016000151581525090565b60405180610140016040528060008152602001600073ffffffffffffffffffffffffffffffffffffffff16815260200160008152602001600081526020016000815260200160008152602001600015158152602001600015158152602001606081526020016000151581525090565b6145b091905b808211156145ac576000816000905550600101614594565b5090565b90565b6000813590506145c2816158be565b92915050565b6000813590506145d7816158d5565b92915050565b600082601f8301126145ee57600080fd5b81356146016145fc82615715565b6156e8565b9150808252602083016020830185838301111561461d57600080fd5b61462883828461586b565b50505092915050565b600081359050614640816158ec565b92915050565b60006020828403121561465857600080fd5b6000614666848285016145b3565b91505092915050565b6000806040838503121561468257600080fd5b6000614690858286016145b3565b92505060206146a1858286016145b3565b9150509250929050565b600080604083850312156146be57600080fd5b60006146cc858286016145b3565b92505060206146dd858286016145c8565b9150509250929050565b6000602082840312156146f957600080fd5b600082013567ffffffffffffffff81111561471357600080fd5b61471f848285016145dd565b91505092915050565b60006020828403121561473a57600080fd5b600061474884828501614631565b91505092915050565b6000806040838503121561476457600080fd5b600061477285828601614631565b9250506020614783858286016145b3565b9150509250929050565b600080604083850312156147a057600080fd5b60006147ae85828601614631565b92505060206147bf85828601614631565b9150509250929050565b600080600080608085870312156147df57600080fd5b60006147ed87828801614631565b94505060206147fe87828801614631565b935050604061480f87828801614631565b925050606085013567ffffffffffffffff81111561482c57600080fd5b614838878288016145dd565b91505092959194509250565b60006148508383614f34565b905092915050565b6000614864838361509e565b905092915050565b60006148788383615178565b905092915050565b61488981615819565b82525050565b61489881615819565b82525050565b60006148a982615771565b6148b381856157c4565b9350836020820285016148c585615741565b8060005b8581101561490157848403895281516148e28582614844565b94506148ed8361579d565b925060208a019950506001810190506148c9565b50829750879550505050505092915050565b600061491e8261577c565b61492881856157d5565b93508360208202850161493a85615751565b8060005b8581101561497657848403895281516149578582614858565b9450614962836157aa565b925060208a0199505060018101905061493e565b50829750879550505050505092915050565b600061499382615787565b61499d81856157e6565b9350836020820285016149af85615761565b8060005b858110156149eb57848403895281516149cc858261486c565b94506149d7836157b7565b925060208a019950506001810190506149b3565b50829750879550505050505092915050565b614a068161582b565b82525050565b614a158161582b565b82525050565b614a2481615837565b82525050565b6000614a3582615792565b614a3f81856157f7565b9350614a4f81856020860161587a565b614a58816158ad565b840191505092915050565b6000614a6e82615792565b614a788185615808565b9350614a8881856020860161587a565b614a91816158ad565b840191505092915050565b6000614aa9602083615808565b91507f616c726561647920766f74656420666f7220746869732063616e6469646174656000830152602082019050919050565b6000614ae9602183615808565b91507f4d656d62657220646f6573206e6f74206861766520656e6f75676820766f746560008301527f73000000000000000000000000000000000000000000000000000000000000006020830152604082019050919050565b6000614b4f601a83615808565b91507f6c6f616e20616c7265616479206e6f74206265656e206c656e740000000000006000830152602082019050919050565b6000614b8f601a83615808565b91507f6f6e6c7920746865206c656e6465722063616e2063616e63656c0000000000006000830152602082019050919050565b6000614bcf601583615808565b91507f6d656d62657220616c72656164792065786973747300000000000000000000006000830152602082019050919050565b6000614c0f602983615808565b91507f6c6f616e20646f6573206e6f74206578697374206f7220686173206265656e2060008301527f63616e63656c6c656400000000000000000000000000000000000000000000006020830152604082019050919050565b6000614c75602783615808565b91507f796f7520646f206e6f74206861766520656e6f7567682062616c616e6365207460008301527f6f207265706179000000000000000000000000000000000000000000000000006020830152604082019050919050565b6000614cdb601983615808565b91507f43616e646964617465206d7573742062652070656e64696e67000000000000006000830152602082019050919050565b6000614d1b601383615808565b91507f6c6f616e20646f6573206e6f74206578697374000000000000000000000000006000830152602082019050919050565b6000614d5b600483615808565b91507f74657374000000000000000000000000000000000000000000000000000000006000830152602082019050919050565b6000614d9b601783615808565b91507f6f6e6c7920746865206c656e6465722063616e207061790000000000000000006000830152602082019050919050565b6000614ddb601483615808565b91507f696e73756666696369656e742062616c616e63650000000000000000000000006000830152602082019050919050565b6000614e1b601e83615808565b91507f4d656d626572206d7573742062652070656e64696e6720746f206a6f696e00006000830152602082019050919050565b6000614e5b601a83615808565b91507f6c6f616e20616c726561647920686173206265656e206c656e740000000000006000830152602082019050919050565b6000614e9b601883615808565b91507f43616e6e6f7420766f746520666f7220796f757273656c6600000000000000006000830152602082019050919050565b6000614edb602483615808565b91507f4f6e6c79206d656d626572732063616e2063616c6c20746869732066756e637460008301527f696f6e2e000000000000000000000000000000000000000000000000000000006020830152604082019050919050565b600060c083016000830151614f4c6000860182615260565b506020830151614f5f6020860182615260565b506040830151614f726040860182615260565b506060830151614f856060860182614880565b5060808301518482036080860152614f9d8282614a2a565b91505060a083015184820360a0860152614fb78282614a2a565b9150508091505092915050565b600061014083016000830151614fdd6000860182615260565b506020830151614ff06020860182614880565b5060408301516150036040860182615260565b5060608301516150166060860182615260565b5060808301516150296080860182615260565b5060a083015161503c60a0860182615260565b5060c083015161504f60c08601826149fd565b5060e083015161506260e08601826149fd565b5061010083015184820361010086015261507c8282614a2a565b9150506101208301516150936101208601826149fd565b508091505092915050565b6000610140830160008301516150b76000860182615260565b5060208301516150ca6020860182614880565b5060408301516150dd6040860182615260565b5060608301516150f06060860182615260565b5060808301516151036080860182615260565b5060a083015161511660a0860182615260565b5060c083015161512960c08601826149fd565b5060e083015161513c60e08601826149fd565b506101008301518482036101008601526151568282614a2a565b91505061012083015161516d6101208601826149fd565b508091505092915050565b6000610140830160008301516151916000860182614880565b50602083015184820360208601526151a98282614a2a565b915050604083015184820360408601526151c38282614a2a565b91505060608301516151d86060860182615260565b5060808301516151eb6080860182615260565b5060a08301516151fe60a08601826149fd565b5060c083015161521160c0860182615260565b5060e083015161522460e08601826149fd565b50610100830151615239610100860182615260565b506101208301518482036101208601526152538282614a2a565b9150508091505092915050565b61526981615861565b82525050565b61527881615861565b82525050565b6000602082019050615293600083018461488f565b92915050565b6000610140820190506152af600083018d61488f565b81810360208301526152c1818c614a63565b905081810360408301526152d5818b614a63565b90506152e4606083018a61526f565b6152f1608083018961526f565b6152fe60a0830188614a0c565b61530b60c083018761526f565b61531860e0830186614a0c565b61532661010083018561526f565b8181036101208301526153398184614a63565b90509b9a5050505050505050505050565b60006020820190508181036000830152615364818461489e565b905092915050565b600060208201905081810360008301526153868184614913565b905092915050565b600060208201905081810360008301526153a88184614988565b905092915050565b60006020820190506153c56000830184614a0c565b92915050565b60006020820190506153e06000830184614a1b565b92915050565b600060208201905081810360008301526154008184614a63565b905092915050565b6000602082019050818103600083015261542181614a9c565b9050919050565b6000602082019050818103600083015261544181614adc565b9050919050565b6000602082019050818103600083015261546181614b42565b9050919050565b6000602082019050818103600083015261548181614b82565b9050919050565b600060208201905081810360008301526154a181614bc2565b9050919050565b600060208201905081810360008301526154c181614c02565b9050919050565b600060208201905081810360008301526154e181614c68565b9050919050565b6000602082019050818103600083015261550181614cce565b9050919050565b6000602082019050818103600083015261552181614d0e565b9050919050565b6000602082019050818103600083015261554181614d4e565b9050919050565b6000602082019050818103600083015261556181614d8e565b9050919050565b6000602082019050818103600083015261558181614dce565b9050919050565b600060208201905081810360008301526155a181614e0e565b9050919050565b600060208201905081810360008301526155c181614e4e565b9050919050565b600060208201905081810360008301526155e181614e8e565b9050919050565b6000602082019050818103600083015261560181614ece565b9050919050565b600060208201905081810360008301526156228184614fc4565b905092915050565b600060208201905061563f600083018461526f565b92915050565b60006101408201905061565b600083018d61526f565b615668602083018c61488f565b615675604083018b61526f565b615682606083018a61526f565b61568f608083018961526f565b61569c60a083018861526f565b6156a960c0830187614a0c565b6156b660e0830186614a0c565b8181036101008301526156c98185614a63565b90506156d9610120830184614a0c565b9b9a5050505050505050505050565b6000604051905081810181811067ffffffffffffffff8211171561570b57600080fd5b8060405250919050565b600067ffffffffffffffff82111561572c57600080fd5b601f19601f8301169050602081019050919050565b6000819050602082019050919050565b6000819050602082019050919050565b6000819050602082019050919050565b600081519050919050565b600081519050919050565b600081519050919050565b600081519050919050565b6000602082019050919050565b6000602082019050919050565b6000602082019050919050565b600082825260208201905092915050565b600082825260208201905092915050565b600082825260208201905092915050565b600082825260208201905092915050565b600082825260208201905092915050565b600061582482615841565b9050919050565b60008115159050919050565b6000819050919050565b600073ffffffffffffffffffffffffffffffffffffffff82169050919050565b6000819050919050565b82818337600083830152505050565b60005b8381101561589857808201518184015260208101905061587d565b838111156158a7576000848401525b50505050565b6000601f19601f8301169050919050565b6158c781615819565b81146158d257600080fd5b50565b6158de8161582b565b81146158e957600080fd5b50565b6158f581615861565b811461590057600080fd5b5056fea365627a7a7231582096d3f79d568f827d3649dcb75b861d7c3bb94d87592a60aa6f3b1124cc0ae9896c6578706572696d656e74616cf564736f6c634300050f0040",
  "source": "// SPDX-License-Identifier: MIT\npragma solidity ^0.5.15;\npragma experimental ABIEncoderV2;\n\ncontract FriendLend {\n    struct Member {\n        address memberAddress;\n        string username;\n        string myPassword;\n        uint256 friendScore;\n        uint256 balance;\n        bool isPending; // membership status\n        uint256 dateAdded;\n        bool exists;\n        uint loanid; // connects to a loan struct\n        string loanStatus; // \"NONE\", \"PENDING\", \"ACTIVE\"\n    }\n\n    struct Loan {\n        uint id;\n        address borrower;\n        uint256 amount;\n        uint256 interest;\n        uint256 filled;\n        uint256 dueDate;\n        bool isLent;\n        bool isReturned;\n        string reason;\n        bool exists;\n    }\n\n    struct Investment {\n        uint256 amount;\n        uint256 interest;\n        uint256 dueDate;\n        address borrower;\n        string username;\n        string reason;\n    }\n\n    address public owner; // address of group creator\n    mapping(address => Member) public members; // mapping to member structs\n    address[] public allMembers; // array of all member addresses\n    string public groupName;\n    mapping(address => mapping(address => int)) public votes; // mapping of candidate addresses to a mapping of the people and their votes for the candidate\n    uint public memberCount = 0; //number of confirmed members\n\n    uint public currLoanId = 0;\n    Loan[] public loans; //list of all lones\n    mapping(uint => mapping(address => uint)) public loanContributions;\n    mapping(address => uint256) public bannedMembers;\n    mapping(address => uint256) public test;\n    constructor(\n        string memory theGroupName,\n        string memory myUsername,\n        string memory myPassword\n    ) public {\n        owner = msg.sender;\n        members[owner] = Member(\n            owner,\n            myUsername,\n            myPassword,\n            0,\n            0,\n            false,\n            0,\n            true,\n            0,\n            \"NONE\"\n        );\n        memberCount += 1;\n        allMembers.push(msg.sender);\n        groupName = theGroupName;\n    }\n\n    modifier onlyOwner() {\n        require(msg.sender == owner, \"Only owner can call this function.\");\n        _;\n    }\n\n    modifier onlyMembers() {\n        require(\n            !members[msg.sender].isPending,\n            \"Only members can call this function.\"\n        );\n        _;\n    }\n\n    function proposeInvite(address newMemberAddress) public onlyMembers {\n        // Logic to propose a new member\n        require(!members[newMemberAddress].exists, \"member already exists\");\n        members[newMemberAddress] = Member(\n            newMemberAddress,\n            \"\",\n            \"\",\n            0,\n            0,\n            true,\n            0,\n            true,\n            0,\n            \"NONE\"\n        );\n        allMembers.push(newMemberAddress);\n    }\n\n    function voteOnPendingPerson(\n        address candidateAddress,\n        bool vote\n    ) public onlyMembers {\n        // Logic to vote on a pending member\n        require(candidateAddress != msg.sender, \"Cannot vote for yourself\");\n        require(\n            members[candidateAddress].isPending,\n            \"Candidate must be pending\"\n        );\n        require(\n            votes[candidateAddress][msg.sender] == 0,\n            \"already voted for this candidate\"\n        );\n        if (vote) {\n            votes[candidateAddress][msg.sender] = 1;\n        } else {\n            votes[candidateAddress][msg.sender] = -1;\n        }\n    }\n\n    function join(string memory username) public {\n        require(canJoin(), \"Member does not have enough votes\");\n        require(\n            members[msg.sender].isPending,\n            \"Member must be pending to join\"\n        );\n        members[msg.sender].username = username;\n        members[msg.sender].isPending = false;\n        allMembers.push(msg.sender);\n        memberCount += 1;\n    }\n\n    function depositFunds() public payable onlyMembers {\n        // Logic to deposit funds into the lending pool\n        members[msg.sender].balance += msg.value;\n    }\n\n    // FE: would be very helpful if this returned the loan struct at the end of the function\n    // FE: can we do date objects? or is the int the only option\n    // FE: either this function or the getAllOpenLoans function is not working\n    function requestLoan(\n        uint256 amount,\n        uint256 interestRate,\n        uint256 dueDate,\n        string memory reason\n    ) public onlyMembers returns (Loan memory) {\n        // Logic to request a new loan\n        Loan memory loan = Loan(\n            currLoanId,\n            msg.sender,\n            amount,\n            interestRate,\n            0,\n            dueDate,\n            false,\n            false,\n            reason,\n            true\n        );\n        loans.push(loan);\n        // update user loan status\n        members[msg.sender].loanid = currLoanId;\n        members[msg.sender].loanStatus = \"PENDING\";\n        currLoanId += 1;\n        \n        return loan;\n    }\n\n    function lendLoan(uint loanId) private {\n        require(loans[loanId].id == loanId, \"test\");\n        loans[loanId].isLent = true;\n        members[loans[loanId].borrower].balance += loans[loanId].amount;\n        // update member loan status\n        members[loans[loanId].borrower].loanStatus = \"ACTIVE\";\n    }\n\n    function fillLoanRequest(\n        uint loanId,\n        uint256 contribution\n    ) public onlyMembers {\n        // Logic to contribute to a loan request\n        require(\n            loans[loanId].exists,\n            \"loan does not exist or has been cancelled\"\n        );\n        uint256 togo = loans[loanId].amount - loans[loanId].filled;\n        if (togo < contribution) {\n            contribution = togo;\n        }\n        loans[loanId].filled += contribution;\n        require(\n            members[msg.sender].balance >= contribution,\n            \"insufficient balance\"\n        );\n        members[msg.sender].balance -= contribution;\n        loanContributions[loanId][msg.sender] += contribution;\n        if (loans[loanId].filled == loans[loanId].amount) {\n            lendLoan(loanId);\n        }\n    }\n\n    function withdrawFunds(uint256 amount) public onlyMembers {\n        // Logic to withdraw funds from the lending pool\n        require(members[msg.sender].balance >= amount, \"insufficient balance\");\n        members[msg.sender].balance -= amount;\n        address payable addr = msg.sender;\n        addr.transfer(amount);\n    }\n\n    function cancelLoan(uint256 loanId) public {\n        require(\n            loans[loanId].borrower == msg.sender,\n            \"only the lender can cancel\"\n        );\n        require(loans[loanId].exists, \"loan does not exist\");\n        require(!loans[loanId].isLent, \"loan already has been lent\");\n        loans[loanId].exists = false;\n        for (uint i = 0; i < allMembers.length; i++) {\n            // repay all people who contributed\n            if (loanContributions[loanId][allMembers[i]] > 0) {\n                members[allMembers[i]].balance += loanContributions[loanId][\n                    allMembers[i]\n                ]/2;\n            }\n        }\n        // update member loan status\n        members[msg.sender].loanid = 0;\n        members[msg.sender].loanStatus = \"NONE\";\n    }\n\n    function payLoan(uint256 loanId) public onlyMembers {\n        require(\n            loans[loanId].exists,\n            \"loan does not exist or has been cancelled\"\n        );\n        require(\n            loans[loanId].borrower == msg.sender,\n            \"only the lender can pay\"\n        );\n        require(loans[loanId].isLent, \"loan already not been lent\");\n        require(\n            members[loans[loanId].borrower].balance > loans[loanId].amount,\n            \"you do not have enough balance to repay\"\n        );\n        // Logic to pay off an outstanding loan early\n\n        members[loans[loanId].borrower].balance -=\n            (100 + loans[loanId].interest) *\n            loans[loanId].amount/100;\n        for (uint i = 0; i < allMembers.length; i++) {\n            // repay all people who contribute their contributions + interest\n            if (loanContributions[loanId][allMembers[i]] > 0) {\n                members[allMembers[i]].balance +=\n                    (100 + loans[loanId].interest) *\n                    loanContributions[loanId][allMembers[i]]/200;\n            }\n        }\n        loans[loanId].isReturned = true;\n        members[loans[loanId].borrower].loanStatus = \"None\";\n        members[loans[loanId].borrower].loanid = 0;\n    }\n\n    function canJoin() public view returns (bool cj) {\n        uint sum = 0;\n\n        for (uint i = 0; i < allMembers.length; i++) {\n            if (votes[msg.sender][allMembers[i]] == 1) {\n                sum++;\n            }\n        }\n        if ((sum * 1e18) / memberCount > 5e17) {\n            return true;\n        } else {\n            return false;\n        }\n    }\n\n    function getAllConfirmedMembers()\n        public\n        view\n        onlyMembers\n        returns (Member[] memory)\n    {\n        // Logic to retrieve all non-pending members\n        Member[] memory nonPending = new Member[](memberCount);\n        uint j = 0;\n        for (uint i = 0; i < allMembers.length; i++) {\n            if (!members[allMembers[i]].isPending && members[allMembers[i]].exists) {\n                nonPending[j] = members[allMembers[i]];\n                j++;\n            }\n        }\n        return nonPending;\n    }\n\n    function getAllOpenLoans() public view onlyMembers returns (Loan[] memory) {\n        // Logic to get all open loan requests\n        uint count = 0;\n        for (uint i = 0; i < loans.length; i++) {\n            if (!loans[i].isLent) {\n                count += 1;\n            }\n        }\n        uint j = 0;\n        Loan[] memory openLoans = new Loan[](count);\n        for (uint i = 0; i < loans.length; i++) {\n            if (!loans[i].isLent) {\n                openLoans[j] = loans[i];\n            }\n        }\n        return openLoans;\n    }\n\n    function getPendingMembers()\n        public\n        view\n        onlyMembers\n        returns (Member[] memory)\n    {\n        //returns all pending members the user has voted on\n        uint count = 0;\n        for (uint i = 0; i < allMembers.length; i++) {\n            if (\n                members[allMembers[i]].isPending &&\n                votes[allMembers[i]][msg.sender] != 0\n            ) {\n                count++;\n            }\n        }\n\n        Member[] memory pending = new Member[](count);\n        uint j = 0;\n        for (uint i = 0; i < allMembers.length; i++) {\n            if (\n                members[allMembers[i]].isPending &&\n                votes[allMembers[i]][msg.sender] != 0\n            ) {\n                pending[j] = members[allMembers[i]];\n                j++;\n            }\n        }\n        return pending;\n    }\n\n    function getMembersToVoteOn()\n        public\n        view\n        onlyMembers\n        returns (Member[] memory)\n    {\n        // Logic to list all pending members the sender has not voted on\n        uint count = 0;\n        for (uint i = 0; i < allMembers.length; i++) {\n            if (\n                members[allMembers[i]].isPending &&\n                votes[allMembers[i]][msg.sender] == 0\n            ) {\n                count++;\n            }\n        }\n\n        Member[] memory pending = new Member[](count);\n        uint j = 0;\n        for (uint i = 0; i < allMembers.length; i++) {\n            if (\n                members[allMembers[i]].isPending &&\n                votes[allMembers[i]][msg.sender] == 0\n            ) {\n                pending[j] = members[allMembers[i]];\n                j++;\n            }\n        }\n        return pending;\n    }\n\n    function getPortfolio()\n        public\n        view\n        onlyMembers\n        returns (Investment[] memory)\n    {}\n    // System and helper functions are not fully implemented due to their complex nature\n    // and requirement for further specifications.\n\n    // ... Additional functions like autoPayLoan, default, calculateInterest, updateFriendScore, checkMembershipStatus ...\n}\n",
  "sourcePath": "/Users/dylangoetting/Desktop/defi-friendlend/backend/contracts/FriendLend.sol",
  "compiler": {
    "name": "solc",
    "version": "0.5.15+commit.6a57276f.Emscripten.clang"
  },
  "schemaVersion": "3.4.16",
  "updatedAt": "2023-12-04T00:15:15.608Z",
  "networkType": "ethereum",
  "devdoc": {
    "methods": {}
  },
  "userdoc": {
    "methods": {}
  }
}