{
  "contractName": "FriendLend",
  "abi": [
    {
      "inputs": [
        {
          "internalType": "string",
          "name": "theGroupName",
          "type": "string"
        },
        {
          "internalType": "string",
          "name": "myUsername",
          "type": "string"
        },
        {
          "internalType": "string",
          "name": "myPassword",
          "type": "string"
        }
      ],
      "payable": false,
      "stateMutability": "nonpayable",
      "type": "constructor"
    },
    {
      "constant": true,
      "inputs": [
        {
          "internalType": "uint256",
          "name": "",
          "type": "uint256"
        }
      ],
      "name": "allMembers",
      "outputs": [
        {
          "internalType": "address",
          "name": "",
          "type": "address"
        }
      ],
      "payable": false,
      "stateMutability": "view",
      "type": "function"
    },
    {
      "constant": true,
      "inputs": [
        {
          "internalType": "address",
          "name": "",
          "type": "address"
        }
      ],
      "name": "bannedMembers",
      "outputs": [
        {
          "internalType": "uint256",
          "name": "",
          "type": "uint256"
        }
      ],
      "payable": false,
      "stateMutability": "view",
      "type": "function"
    },
    {
      "constant": true,
      "inputs": [],
      "name": "groupName",
      "outputs": [
        {
          "internalType": "string",
          "name": "",
          "type": "string"
        }
      ],
      "payable": false,
      "stateMutability": "view",
      "type": "function"
    },
    {
      "constant": true,
      "inputs": [
        {
          "internalType": "uint256",
          "name": "",
          "type": "uint256"
        },
        {
          "internalType": "address",
          "name": "",
          "type": "address"
        }
      ],
      "name": "loanContributions",
      "outputs": [
        {
          "internalType": "uint256",
          "name": "",
          "type": "uint256"
        }
      ],
      "payable": false,
      "stateMutability": "view",
      "type": "function"
    },
    {
      "constant": true,
      "inputs": [
        {
          "internalType": "uint256",
          "name": "",
          "type": "uint256"
        }
      ],
      "name": "loans",
      "outputs": [
        {
          "internalType": "uint256",
          "name": "id",
          "type": "uint256"
        },
        {
          "internalType": "address",
          "name": "borrower",
          "type": "address"
        },
        {
          "internalType": "uint256",
          "name": "amount",
          "type": "uint256"
        },
        {
          "internalType": "uint256",
          "name": "interest",
          "type": "uint256"
        },
        {
          "internalType": "uint256",
          "name": "filled",
          "type": "uint256"
        },
        {
          "internalType": "uint256",
          "name": "dueDate",
          "type": "uint256"
        },
        {
          "internalType": "bool",
          "name": "isLent",
          "type": "bool"
        },
        {
          "internalType": "bool",
          "name": "isReturned",
          "type": "bool"
        },
        {
          "internalType": "string",
          "name": "reason",
          "type": "string"
        },
        {
          "internalType": "bool",
          "name": "exists",
          "type": "bool"
        }
      ],
      "payable": false,
      "stateMutability": "view",
      "type": "function"
    },
    {
      "constant": true,
      "inputs": [],
      "name": "memberCount",
      "outputs": [
        {
          "internalType": "uint256",
          "name": "",
          "type": "uint256"
        }
      ],
      "payable": false,
      "stateMutability": "view",
      "type": "function"
    },
    {
      "constant": true,
      "inputs": [
        {
          "internalType": "address",
          "name": "",
          "type": "address"
        }
      ],
      "name": "members",
      "outputs": [
        {
          "internalType": "address",
          "name": "memberAddress",
          "type": "address"
        },
        {
          "internalType": "string",
          "name": "username",
          "type": "string"
        },
        {
          "internalType": "string",
          "name": "myPassword",
          "type": "string"
        },
        {
          "internalType": "uint256",
          "name": "friendScore",
          "type": "uint256"
        },
        {
          "internalType": "uint256",
          "name": "balance",
          "type": "uint256"
        },
        {
          "internalType": "bool",
          "name": "isPending",
          "type": "bool"
        },
        {
          "internalType": "uint256",
          "name": "dateAdded",
          "type": "uint256"
        },
        {
          "internalType": "bool",
          "name": "exists",
          "type": "bool"
        },
        {
          "internalType": "uint256",
          "name": "loanid",
          "type": "uint256"
        },
        {
          "internalType": "string",
          "name": "loanStatus",
          "type": "string"
        }
      ],
      "payable": false,
      "stateMutability": "view",
      "type": "function"
    },
    {
      "constant": true,
      "inputs": [],
      "name": "owner",
      "outputs": [
        {
          "internalType": "address",
          "name": "",
          "type": "address"
        }
      ],
      "payable": false,
      "stateMutability": "view",
      "type": "function"
    },
    {
      "constant": true,
      "inputs": [
        {
          "internalType": "address",
          "name": "",
          "type": "address"
        },
        {
          "internalType": "address",
          "name": "",
          "type": "address"
        }
      ],
      "name": "votes",
      "outputs": [
        {
          "internalType": "int256",
          "name": "",
          "type": "int256"
        }
      ],
      "payable": false,
      "stateMutability": "view",
      "type": "function"
    },
    {
      "constant": false,
      "inputs": [
        {
          "internalType": "address",
          "name": "newMemberAddress",
          "type": "address"
        }
      ],
      "name": "proposeInvite",
      "outputs": [],
      "payable": false,
      "stateMutability": "nonpayable",
      "type": "function"
    },
    {
      "constant": false,
      "inputs": [
        {
          "internalType": "address",
          "name": "candidateAddress",
          "type": "address"
        },
        {
          "internalType": "bool",
          "name": "vote",
          "type": "bool"
        }
      ],
      "name": "voteOnPendingPerson",
      "outputs": [],
      "payable": false,
      "stateMutability": "nonpayable",
      "type": "function"
    },
    {
      "constant": false,
      "inputs": [
        {
          "internalType": "string",
          "name": "username",
          "type": "string"
        }
      ],
      "name": "join",
      "outputs": [],
      "payable": false,
      "stateMutability": "nonpayable",
      "type": "function"
    },
    {
      "constant": false,
      "inputs": [],
      "name": "depositFunds",
      "outputs": [],
      "payable": true,
      "stateMutability": "payable",
      "type": "function"
    },
    {
      "constant": false,
      "inputs": [
        {
          "internalType": "uint256",
          "name": "amount",
          "type": "uint256"
        },
        {
          "internalType": "uint256",
          "name": "interestRate",
          "type": "uint256"
        },
        {
          "internalType": "uint256",
          "name": "dueDate",
          "type": "uint256"
        },
        {
          "internalType": "string",
          "name": "reason",
          "type": "string"
        }
      ],
      "name": "requestLoan",
      "outputs": [
        {
          "components": [
            {
              "internalType": "uint256",
              "name": "id",
              "type": "uint256"
            },
            {
              "internalType": "address",
              "name": "borrower",
              "type": "address"
            },
            {
              "internalType": "uint256",
              "name": "amount",
              "type": "uint256"
            },
            {
              "internalType": "uint256",
              "name": "interest",
              "type": "uint256"
            },
            {
              "internalType": "uint256",
              "name": "filled",
              "type": "uint256"
            },
            {
              "internalType": "uint256",
              "name": "dueDate",
              "type": "uint256"
            },
            {
              "internalType": "bool",
              "name": "isLent",
              "type": "bool"
            },
            {
              "internalType": "bool",
              "name": "isReturned",
              "type": "bool"
            },
            {
              "internalType": "string",
              "name": "reason",
              "type": "string"
            },
            {
              "internalType": "bool",
              "name": "exists",
              "type": "bool"
            }
          ],
          "internalType": "struct FriendLend.Loan",
          "name": "",
          "type": "tuple"
        }
      ],
      "payable": false,
      "stateMutability": "nonpayable",
      "type": "function"
    },
    {
      "constant": false,
      "inputs": [
        {
          "internalType": "uint256",
          "name": "loanId",
          "type": "uint256"
        },
        {
          "internalType": "uint256",
          "name": "contribution",
          "type": "uint256"
        }
      ],
      "name": "fillLoanRequest",
      "outputs": [],
      "payable": false,
      "stateMutability": "nonpayable",
      "type": "function"
    },
    {
      "constant": false,
      "inputs": [
        {
          "internalType": "uint256",
          "name": "amount",
          "type": "uint256"
        }
      ],
      "name": "withdrawFunds",
      "outputs": [],
      "payable": false,
      "stateMutability": "nonpayable",
      "type": "function"
    },
    {
      "constant": false,
      "inputs": [
        {
          "internalType": "uint256",
          "name": "loanId",
          "type": "uint256"
        }
      ],
      "name": "cancelLoan",
      "outputs": [],
      "payable": false,
      "stateMutability": "nonpayable",
      "type": "function"
    },
    {
      "constant": false,
      "inputs": [
        {
          "internalType": "uint256",
          "name": "loanId",
          "type": "uint256"
        }
      ],
      "name": "payLoan",
      "outputs": [],
      "payable": false,
      "stateMutability": "nonpayable",
      "type": "function"
    },
    {
      "constant": true,
      "inputs": [],
      "name": "canJoin",
      "outputs": [
        {
          "internalType": "bool",
          "name": "cj",
          "type": "bool"
        }
      ],
      "payable": false,
      "stateMutability": "view",
      "type": "function"
    },
    {
      "constant": true,
      "inputs": [],
      "name": "getAllConfirmedMembers",
      "outputs": [
        {
          "components": [
            {
              "internalType": "address",
              "name": "memberAddress",
              "type": "address"
            },
            {
              "internalType": "string",
              "name": "username",
              "type": "string"
            },
            {
              "internalType": "string",
              "name": "myPassword",
              "type": "string"
            },
            {
              "internalType": "uint256",
              "name": "friendScore",
              "type": "uint256"
            },
            {
              "internalType": "uint256",
              "name": "balance",
              "type": "uint256"
            },
            {
              "internalType": "bool",
              "name": "isPending",
              "type": "bool"
            },
            {
              "internalType": "uint256",
              "name": "dateAdded",
              "type": "uint256"
            },
            {
              "internalType": "bool",
              "name": "exists",
              "type": "bool"
            },
            {
              "internalType": "uint256",
              "name": "loanid",
              "type": "uint256"
            },
            {
              "internalType": "string",
              "name": "loanStatus",
              "type": "string"
            }
          ],
          "internalType": "struct FriendLend.Member[]",
          "name": "",
          "type": "tuple[]"
        }
      ],
      "payable": false,
      "stateMutability": "view",
      "type": "function"
    },
    {
      "constant": true,
      "inputs": [],
      "name": "getAllOpenLoans",
      "outputs": [
        {
          "components": [
            {
              "internalType": "uint256",
              "name": "id",
              "type": "uint256"
            },
            {
              "internalType": "address",
              "name": "borrower",
              "type": "address"
            },
            {
              "internalType": "uint256",
              "name": "amount",
              "type": "uint256"
            },
            {
              "internalType": "uint256",
              "name": "interest",
              "type": "uint256"
            },
            {
              "internalType": "uint256",
              "name": "filled",
              "type": "uint256"
            },
            {
              "internalType": "uint256",
              "name": "dueDate",
              "type": "uint256"
            },
            {
              "internalType": "bool",
              "name": "isLent",
              "type": "bool"
            },
            {
              "internalType": "bool",
              "name": "isReturned",
              "type": "bool"
            },
            {
              "internalType": "string",
              "name": "reason",
              "type": "string"
            },
            {
              "internalType": "bool",
              "name": "exists",
              "type": "bool"
            }
          ],
          "internalType": "struct FriendLend.Loan[]",
          "name": "",
          "type": "tuple[]"
        }
      ],
      "payable": false,
      "stateMutability": "view",
      "type": "function"
    },
    {
      "constant": true,
      "inputs": [],
      "name": "getPendingMembers",
      "outputs": [
        {
          "components": [
            {
              "internalType": "address",
              "name": "memberAddress",
              "type": "address"
            },
            {
              "internalType": "string",
              "name": "username",
              "type": "string"
            },
            {
              "internalType": "string",
              "name": "myPassword",
              "type": "string"
            },
            {
              "internalType": "uint256",
              "name": "friendScore",
              "type": "uint256"
            },
            {
              "internalType": "uint256",
              "name": "balance",
              "type": "uint256"
            },
            {
              "internalType": "bool",
              "name": "isPending",
              "type": "bool"
            },
            {
              "internalType": "uint256",
              "name": "dateAdded",
              "type": "uint256"
            },
            {
              "internalType": "bool",
              "name": "exists",
              "type": "bool"
            },
            {
              "internalType": "uint256",
              "name": "loanid",
              "type": "uint256"
            },
            {
              "internalType": "string",
              "name": "loanStatus",
              "type": "string"
            }
          ],
          "internalType": "struct FriendLend.Member[]",
          "name": "",
          "type": "tuple[]"
        }
      ],
      "payable": false,
      "stateMutability": "view",
      "type": "function"
    },
    {
      "constant": true,
      "inputs": [],
      "name": "getMembersToVoteOn",
      "outputs": [
        {
          "components": [
            {
              "internalType": "address",
              "name": "memberAddress",
              "type": "address"
            },
            {
              "internalType": "string",
              "name": "username",
              "type": "string"
            },
            {
              "internalType": "string",
              "name": "myPassword",
              "type": "string"
            },
            {
              "internalType": "uint256",
              "name": "friendScore",
              "type": "uint256"
            },
            {
              "internalType": "uint256",
              "name": "balance",
              "type": "uint256"
            },
            {
              "internalType": "bool",
              "name": "isPending",
              "type": "bool"
            },
            {
              "internalType": "uint256",
              "name": "dateAdded",
              "type": "uint256"
            },
            {
              "internalType": "bool",
              "name": "exists",
              "type": "bool"
            },
            {
              "internalType": "uint256",
              "name": "loanid",
              "type": "uint256"
            },
            {
              "internalType": "string",
              "name": "loanStatus",
              "type": "string"
            }
          ],
          "internalType": "struct FriendLend.Member[]",
          "name": "",
          "type": "tuple[]"
        }
      ],
      "payable": false,
      "stateMutability": "view",
      "type": "function"
    },
    {
      "constant": true,
      "inputs": [],
      "name": "getPortfolio",
      "outputs": [
        {
          "components": [
            {
              "internalType": "uint256",
              "name": "amount",
              "type": "uint256"
            },
            {
              "internalType": "uint256",
              "name": "interest",
              "type": "uint256"
            },
            {
              "internalType": "uint256",
              "name": "dueDate",
              "type": "uint256"
            },
            {
              "internalType": "address",
              "name": "borrower",
              "type": "address"
            },
            {
              "internalType": "string",
              "name": "username",
              "type": "string"
            },
            {
              "internalType": "string",
              "name": "reason",
              "type": "string"
            }
          ],
          "internalType": "struct FriendLend.Investment[]",
          "name": "",
          "type": "tuple[]"
        }
      ],
      "payable": false,
      "stateMutability": "view",
      "type": "function"
    }
  ],
  "bytecode": "0x6080604052600060055560006006553480156200001b57600080fd5b5060405162005c4538038062005c458339818101604052620000419190810190620004d9565b336000806101000a81548173ffffffffffffffffffffffffffffffffffffffff021916908373ffffffffffffffffffffffffffffffffffffffff1602179055506040518061014001604052806000809054906101000a900473ffffffffffffffffffffffffffffffffffffffff1673ffffffffffffffffffffffffffffffffffffffff168152602001838152602001828152602001600081526020016000815260200160001515815260200160008152602001600115158152602001600081526020016040518060400160405280600481526020017f4e4f4e4500000000000000000000000000000000000000000000000000000000815250815250600160008060009054906101000a900473ffffffffffffffffffffffffffffffffffffffff1673ffffffffffffffffffffffffffffffffffffffff1673ffffffffffffffffffffffffffffffffffffffff16815260200190815260200160002060008201518160000160006101000a81548173ffffffffffffffffffffffffffffffffffffffff021916908373ffffffffffffffffffffffffffffffffffffffff16021790555060208201518160010190805190602001906200020292919062000347565b5060408201518160020190805190602001906200022192919062000347565b50606082015181600301556080820151816004015560a08201518160050160006101000a81548160ff02191690831515021790555060c0820151816006015560e08201518160070160006101000a81548160ff0219169083151502179055506101008201518160080155610120820151816009019080519060200190620002aa92919062000347565b50905050600160056000828254019250508190555060023390806001815401808255809150509060018203906000526020600020016000909192909190916101000a81548173ffffffffffffffffffffffffffffffffffffffff021916908373ffffffffffffffffffffffffffffffffffffffff1602179055505082600390805190602001906200033d929190620003ce565b505050506200060b565b828054600181600116156101000203166002900490600052602060002090601f016020900481019282601f106200038a57805160ff1916838001178555620003bb565b82800160010185558215620003bb579182015b82811115620003ba5782518255916020019190600101906200039d565b5b509050620003ca919062000455565b5090565b828054600181600116156101000203166002900490600052602060002090601f016020900481019282601f106200041157805160ff191683800117855562000442565b8280016001018555821562000442579182015b828111156200044157825182559160200191906001019062000424565b5b50905062000451919062000455565b5090565b6200047a91905b80821115620004765760008160009055506001016200045c565b5090565b90565b600082601f8301126200048f57600080fd5b8151620004a6620004a082620005a8565b6200057a565b91508082526020830160208301858383011115620004c357600080fd5b620004d0838284620005d5565b50505092915050565b600080600060608486031215620004ef57600080fd5b600084015167ffffffffffffffff8111156200050a57600080fd5b62000518868287016200047d565b935050602084015167ffffffffffffffff8111156200053657600080fd5b62000544868287016200047d565b925050604084015167ffffffffffffffff8111156200056257600080fd5b62000570868287016200047d565b9150509250925092565b6000604051905081810181811067ffffffffffffffff821117156200059e57600080fd5b8060405250919050565b600067ffffffffffffffff821115620005c057600080fd5b601f19601f8301169050602081019050919050565b60005b83811015620005f5578082015181840152602081019050620005d8565b8381111562000605576000848401525b50505050565b61562a806200061b6000396000f3fe60806040526004361061014b5760003560e01c80638da5cb5b116100b6578063cad1b9061161006f578063cad1b90614610499578063cb95fe7a146104d6578063d3d0345814610501578063e1ec3c681461052c578063e2c41dbc14610572578063fd0717bd1461057c5761014b565b80638da5cb5b146103895780638fc5336e146103b457806398533871146103df578063a86eaca41461041c578063a8d7b3ec14610447578063bdbfa3de146104705761014b565b806352264c5b1161010857806352264c5b1461027957806369fdfd45146102a25780636a786b07146102cd578063783cec80146102f65780637ba3f54b14610321578063847332941461034c5761014b565b8063017ebb911461015057806308ae4b0c1461017957806311aee380146101bf578063155dd5ee146101ea57806319c68002146102135780634cc7e18b14610250575b600080fd5b34801561015c57600080fd5b506101776004803603610172919081019061438a565b6105b9565b005b34801561018557600080fd5b506101a0600480360361019b919081019061438a565b610945565b6040516101b69a99989796959493929190614f9d565b60405180910390f35b3480156101cb57600080fd5b506101d4610b9b565b6040516101e1919061530e565b60405180910390f35b3480156101f657600080fd5b50610211600480360361020c919081019061446c565b610ba1565b005b34801561021f57600080fd5b5061023a60048036036102359190810190614495565b610d56565b604051610247919061530e565b60405180910390f35b34801561025c57600080fd5b50610277600480360361027291908101906144d1565b610d7b565b005b34801561028557600080fd5b506102a0600480360361029b91908101906143ef565b611077565b005b3480156102ae57600080fd5b506102b76113f7565b6040516102c49190615092565b60405180910390f35b3480156102d957600080fd5b506102f460048036036102ef919081019061442b565b6118bf565b005b34801561030257600080fd5b5061030b611ac0565b60405161031891906150ea565b60405180910390f35b34801561032d57600080fd5b50610336611b5e565b6040516103439190615092565b60405180910390f35b34801561035857600080fd5b50610373600480360361036e919081019061450d565b61225f565b60405161038091906152ec565b60405180910390f35b34801561039557600080fd5b5061039e612584565b6040516103ab9190614f82565b60405180910390f35b3480156103c057600080fd5b506103c96125a9565b6040516103d69190615070565b60405180910390f35b3480156103eb57600080fd5b506104066004803603610401919081019061438a565b6128f0565b604051610413919061530e565b60405180910390f35b34801561042857600080fd5b50610431612908565b60405161043e91906150b4565b60405180910390f35b34801561045357600080fd5b5061046e6004803603610469919081019061446c565b612a2d565b005b34801561047c57600080fd5b506104976004803603610492919081019061446c565b61300b565b005b3480156104a557600080fd5b506104c060048036036104bb91908101906143b3565b61345c565b6040516104cd91906150cf565b60405180910390f35b3480156104e257600080fd5b506104eb613481565b6040516104f89190615092565b60405180910390f35b34801561050d57600080fd5b50610516613b84565b604051610523919061504e565b60405180910390f35b34801561053857600080fd5b50610553600480360361054e919081019061446c565b613c19565b6040516105699a99989796959493929190615329565b60405180910390f35b61057a613d59565b005b34801561058857600080fd5b506105a3600480360361059e919081019061446c565b613e3b565b6040516105b09190614f82565b60405180910390f35b600160003373ffffffffffffffffffffffffffffffffffffffff1673ffffffffffffffffffffffffffffffffffffffff16815260200190815260200160002060050160009054906101000a900460ff1615610649576040517f08c379a0000000000000000000000000000000000000000000000000000000008152600401610640906152cc565b60405180910390fd5b600160008273ffffffffffffffffffffffffffffffffffffffff1673ffffffffffffffffffffffffffffffffffffffff16815260200190815260200160002060070160009054906101000a900460ff16156106d9576040517f08c379a00000000000000000000000000000000000000000000000000000000081526004016106d09061518c565b60405180910390fd5b6040518061014001604052808273ffffffffffffffffffffffffffffffffffffffff168152602001604051806020016040528060008152508152602001604051806020016040528060008152508152602001600081526020016000815260200160011515815260200160008152602001600115158152602001600081526020016040518060400160405280600481526020017f4e4f4e4500000000000000000000000000000000000000000000000000000000815250815250600160008373ffffffffffffffffffffffffffffffffffffffff1673ffffffffffffffffffffffffffffffffffffffff16815260200190815260200160002060008201518160000160006101000a81548173ffffffffffffffffffffffffffffffffffffffff021916908373ffffffffffffffffffffffffffffffffffffffff1602179055506020820151816001019080519060200190610834929190614087565b506040820151816002019080519060200190610851929190614087565b50606082015181600301556080820151816004015560a08201518160050160006101000a81548160ff02191690831515021790555060c0820151816006015560e08201518160070160006101000a81548160ff02191690831515021790555061010082015181600801556101208201518160090190805190602001906108d8929190614087565b5090505060028190806001815401808255809150509060018203906000526020600020016000909192909190916101000a81548173ffffffffffffffffffffffffffffffffffffffff021916908373ffffffffffffffffffffffffffffffffffffffff1602179055505050565b60016020528060005260406000206000915090508060000160009054906101000a900473ffffffffffffffffffffffffffffffffffffffff1690806001018054600181600116156101000203166002900480601f016020809104026020016040519081016040528092919081815260200182805460018160011615610100020316600290048015610a175780601f106109ec57610100808354040283529160200191610a17565b820191906000526020600020905b8154815290600101906020018083116109fa57829003601f168201915b505050505090806002018054600181600116156101000203166002900480601f016020809104026020016040519081016040528092919081815260200182805460018160011615610100020316600290048015610ab55780601f10610a8a57610100808354040283529160200191610ab5565b820191906000526020600020905b815481529060010190602001808311610a9857829003601f168201915b5050505050908060030154908060040154908060050160009054906101000a900460ff16908060060154908060070160009054906101000a900460ff1690806008015490806009018054600181600116156101000203166002900480601f016020809104026020016040519081016040528092919081815260200182805460018160011615610100020316600290048015610b915780601f10610b6657610100808354040283529160200191610b91565b820191906000526020600020905b815481529060010190602001808311610b7457829003601f168201915b505050505090508a565b60055481565b600160003373ffffffffffffffffffffffffffffffffffffffff1673ffffffffffffffffffffffffffffffffffffffff16815260200190815260200160002060050160009054906101000a900460ff1615610c31576040517f08c379a0000000000000000000000000000000000000000000000000000000008152600401610c28906152cc565b60405180910390fd5b80600160003373ffffffffffffffffffffffffffffffffffffffff1673ffffffffffffffffffffffffffffffffffffffff168152602001908152602001600020600401541015610cb6576040517f08c379a0000000000000000000000000000000000000000000000000000000008152600401610cad9061524c565b60405180910390fd5b80600160003373ffffffffffffffffffffffffffffffffffffffff1673ffffffffffffffffffffffffffffffffffffffff1681526020019081526020016000206004016000828254039250508190555060003390508073ffffffffffffffffffffffffffffffffffffffff166108fc839081150290604051600060405180830381858888f19350505050158015610d51573d6000803e3d6000fd5b505050565b6008602052816000526040600020602052806000526040600020600091509150505481565b600160003373ffffffffffffffffffffffffffffffffffffffff1673ffffffffffffffffffffffffffffffffffffffff16815260200190815260200160002060050160009054906101000a900460ff1615610e0b576040517f08c379a0000000000000000000000000000000000000000000000000000000008152600401610e02906152cc565b60405180910390fd5b60078281548110610e1857fe5b906000526020600020906009020160080160009054906101000a900460ff16610e76576040517f08c379a0000000000000000000000000000000000000000000000000000000008152600401610e6d906151ac565b60405180910390fd5b600060078381548110610e8557fe5b90600052602060002090600902016004015460078481548110610ea457fe5b90600052602060002090600902016002015403905081811015610ec5578091505b8160078481548110610ed357fe5b90600052602060002090600902016004016000828254019250508190555081600160003373ffffffffffffffffffffffffffffffffffffffff1673ffffffffffffffffffffffffffffffffffffffff168152602001908152602001600020600401541015610f76576040517f08c379a0000000000000000000000000000000000000000000000000000000008152600401610f6d9061524c565b60405180910390fd5b81600160003373ffffffffffffffffffffffffffffffffffffffff1673ffffffffffffffffffffffffffffffffffffffff16815260200190815260200160002060040160008282540392505081905550816008600085815260200190815260200160002060003373ffffffffffffffffffffffffffffffffffffffff1673ffffffffffffffffffffffffffffffffffffffff168152602001908152602001600020600082825401925050819055506007838154811061103157fe5b9060005260206000209060090201600201546007848154811061105057fe5b90600052602060002090600902016004015414156110725761107183613e77565b5b505050565b600160003373ffffffffffffffffffffffffffffffffffffffff1673ffffffffffffffffffffffffffffffffffffffff16815260200190815260200160002060050160009054906101000a900460ff1615611107576040517f08c379a00000000000000000000000000000000000000000000000000000000081526004016110fe906152cc565b60405180910390fd5b3373ffffffffffffffffffffffffffffffffffffffff168273ffffffffffffffffffffffffffffffffffffffff161415611176576040517f08c379a000000000000000000000000000000000000000000000000000000000815260040161116d906152ac565b60405180910390fd5b600160008373ffffffffffffffffffffffffffffffffffffffff1673ffffffffffffffffffffffffffffffffffffffff16815260200190815260200160002060050160009054906101000a900460ff16611205576040517f08c379a00000000000000000000000000000000000000000000000000000000081526004016111fc906151ec565b60405180910390fd5b6000600460008473ffffffffffffffffffffffffffffffffffffffff1673ffffffffffffffffffffffffffffffffffffffff16815260200190815260200160002060003373ffffffffffffffffffffffffffffffffffffffff1673ffffffffffffffffffffffffffffffffffffffff16815260200190815260200160002054146112c4576040517f08c379a00000000000000000000000000000000000000000000000000000000081526004016112bb9061510c565b60405180910390fd5b8015611351576001600460008473ffffffffffffffffffffffffffffffffffffffff1673ffffffffffffffffffffffffffffffffffffffff16815260200190815260200160002060003373ffffffffffffffffffffffffffffffffffffffff1673ffffffffffffffffffffffffffffffffffffffff168152602001908152602001600020819055506113f3565b7fffffffffffffffffffffffffffffffffffffffffffffffffffffffffffffffff600460008473ffffffffffffffffffffffffffffffffffffffff1673ffffffffffffffffffffffffffffffffffffffff16815260200190815260200160002060003373ffffffffffffffffffffffffffffffffffffffff1673ffffffffffffffffffffffffffffffffffffffff168152602001908152602001600020819055505b5050565b6060600160003373ffffffffffffffffffffffffffffffffffffffff1673ffffffffffffffffffffffffffffffffffffffff16815260200190815260200160002060050160009054906101000a900460ff1615611489576040517f08c379a0000000000000000000000000000000000000000000000000000000008152600401611480906152cc565b60405180910390fd5b60606005546040519080825280602002602001820160405280156114c757816020015b6114b4614107565b8152602001906001900390816114ac5790505b509050600080905060008090505b6002805490508110156118b65760016000600283815481106114f357fe5b9060005260206000200160009054906101000a900473ffffffffffffffffffffffffffffffffffffffff1673ffffffffffffffffffffffffffffffffffffffff1673ffffffffffffffffffffffffffffffffffffffff16815260200190815260200160002060050160009054906101000a900460ff166118a957600160006002838154811061157e57fe5b9060005260206000200160009054906101000a900473ffffffffffffffffffffffffffffffffffffffff1673ffffffffffffffffffffffffffffffffffffffff1673ffffffffffffffffffffffffffffffffffffffff168152602001908152602001600020604051806101400160405290816000820160009054906101000a900473ffffffffffffffffffffffffffffffffffffffff1673ffffffffffffffffffffffffffffffffffffffff1673ffffffffffffffffffffffffffffffffffffffff168152602001600182018054600181600116156101000203166002900480601f0160208091040260200160405190810160405280929190818152602001828054600181600116156101000203166002900480156116de5780601f106116b3576101008083540402835291602001916116de565b820191906000526020600020905b8154815290600101906020018083116116c157829003601f168201915b50505050508152602001600282018054600181600116156101000203166002900480601f0160208091040260200160405190810160405280929190818152602001828054600181600116156101000203166002900480156117805780601f1061175557610100808354040283529160200191611780565b820191906000526020600020905b81548152906001019060200180831161176357829003601f168201915b5050505050815260200160038201548152602001600482015481526020016005820160009054906101000a900460ff16151515158152602001600682015481526020016007820160009054906101000a900460ff1615151515815260200160088201548152602001600982018054600181600116156101000203166002900480601f0160208091040260200160405190810160405280929190818152602001828054600181600116156101000203166002900480156118805780601f1061185557610100808354040283529160200191611880565b820191906000526020600020905b81548152906001019060200180831161186357829003601f168201915b50505050508152505083838151811061189557fe5b602002602001018190525081806001019250505b80806001019150506114d5565b50819250505090565b6118c7612908565b611906576040517f08c379a00000000000000000000000000000000000000000000000000000000081526004016118fd9061512c565b60405180910390fd5b600160003373ffffffffffffffffffffffffffffffffffffffff1673ffffffffffffffffffffffffffffffffffffffff16815260200190815260200160002060050160009054906101000a900460ff16611995576040517f08c379a000000000000000000000000000000000000000000000000000000000815260040161198c9061526c565b60405180910390fd5b80600160003373ffffffffffffffffffffffffffffffffffffffff1673ffffffffffffffffffffffffffffffffffffffff16815260200190815260200160002060010190805190602001906119eb929190614174565b5060018060003373ffffffffffffffffffffffffffffffffffffffff1673ffffffffffffffffffffffffffffffffffffffff16815260200190815260200160002060050160006101000a81548160ff02191690831515021790555060023390806001815401808255809150509060018203906000526020600020016000909192909190916101000a81548173ffffffffffffffffffffffffffffffffffffffff021916908373ffffffffffffffffffffffffffffffffffffffff16021790555050600160056000828254019250508190555050565b60038054600181600116156101000203166002900480601f016020809104026020016040519081016040528092919081815260200182805460018160011615610100020316600290048015611b565780601f10611b2b57610100808354040283529160200191611b56565b820191906000526020600020905b815481529060010190602001808311611b3957829003601f168201915b505050505081565b6060600160003373ffffffffffffffffffffffffffffffffffffffff1673ffffffffffffffffffffffffffffffffffffffff16815260200190815260200160002060050160009054906101000a900460ff1615611bf0576040517f08c379a0000000000000000000000000000000000000000000000000000000008152600401611be7906152cc565b60405180910390fd5b600080905060008090505b600280549050811015611d69576001600060028381548110611c1957fe5b9060005260206000200160009054906101000a900473ffffffffffffffffffffffffffffffffffffffff1673ffffffffffffffffffffffffffffffffffffffff1673ffffffffffffffffffffffffffffffffffffffff16815260200190815260200160002060050160009054906101000a900460ff168015611d4e575060006004600060028481548110611ca957fe5b9060005260206000200160009054906101000a900473ffffffffffffffffffffffffffffffffffffffff1673ffffffffffffffffffffffffffffffffffffffff1673ffffffffffffffffffffffffffffffffffffffff16815260200190815260200160002060003373ffffffffffffffffffffffffffffffffffffffff1673ffffffffffffffffffffffffffffffffffffffff16815260200190815260200160002054145b15611d5c5781806001019250505b8080600101915050611bfb565b50606081604051908082528060200260200182016040528015611da657816020015b611d93614107565b815260200190600190039081611d8b5790505b509050600080905060008090505b600280549050811015612255576001600060028381548110611dd257fe5b9060005260206000200160009054906101000a900473ffffffffffffffffffffffffffffffffffffffff1673ffffffffffffffffffffffffffffffffffffffff1673ffffffffffffffffffffffffffffffffffffffff16815260200190815260200160002060050160009054906101000a900460ff168015611f07575060006004600060028481548110611e6257fe5b9060005260206000200160009054906101000a900473ffffffffffffffffffffffffffffffffffffffff1673ffffffffffffffffffffffffffffffffffffffff1673ffffffffffffffffffffffffffffffffffffffff16815260200190815260200160002060003373ffffffffffffffffffffffffffffffffffffffff1673ffffffffffffffffffffffffffffffffffffffff16815260200190815260200160002054145b15612248576001600060028381548110611f1d57fe5b9060005260206000200160009054906101000a900473ffffffffffffffffffffffffffffffffffffffff1673ffffffffffffffffffffffffffffffffffffffff1673ffffffffffffffffffffffffffffffffffffffff168152602001908152602001600020604051806101400160405290816000820160009054906101000a900473ffffffffffffffffffffffffffffffffffffffff1673ffffffffffffffffffffffffffffffffffffffff1673ffffffffffffffffffffffffffffffffffffffff168152602001600182018054600181600116156101000203166002900480601f01602080910402602001604051908101604052809291908181526020018280546001816001161561010002031660029004801561207d5780601f106120525761010080835404028352916020019161207d565b820191906000526020600020905b81548152906001019060200180831161206057829003601f168201915b50505050508152602001600282018054600181600116156101000203166002900480601f01602080910402602001604051908101604052809291908181526020018280546001816001161561010002031660029004801561211f5780601f106120f45761010080835404028352916020019161211f565b820191906000526020600020905b81548152906001019060200180831161210257829003601f168201915b5050505050815260200160038201548152602001600482015481526020016005820160009054906101000a900460ff16151515158152602001600682015481526020016007820160009054906101000a900460ff1615151515815260200160088201548152602001600982018054600181600116156101000203166002900480601f01602080910402602001604051908101604052809291908181526020018280546001816001161561010002031660029004801561221f5780601f106121f45761010080835404028352916020019161221f565b820191906000526020600020905b81548152906001019060200180831161220257829003601f168201915b50505050508152505083838151811061223457fe5b602002602001018190525081806001019250505b8080600101915050611db4565b5081935050505090565b6122676141f4565b600160003373ffffffffffffffffffffffffffffffffffffffff1673ffffffffffffffffffffffffffffffffffffffff16815260200190815260200160002060050160009054906101000a900460ff16156122f7576040517f08c379a00000000000000000000000000000000000000000000000000000000081526004016122ee906152cc565b60405180910390fd5b6122ff6141f4565b60405180610140016040528060065481526020013373ffffffffffffffffffffffffffffffffffffffff16815260200187815260200186815260200160008152602001858152602001600015158152602001600015158152602001848152602001600115158152509050600781908060018154018082558091505090600182039060005260206000209060090201600090919290919091506000820151816000015560208201518160010160006101000a81548173ffffffffffffffffffffffffffffffffffffffff021916908373ffffffffffffffffffffffffffffffffffffffff16021790555060408201518160020155606082015181600301556080820151816004015560a0820151816005015560c08201518160060160006101000a81548160ff02191690831515021790555060e08201518160060160016101000a81548160ff02191690831515021790555061010082015181600701908051906020019061246d929190614087565b506101208201518160080160006101000a81548160ff021916908315150217905550505050600654600160003373ffffffffffffffffffffffffffffffffffffffff1673ffffffffffffffffffffffffffffffffffffffff168152602001908152602001600020600801819055506040518060400160405280600781526020017f50454e44494e4700000000000000000000000000000000000000000000000000815250600160003373ffffffffffffffffffffffffffffffffffffffff1673ffffffffffffffffffffffffffffffffffffffff1681526020019081526020016000206009019080519060200190612566929190614174565b50600160066000828254019250508190555080915050949350505050565b6000809054906101000a900473ffffffffffffffffffffffffffffffffffffffff1681565b6060600160003373ffffffffffffffffffffffffffffffffffffffff1673ffffffffffffffffffffffffffffffffffffffff16815260200190815260200160002060050160009054906101000a900460ff161561263b576040517f08c379a0000000000000000000000000000000000000000000000000000000008152600401612632906152cc565b60405180910390fd5b600080905060008090505b600780549050811015612697576007818154811061266057fe5b906000526020600020906009020160060160009054906101000a900460ff1661268a576001820191505b8080600101915050612646565b5060008090506060826040519080825280602002602001820160405280156126d957816020015b6126c6614263565b8152602001906001900390816126be5790505b50905060008090505b6007805490508110156128e657600781815481106126fc57fe5b906000526020600020906009020160060160009054906101000a900460ff166128d9576007818154811061272c57fe5b906000526020600020906009020160405180610140016040529081600082015481526020016001820160009054906101000a900473ffffffffffffffffffffffffffffffffffffffff1673ffffffffffffffffffffffffffffffffffffffff1673ffffffffffffffffffffffffffffffffffffffff168152602001600282015481526020016003820154815260200160048201548152602001600582015481526020016006820160009054906101000a900460ff161515151581526020016006820160019054906101000a900460ff16151515158152602001600782018054600181600116156101000203166002900480601f01602080910402602001604051908101604052809291908181526020018280546001816001161561010002031660029004801561289d5780601f106128725761010080835404028352916020019161289d565b820191906000526020600020905b81548152906001019060200180831161288057829003601f168201915b505050505081526020016008820160009054906101000a900460ff1615151515815250508284815181106128cd57fe5b60200260200101819052505b80806001019150506126e2565b5080935050505090565b60096020528060005260406000206000915090505481565b6000806000905060008090505b6002805490508110156129f4576001600460003373ffffffffffffffffffffffffffffffffffffffff1673ffffffffffffffffffffffffffffffffffffffff16815260200190815260200160002060006002848154811061297257fe5b9060005260206000200160009054906101000a900473ffffffffffffffffffffffffffffffffffffffff1673ffffffffffffffffffffffffffffffffffffffff1673ffffffffffffffffffffffffffffffffffffffff1681526020019081526020016000205414156129e75781806001019250505b8080600101915050612915565b506706f05b59d3b20000600554670de0b6b3a7640000830281612a1357fe5b041115612a24576001915050612a2a565b60009150505b90565b600160003373ffffffffffffffffffffffffffffffffffffffff1673ffffffffffffffffffffffffffffffffffffffff16815260200190815260200160002060050160009054906101000a900460ff1615612abd576040517f08c379a0000000000000000000000000000000000000000000000000000000008152600401612ab4906152cc565b60405180910390fd5b60078181548110612aca57fe5b906000526020600020906009020160080160009054906101000a900460ff16612b28576040517f08c379a0000000000000000000000000000000000000000000000000000000008152600401612b1f906151ac565b60405180910390fd5b3373ffffffffffffffffffffffffffffffffffffffff1660078281548110612b4c57fe5b906000526020600020906009020160010160009054906101000a900473ffffffffffffffffffffffffffffffffffffffff1673ffffffffffffffffffffffffffffffffffffffff1614612bd4576040517f08c379a0000000000000000000000000000000000000000000000000000000008152600401612bcb9061516c565b60405180910390fd5b60078181548110612be157fe5b906000526020600020906009020160060160009054906101000a900460ff16612c3f576040517f08c379a0000000000000000000000000000000000000000000000000000000008152600401612c369061514c565b60405180910390fd5b60078181548110612c4c57fe5b9060005260206000209060090201600201546001600060078481548110612c6f57fe5b906000526020600020906009020160010160009054906101000a900473ffffffffffffffffffffffffffffffffffffffff1673ffffffffffffffffffffffffffffffffffffffff1673ffffffffffffffffffffffffffffffffffffffff1681526020019081526020016000206004015411612d1f576040517f08c379a0000000000000000000000000000000000000000000000000000000008152600401612d16906151cc565b60405180910390fd5b60078181548110612d2c57fe5b90600052602060002090600902016002015460078281548110612d4b57fe5b906000526020600020906009020160030154600101026001600060078481548110612d7257fe5b906000526020600020906009020160010160009054906101000a900473ffffffffffffffffffffffffffffffffffffffff1673ffffffffffffffffffffffffffffffffffffffff1673ffffffffffffffffffffffffffffffffffffffff1681526020019081526020016000206004016000828254039250508190555060008090505b600280549050811015612fd057600060086000848152602001908152602001600020600060028481548110612e2557fe5b9060005260206000200160009054906101000a900473ffffffffffffffffffffffffffffffffffffffff1673ffffffffffffffffffffffffffffffffffffffff1673ffffffffffffffffffffffffffffffffffffffff168152602001908152602001600020541115612fc35760086000838152602001908152602001600020600060028381548110612eb357fe5b9060005260206000200160009054906101000a900473ffffffffffffffffffffffffffffffffffffffff1673ffffffffffffffffffffffffffffffffffffffff1673ffffffffffffffffffffffffffffffffffffffff1681526020019081526020016000205460078381548110612f2657fe5b906000526020600020906009020160030154600101026001600060028481548110612f4d57fe5b9060005260206000200160009054906101000a900473ffffffffffffffffffffffffffffffffffffffff1673ffffffffffffffffffffffffffffffffffffffff1673ffffffffffffffffffffffffffffffffffffffff168152602001908152602001600020600401600082825401925050819055505b8080600101915050612df4565b50600160078281548110612fe057fe5b906000526020600020906009020160060160016101000a81548160ff02191690831515021790555050565b3373ffffffffffffffffffffffffffffffffffffffff166007828154811061302f57fe5b906000526020600020906009020160010160009054906101000a900473ffffffffffffffffffffffffffffffffffffffff1673ffffffffffffffffffffffffffffffffffffffff16146130b7576040517f08c379a00000000000000000000000000000000000000000000000000000000081526004016130ae9061516c565b60405180910390fd5b600781815481106130c457fe5b906000526020600020906009020160080160009054906101000a900460ff16613122576040517f08c379a00000000000000000000000000000000000000000000000000000000081526004016131199061520c565b60405180910390fd5b6007818154811061312f57fe5b906000526020600020906009020160060160009054906101000a900460ff161561318e576040517f08c379a00000000000000000000000000000000000000000000000000000000081526004016131859061528c565b60405180910390fd5b60006007828154811061319d57fe5b906000526020600020906009020160080160006101000a81548160ff02191690831515021790555060008090505b600280549050811015613384576000600860008481526020019081526020016000206000600284815481106131fc57fe5b9060005260206000200160009054906101000a900473ffffffffffffffffffffffffffffffffffffffff1673ffffffffffffffffffffffffffffffffffffffff1673ffffffffffffffffffffffffffffffffffffffff168152602001908152602001600020541115613377576008600083815260200190815260200160002060006002838154811061328a57fe5b9060005260206000200160009054906101000a900473ffffffffffffffffffffffffffffffffffffffff1673ffffffffffffffffffffffffffffffffffffffff1673ffffffffffffffffffffffffffffffffffffffff16815260200190815260200160002054600160006002848154811061330157fe5b9060005260206000200160009054906101000a900473ffffffffffffffffffffffffffffffffffffffff1673ffffffffffffffffffffffffffffffffffffffff1673ffffffffffffffffffffffffffffffffffffffff168152602001908152602001600020600401600082825401925050819055505b80806001019150506131cb565b506000600160003373ffffffffffffffffffffffffffffffffffffffff1673ffffffffffffffffffffffffffffffffffffffff168152602001908152602001600020600801819055506040518060400160405280600481526020017f4e4f4e4500000000000000000000000000000000000000000000000000000000815250600160003373ffffffffffffffffffffffffffffffffffffffff1673ffffffffffffffffffffffffffffffffffffffff1681526020019081526020016000206009019080519060200190613458929190614174565b5050565b6004602052816000526040600020602052806000526040600020600091509150505481565b6060600160003373ffffffffffffffffffffffffffffffffffffffff1673ffffffffffffffffffffffffffffffffffffffff16815260200190815260200160002060050160009054906101000a900460ff1615613513576040517f08c379a000000000000000000000000000000000000000000000000000000000815260040161350a906152cc565b60405180910390fd5b600080905060008090505b60028054905081101561368d57600160006002838154811061353c57fe5b9060005260206000200160009054906101000a900473ffffffffffffffffffffffffffffffffffffffff1673ffffffffffffffffffffffffffffffffffffffff1673ffffffffffffffffffffffffffffffffffffffff16815260200190815260200160002060050160009054906101000a900460ff1680156136725750600060046000600284815481106135cc57fe5b9060005260206000200160009054906101000a900473ffffffffffffffffffffffffffffffffffffffff1673ffffffffffffffffffffffffffffffffffffffff1673ffffffffffffffffffffffffffffffffffffffff16815260200190815260200160002060003373ffffffffffffffffffffffffffffffffffffffff1673ffffffffffffffffffffffffffffffffffffffff1681526020019081526020016000205414155b156136805781806001019250505b808060010191505061351e565b506060816040519080825280602002602001820160405280156136ca57816020015b6136b7614107565b8152602001906001900390816136af5790505b509050600080905060008090505b600280549050811015613b7a5760016000600283815481106136f657fe5b9060005260206000200160009054906101000a900473ffffffffffffffffffffffffffffffffffffffff1673ffffffffffffffffffffffffffffffffffffffff1673ffffffffffffffffffffffffffffffffffffffff16815260200190815260200160002060050160009054906101000a900460ff16801561382c57506000600460006002848154811061378657fe5b9060005260206000200160009054906101000a900473ffffffffffffffffffffffffffffffffffffffff1673ffffffffffffffffffffffffffffffffffffffff1673ffffffffffffffffffffffffffffffffffffffff16815260200190815260200160002060003373ffffffffffffffffffffffffffffffffffffffff1673ffffffffffffffffffffffffffffffffffffffff1681526020019081526020016000205414155b15613b6d57600160006002838154811061384257fe5b9060005260206000200160009054906101000a900473ffffffffffffffffffffffffffffffffffffffff1673ffffffffffffffffffffffffffffffffffffffff1673ffffffffffffffffffffffffffffffffffffffff168152602001908152602001600020604051806101400160405290816000820160009054906101000a900473ffffffffffffffffffffffffffffffffffffffff1673ffffffffffffffffffffffffffffffffffffffff1673ffffffffffffffffffffffffffffffffffffffff168152602001600182018054600181600116156101000203166002900480601f0160208091040260200160405190810160405280929190818152602001828054600181600116156101000203166002900480156139a25780601f10613977576101008083540402835291602001916139a2565b820191906000526020600020905b81548152906001019060200180831161398557829003601f168201915b50505050508152602001600282018054600181600116156101000203166002900480601f016020809104026020016040519081016040528092919081815260200182805460018160011615610100020316600290048015613a445780601f10613a1957610100808354040283529160200191613a44565b820191906000526020600020905b815481529060010190602001808311613a2757829003601f168201915b5050505050815260200160038201548152602001600482015481526020016005820160009054906101000a900460ff16151515158152602001600682015481526020016007820160009054906101000a900460ff1615151515815260200160088201548152602001600982018054600181600116156101000203166002900480601f016020809104026020016040519081016040528092919081815260200182805460018160011615610100020316600290048015613b445780601f10613b1957610100808354040283529160200191613b44565b820191906000526020600020905b815481529060010190602001808311613b2757829003601f168201915b505050505081525050838381518110613b5957fe5b602002602001018190525081806001019250505b80806001019150506136d8565b5081935050505090565b6060600160003373ffffffffffffffffffffffffffffffffffffffff1673ffffffffffffffffffffffffffffffffffffffff16815260200190815260200160002060050160009054906101000a900460ff1615613c16576040517f08c379a0000000000000000000000000000000000000000000000000000000008152600401613c0d906152cc565b60405180910390fd5b90565b60078181548110613c2657fe5b90600052602060002090600902016000915090508060000154908060010160009054906101000a900473ffffffffffffffffffffffffffffffffffffffff16908060020154908060030154908060040154908060050154908060060160009054906101000a900460ff16908060060160019054906101000a900460ff1690806007018054600181600116156101000203166002900480601f016020809104026020016040519081016040528092919081815260200182805460018160011615610100020316600290048015613d3c5780601f10613d1157610100808354040283529160200191613d3c565b820191906000526020600020905b815481529060010190602001808311613d1f57829003601f168201915b5050505050908060080160009054906101000a900460ff1690508a565b600160003373ffffffffffffffffffffffffffffffffffffffff1673ffffffffffffffffffffffffffffffffffffffff16815260200190815260200160002060050160009054906101000a900460ff1615613de9576040517f08c379a0000000000000000000000000000000000000000000000000000000008152600401613de0906152cc565b60405180910390fd5b34600160003373ffffffffffffffffffffffffffffffffffffffff1673ffffffffffffffffffffffffffffffffffffffff16815260200190815260200160002060040160008282540192505081905550565b60028181548110613e4857fe5b906000526020600020016000915054906101000a900473ffffffffffffffffffffffffffffffffffffffff1681565b8060078281548110613e8557fe5b90600052602060002090600902016000015414613ed7576040517f08c379a0000000000000000000000000000000000000000000000000000000008152600401613ece9061522c565b60405180910390fd5b600160078281548110613ee657fe5b906000526020600020906009020160060160006101000a81548160ff02191690831515021790555060078181548110613f1b57fe5b9060005260206000209060090201600201546001600060078481548110613f3e57fe5b906000526020600020906009020160010160009054906101000a900473ffffffffffffffffffffffffffffffffffffffff1673ffffffffffffffffffffffffffffffffffffffff1673ffffffffffffffffffffffffffffffffffffffff168152602001908152602001600020600401600082825401925050819055506040518060400160405280600681526020017f4143544956450000000000000000000000000000000000000000000000000000815250600160006007848154811061400157fe5b906000526020600020906009020160010160009054906101000a900473ffffffffffffffffffffffffffffffffffffffff1673ffffffffffffffffffffffffffffffffffffffff1673ffffffffffffffffffffffffffffffffffffffff1681526020019081526020016000206009019080519060200190614083929190614174565b5050565b828054600181600116156101000203166002900490600052602060002090601f016020900481019282601f106140c857805160ff19168380011785556140f6565b828001600101855582156140f6579182015b828111156140f55782518255916020019190600101906140da565b5b50905061410391906142d2565b5090565b604051806101400160405280600073ffffffffffffffffffffffffffffffffffffffff168152602001606081526020016060815260200160008152602001600081526020016000151581526020016000815260200160001515815260200160008152602001606081525090565b828054600181600116156101000203166002900490600052602060002090601f016020900481019282601f106141b557805160ff19168380011785556141e3565b828001600101855582156141e3579182015b828111156141e25782518255916020019190600101906141c7565b5b5090506141f091906142d2565b5090565b60405180610140016040528060008152602001600073ffffffffffffffffffffffffffffffffffffffff16815260200160008152602001600081526020016000815260200160008152602001600015158152602001600015158152602001606081526020016000151581525090565b60405180610140016040528060008152602001600073ffffffffffffffffffffffffffffffffffffffff16815260200160008152602001600081526020016000815260200160008152602001600015158152602001600015158152602001606081526020016000151581525090565b6142f491905b808211156142f05760008160009055506001016142d8565b5090565b90565b600081359050614306816155a2565b92915050565b60008135905061431b816155b9565b92915050565b600082601f83011261433257600080fd5b8135614345614340826153f9565b6153cc565b9150808252602083016020830185838301111561436157600080fd5b61436c83828461554f565b50505092915050565b600081359050614384816155d0565b92915050565b60006020828403121561439c57600080fd5b60006143aa848285016142f7565b91505092915050565b600080604083850312156143c657600080fd5b60006143d4858286016142f7565b92505060206143e5858286016142f7565b9150509250929050565b6000806040838503121561440257600080fd5b6000614410858286016142f7565b92505060206144218582860161430c565b9150509250929050565b60006020828403121561443d57600080fd5b600082013567ffffffffffffffff81111561445757600080fd5b61446384828501614321565b91505092915050565b60006020828403121561447e57600080fd5b600061448c84828501614375565b91505092915050565b600080604083850312156144a857600080fd5b60006144b685828601614375565b92505060206144c7858286016142f7565b9150509250929050565b600080604083850312156144e457600080fd5b60006144f285828601614375565b925050602061450385828601614375565b9150509250929050565b6000806000806080858703121561452357600080fd5b600061453187828801614375565b945050602061454287828801614375565b935050604061455387828801614375565b925050606085013567ffffffffffffffff81111561457057600080fd5b61457c87828801614321565b91505092959194509250565b60006145948383614c38565b905092915050565b60006145a88383614da2565b905092915050565b60006145bc8383614e7c565b905092915050565b6145cd816154fd565b82525050565b6145dc816154fd565b82525050565b60006145ed82615455565b6145f781856154a8565b93508360208202850161460985615425565b8060005b8581101561464557848403895281516146268582614588565b945061463183615481565b925060208a0199505060018101905061460d565b50829750879550505050505092915050565b600061466282615460565b61466c81856154b9565b93508360208202850161467e85615435565b8060005b858110156146ba578484038952815161469b858261459c565b94506146a68361548e565b925060208a01995050600181019050614682565b50829750879550505050505092915050565b60006146d78261546b565b6146e181856154ca565b9350836020820285016146f385615445565b8060005b8581101561472f578484038952815161471085826145b0565b945061471b8361549b565b925060208a019950506001810190506146f7565b50829750879550505050505092915050565b61474a8161550f565b82525050565b6147598161550f565b82525050565b6147688161551b565b82525050565b600061477982615476565b61478381856154db565b935061479381856020860161555e565b61479c81615591565b840191505092915050565b60006147b282615476565b6147bc81856154ec565b93506147cc81856020860161555e565b6147d581615591565b840191505092915050565b60006147ed6020836154ec565b91507f616c726561647920766f74656420666f7220746869732063616e6469646174656000830152602082019050919050565b600061482d6021836154ec565b91507f4d656d62657220646f6573206e6f74206861766520656e6f75676820766f746560008301527f73000000000000000000000000000000000000000000000000000000000000006020830152604082019050919050565b6000614893601a836154ec565b91507f6c6f616e20616c7265616479206e6f74206265656e206c656e740000000000006000830152602082019050919050565b60006148d3601a836154ec565b91507f6f6e6c7920746865206c656e6465722063616e2063616e63656c0000000000006000830152602082019050919050565b60006149136015836154ec565b91507f6d656d62657220616c72656164792065786973747300000000000000000000006000830152602082019050919050565b60006149536029836154ec565b91507f6c6f616e20646f6573206e6f74206578697374206f7220686173206265656e2060008301527f63616e63656c6c656400000000000000000000000000000000000000000000006020830152604082019050919050565b60006149b96027836154ec565b91507f796f7520646f206e6f74206861766520656e6f7567682062616c616e6365207460008301527f6f207265706179000000000000000000000000000000000000000000000000006020830152604082019050919050565b6000614a1f6019836154ec565b91507f43616e646964617465206d7573742062652070656e64696e67000000000000006000830152602082019050919050565b6000614a5f6013836154ec565b91507f6c6f616e20646f6573206e6f74206578697374000000000000000000000000006000830152602082019050919050565b6000614a9f6004836154ec565b91507f74657374000000000000000000000000000000000000000000000000000000006000830152602082019050919050565b6000614adf6014836154ec565b91507f696e73756666696369656e742062616c616e63650000000000000000000000006000830152602082019050919050565b6000614b1f601e836154ec565b91507f4d656d626572206d7573742062652070656e64696e6720746f206a6f696e00006000830152602082019050919050565b6000614b5f601a836154ec565b91507f6c6f616e20616c726561647920686173206265656e206c656e740000000000006000830152602082019050919050565b6000614b9f6018836154ec565b91507f43616e6e6f7420766f746520666f7220796f757273656c6600000000000000006000830152602082019050919050565b6000614bdf6024836154ec565b91507f4f6e6c79206d656d626572732063616e2063616c6c20746869732066756e637460008301527f696f6e2e000000000000000000000000000000000000000000000000000000006020830152604082019050919050565b600060c083016000830151614c506000860182614f64565b506020830151614c636020860182614f64565b506040830151614c766040860182614f64565b506060830151614c8960608601826145c4565b5060808301518482036080860152614ca1828261476e565b91505060a083015184820360a0860152614cbb828261476e565b9150508091505092915050565b600061014083016000830151614ce16000860182614f64565b506020830151614cf460208601826145c4565b506040830151614d076040860182614f64565b506060830151614d1a6060860182614f64565b506080830151614d2d6080860182614f64565b5060a0830151614d4060a0860182614f64565b5060c0830151614d5360c0860182614741565b5060e0830151614d6660e0860182614741565b50610100830151848203610100860152614d80828261476e565b915050610120830151614d97610120860182614741565b508091505092915050565b600061014083016000830151614dbb6000860182614f64565b506020830151614dce60208601826145c4565b506040830151614de16040860182614f64565b506060830151614df46060860182614f64565b506080830151614e076080860182614f64565b5060a0830151614e1a60a0860182614f64565b5060c0830151614e2d60c0860182614741565b5060e0830151614e4060e0860182614741565b50610100830151848203610100860152614e5a828261476e565b915050610120830151614e71610120860182614741565b508091505092915050565b600061014083016000830151614e9560008601826145c4565b5060208301518482036020860152614ead828261476e565b91505060408301518482036040860152614ec7828261476e565b9150506060830151614edc6060860182614f64565b506080830151614eef6080860182614f64565b5060a0830151614f0260a0860182614741565b5060c0830151614f1560c0860182614f64565b5060e0830151614f2860e0860182614741565b50610100830151614f3d610100860182614f64565b50610120830151848203610120860152614f57828261476e565b9150508091505092915050565b614f6d81615545565b82525050565b614f7c81615545565b82525050565b6000602082019050614f9760008301846145d3565b92915050565b600061014082019050614fb3600083018d6145d3565b8181036020830152614fc5818c6147a7565b90508181036040830152614fd9818b6147a7565b9050614fe8606083018a614f73565b614ff56080830189614f73565b61500260a0830188614750565b61500f60c0830187614f73565b61501c60e0830186614750565b61502a610100830185614f73565b81810361012083015261503d81846147a7565b90509b9a5050505050505050505050565b6000602082019050818103600083015261506881846145e2565b905092915050565b6000602082019050818103600083015261508a8184614657565b905092915050565b600060208201905081810360008301526150ac81846146cc565b905092915050565b60006020820190506150c96000830184614750565b92915050565b60006020820190506150e4600083018461475f565b92915050565b6000602082019050818103600083015261510481846147a7565b905092915050565b60006020820190508181036000830152615125816147e0565b9050919050565b6000602082019050818103600083015261514581614820565b9050919050565b6000602082019050818103600083015261516581614886565b9050919050565b60006020820190508181036000830152615185816148c6565b9050919050565b600060208201905081810360008301526151a581614906565b9050919050565b600060208201905081810360008301526151c581614946565b9050919050565b600060208201905081810360008301526151e5816149ac565b9050919050565b6000602082019050818103600083015261520581614a12565b9050919050565b6000602082019050818103600083015261522581614a52565b9050919050565b6000602082019050818103600083015261524581614a92565b9050919050565b6000602082019050818103600083015261526581614ad2565b9050919050565b6000602082019050818103600083015261528581614b12565b9050919050565b600060208201905081810360008301526152a581614b52565b9050919050565b600060208201905081810360008301526152c581614b92565b9050919050565b600060208201905081810360008301526152e581614bd2565b9050919050565b600060208201905081810360008301526153068184614cc8565b905092915050565b60006020820190506153236000830184614f73565b92915050565b60006101408201905061533f600083018d614f73565b61534c602083018c6145d3565b615359604083018b614f73565b615366606083018a614f73565b6153736080830189614f73565b61538060a0830188614f73565b61538d60c0830187614750565b61539a60e0830186614750565b8181036101008301526153ad81856147a7565b90506153bd610120830184614750565b9b9a5050505050505050505050565b6000604051905081810181811067ffffffffffffffff821117156153ef57600080fd5b8060405250919050565b600067ffffffffffffffff82111561541057600080fd5b601f19601f8301169050602081019050919050565b6000819050602082019050919050565b6000819050602082019050919050565b6000819050602082019050919050565b600081519050919050565b600081519050919050565b600081519050919050565b600081519050919050565b6000602082019050919050565b6000602082019050919050565b6000602082019050919050565b600082825260208201905092915050565b600082825260208201905092915050565b600082825260208201905092915050565b600082825260208201905092915050565b600082825260208201905092915050565b600061550882615525565b9050919050565b60008115159050919050565b6000819050919050565b600073ffffffffffffffffffffffffffffffffffffffff82169050919050565b6000819050919050565b82818337600083830152505050565b60005b8381101561557c578082015181840152602081019050615561565b8381111561558b576000848401525b50505050565b6000601f19601f8301169050919050565b6155ab816154fd565b81146155b657600080fd5b50565b6155c28161550f565b81146155cd57600080fd5b50565b6155d981615545565b81146155e457600080fd5b5056fea365627a7a72315820bb81f732305b25f2abd01fb00a61ed5c51c7b9479ba2cb9d26cc85f61e66aa5f6c6578706572696d656e74616cf564736f6c634300050f0040",
  "source": "// SPDX-License-Identifier: MIT\npragma solidity ^0.5.15;\npragma experimental ABIEncoderV2;\n\ncontract FriendLend {\n    struct Member {\n        address memberAddress;\n        string username;\n        string myPassword;\n        uint256 friendScore;\n        uint256 balance;\n        bool isPending; // membership status\n        uint256 dateAdded;\n        bool exists;\n        uint loanid; // connects to a loan struct\n        string loanStatus; // \"NONE\", \"PENDING\", \"ACTIVE\"\n    }\n\n    struct Loan {\n        uint id;\n        address borrower;\n        uint256 amount;\n        uint256 interest;\n        uint256 filled;\n        uint256 dueDate;\n        bool isLent;\n        bool isReturned;\n        string reason;\n        bool exists;\n    }\n\n    struct Investment {\n        uint256 amount;\n        uint256 interest;\n        uint256 dueDate;\n        address borrower;\n        string username;\n        string reason;\n    }\n\n    address public owner; // address of group creator\n    mapping(address => Member) public members; // mapping to member structs\n    address[] public allMembers; // array of all member addresses\n    string public groupName;\n    mapping(address => mapping(address => int)) public votes; // mapping of candidate addresses to a mapping of the people and their votes for the candidate\n    uint public memberCount = 0; //number of confirmed members\n\n    uint currLoanId = 0;\n    Loan[] public loans; //list of all lones\n    mapping(uint => mapping(address => uint)) public loanContributions;\n    mapping(address => uint256) public bannedMembers;\n\n    constructor(\n        string memory theGroupName,\n        string memory myUsername,\n        string memory myPassword\n    ) public {\n        owner = msg.sender;\n        members[owner] = Member(\n            owner,\n            myUsername,\n            myPassword,\n            0,\n            0,\n            false,\n            0,\n            true,\n            0,\n            \"NONE\"\n        );\n        memberCount += 1;\n        allMembers.push(msg.sender);\n        groupName = theGroupName;\n    }\n\n    modifier onlyOwner() {\n        require(msg.sender == owner, \"Only owner can call this function.\");\n        _;\n    }\n\n    modifier onlyMembers() {\n        require(\n            !members[msg.sender].isPending,\n            \"Only members can call this function.\"\n        );\n        _;\n    }\n\n    function proposeInvite(address newMemberAddress) public onlyMembers {\n        // Logic to propose a new member\n        require(!members[newMemberAddress].exists, \"member already exists\");\n        members[newMemberAddress] = Member(\n            newMemberAddress,\n            \"\",\n            \"\",\n            0,\n            0,\n            true,\n            0,\n            true,\n            0,\n            \"NONE\"\n        );\n        allMembers.push(newMemberAddress);\n    }\n\n    function voteOnPendingPerson(\n        address candidateAddress,\n        bool vote\n    ) public onlyMembers {\n        // Logic to vote on a pending member\n        require(candidateAddress != msg.sender, \"Cannot vote for yourself\");\n        require(\n            members[candidateAddress].isPending,\n            \"Candidate must be pending\"\n        );\n        require(\n            votes[candidateAddress][msg.sender] == 0,\n            \"already voted for this candidate\"\n        );\n        if (vote) {\n            votes[candidateAddress][msg.sender] = 1;\n        } else {\n            votes[candidateAddress][msg.sender] = -1;\n        }\n    }\n\n    function join(string memory username) public {\n        require(canJoin(), \"Member does not have enough votes\");\n        require(\n            members[msg.sender].isPending,\n            \"Member must be pending to join\"\n        );\n        members[msg.sender].username = username;\n        members[msg.sender].isPending = true;\n        allMembers.push(msg.sender);\n        memberCount += 1;\n    }\n\n    function depositFunds() public payable onlyMembers {\n        // Logic to deposit funds into the lending pool\n        members[msg.sender].balance += msg.value;\n    }\n\n    // FE: would be very helpful if this returned the loan struct at the end of the function\n    // FE: can we do date objects? or is the int the only option\n    // FE: either this function or the getAllOpenLoans function is not working\n    function requestLoan(\n        uint256 amount,\n        uint256 interestRate,\n        uint256 dueDate,\n        string memory reason\n    ) public onlyMembers returns (Loan memory) {\n        // Logic to request a new loan\n        Loan memory loan = Loan(\n            currLoanId,\n            msg.sender,\n            amount,\n            interestRate,\n            0,\n            dueDate,\n            false,\n            false,\n            reason,\n            true\n        );\n        loans.push(loan);\n        // update user loan status\n        members[msg.sender].loanid = currLoanId;\n        members[msg.sender].loanStatus = \"PENDING\";\n        currLoanId += 1;\n        \n        return loan;\n    }\n\n    function lendLoan(uint loanId) private {\n        require(loans[loanId].id == loanId, \"test\");\n        loans[loanId].isLent = true;\n        members[loans[loanId].borrower].balance += loans[loanId].amount;\n        // update member loan status\n        members[loans[loanId].borrower].loanStatus = \"ACTIVE\";\n    }\n\n    function fillLoanRequest(\n        uint loanId,\n        uint256 contribution\n    ) public onlyMembers {\n        // Logic to contribute to a loan request\n        require(\n            loans[loanId].exists,\n            \"loan does not exist or has been cancelled\"\n        );\n        uint256 togo = loans[loanId].amount - loans[loanId].filled;\n        if (togo < contribution) {\n            contribution = togo;\n        }\n        loans[loanId].filled += contribution;\n        require(\n            members[msg.sender].balance >= contribution,\n            \"insufficient balance\"\n        );\n        members[msg.sender].balance -= contribution;\n        loanContributions[loanId][msg.sender] += contribution;\n        if (loans[loanId].filled == loans[loanId].amount) {\n            lendLoan(loanId);\n        }\n    }\n\n    function withdrawFunds(uint256 amount) public onlyMembers {\n        // Logic to withdraw funds from the lending pool\n        require(members[msg.sender].balance >= amount, \"insufficient balance\");\n        members[msg.sender].balance -= amount;\n        address payable addr = msg.sender;\n        addr.transfer(amount);\n    }\n\n    function cancelLoan(uint256 loanId) public {\n        require(\n            loans[loanId].borrower == msg.sender,\n            \"only the lender can cancel\"\n        );\n        require(loans[loanId].exists, \"loan does not exist\");\n        require(!loans[loanId].isLent, \"loan already has been lent\");\n        loans[loanId].exists = false;\n        for (uint i = 0; i < allMembers.length; i++) {\n            // repay all people who contributed\n            if (loanContributions[loanId][allMembers[i]] > 0) {\n                members[allMembers[i]].balance += loanContributions[loanId][\n                    allMembers[i]\n                ];\n            }\n        }\n        // update member loan status\n        members[msg.sender].loanid = 0;\n        members[msg.sender].loanStatus = \"NONE\";\n    }\n\n    function payLoan(uint256 loanId) public onlyMembers {\n        require(\n            loans[loanId].exists,\n            \"loan does not exist or has been cancelled\"\n        );\n        require(\n            loans[loanId].borrower == msg.sender,\n            \"only the lender can cancel\"\n        );\n        require(loans[loanId].isLent, \"loan already not been lent\");\n        require(\n            members[loans[loanId].borrower].balance > loans[loanId].amount,\n            \"you do not have enough balance to repay\"\n        );\n        // Logic to pay off an outstanding loan early\n\n        members[loans[loanId].borrower].balance -=\n            (1 + loans[loanId].interest) *\n            loans[loanId].amount;\n        for (uint i = 0; i < allMembers.length; i++) {\n            // repay all people who contribute their contributions + interest\n            if (loanContributions[loanId][allMembers[i]] > 0) {\n                members[allMembers[i]].balance +=\n                    (1 + loans[loanId].interest) *\n                    loanContributions[loanId][allMembers[i]];\n            }\n        }\n        loans[loanId].isReturned = true;\n    }\n\n    function canJoin() public view returns (bool cj) {\n        uint sum = 0;\n\n        for (uint i = 0; i < allMembers.length; i++) {\n            if (votes[msg.sender][allMembers[i]] == 1) {\n                sum++;\n            }\n        }\n        if ((sum * 1e18) / memberCount > 5e17) {\n            return true;\n        } else {\n            return false;\n        }\n    }\n\n    function getAllConfirmedMembers()\n        public\n        view\n        onlyMembers\n        returns (Member[] memory)\n    {\n        // Logic to retrieve all non-pending members\n        Member[] memory nonPending = new Member[](memberCount);\n        uint j = 0;\n        for (uint i = 0; i < allMembers.length; i++) {\n            if (!members[allMembers[i]].isPending) {\n                nonPending[j] = members[allMembers[i]];\n                j++;\n            }\n        }\n        return nonPending;\n    }\n\n    function getAllOpenLoans() public view onlyMembers returns (Loan[] memory) {\n        // Logic to get all open loan requests\n        uint count = 0;\n        for (uint i = 0; i < loans.length; i++) {\n            if (!loans[i].isLent) {\n                count += 1;\n            }\n        }\n        uint j = 0;\n        Loan[] memory openLoans = new Loan[](count);\n        for (uint i = 0; i < loans.length; i++) {\n            if (!loans[i].isLent) {\n                openLoans[j] = loans[i];\n            }\n        }\n        return openLoans;\n    }\n\n    function getPendingMembers()\n        public\n        view\n        onlyMembers\n        returns (Member[] memory)\n    {\n        //returns all pending members the user has voted on\n        uint count = 0;\n        for (uint i = 0; i < allMembers.length; i++) {\n            if (\n                members[allMembers[i]].isPending &&\n                votes[allMembers[i]][msg.sender] != 0\n            ) {\n                count++;\n            }\n        }\n\n        Member[] memory pending = new Member[](count);\n        uint j = 0;\n        for (uint i = 0; i < allMembers.length; i++) {\n            if (\n                members[allMembers[i]].isPending &&\n                votes[allMembers[i]][msg.sender] != 0\n            ) {\n                pending[j] = members[allMembers[i]];\n                j++;\n            }\n        }\n        return pending;\n    }\n\n    function getMembersToVoteOn()\n        public\n        view\n        onlyMembers\n        returns (Member[] memory)\n    {\n        // Logic to list all pending members the sender has not voted on\n        uint count = 0;\n        for (uint i = 0; i < allMembers.length; i++) {\n            if (\n                members[allMembers[i]].isPending &&\n                votes[allMembers[i]][msg.sender] == 0\n            ) {\n                count++;\n            }\n        }\n\n        Member[] memory pending = new Member[](count);\n        uint j = 0;\n        for (uint i = 0; i < allMembers.length; i++) {\n            if (\n                members[allMembers[i]].isPending &&\n                votes[allMembers[i]][msg.sender] == 0\n            ) {\n                pending[j] = members[allMembers[i]];\n                j++;\n            }\n        }\n        return pending;\n    }\n\n    function getPortfolio()\n        public\n        view\n        onlyMembers\n        returns (Investment[] memory)\n    {}\n    // System and helper functions are not fully implemented due to their complex nature\n    // and requirement for further specifications.\n\n    // ... Additional functions like autoPayLoan, default, calculateInterest, updateFriendScore, checkMembershipStatus ...\n}\n",
  "sourcePath": "/Users/joeyladerer/Documents/Berkeley/CS194/defi-friendlend/backend/contracts/FriendLend.sol",
  "compiler": {
    "name": "solc",
    "version": "0.5.15+commit.6a57276f.Emscripten.clang"
  },
  "schemaVersion": "3.4.16",
  "updatedAt": "2023-12-01T22:28:31.597Z",
  "networkType": "ethereum",
  "devdoc": {
    "methods": {}
  },
  "userdoc": {
    "methods": {}
  }
}