{
  "contractName": "FriendLend",
  "abi": [
    {
      "inputs": [
        {
          "internalType": "string",
          "name": "theGroupName",
          "type": "string"
        },
        {
          "internalType": "string",
          "name": "myUsername",
          "type": "string"
        },
        {
          "internalType": "string",
          "name": "myPassword",
          "type": "string"
        }
      ],
      "stateMutability": "nonpayable",
      "type": "constructor"
    },
    {
      "inputs": [
        {
          "internalType": "uint256",
          "name": "",
          "type": "uint256"
        }
      ],
      "name": "allMembers",
      "outputs": [
        {
          "internalType": "address",
          "name": "",
          "type": "address"
        }
      ],
      "stateMutability": "view",
      "type": "function",
      "constant": true
    },
    {
      "inputs": [
        {
          "internalType": "address",
          "name": "",
          "type": "address"
        }
      ],
      "name": "bannedMembers",
      "outputs": [
        {
          "internalType": "uint256",
          "name": "",
          "type": "uint256"
        }
      ],
      "stateMutability": "view",
      "type": "function",
      "constant": true
    },
    {
      "inputs": [],
      "name": "groupName",
      "outputs": [
        {
          "internalType": "string",
          "name": "",
          "type": "string"
        }
      ],
      "stateMutability": "view",
      "type": "function",
      "constant": true
    },
    {
      "inputs": [
        {
          "internalType": "uint256",
          "name": "",
          "type": "uint256"
        },
        {
          "internalType": "address",
          "name": "",
          "type": "address"
        }
      ],
      "name": "loanContributions",
      "outputs": [
        {
          "internalType": "uint256",
          "name": "",
          "type": "uint256"
        }
      ],
      "stateMutability": "view",
      "type": "function",
      "constant": true
    },
    {
      "inputs": [
        {
          "internalType": "uint256",
          "name": "",
          "type": "uint256"
        }
      ],
      "name": "loans",
      "outputs": [
        {
          "internalType": "uint256",
          "name": "id",
          "type": "uint256"
        },
        {
          "internalType": "address",
          "name": "borrower",
          "type": "address"
        },
        {
          "internalType": "uint256",
          "name": "amount",
          "type": "uint256"
        },
        {
          "internalType": "uint256",
          "name": "interest",
          "type": "uint256"
        },
        {
          "internalType": "uint256",
          "name": "filled",
          "type": "uint256"
        },
        {
          "internalType": "uint256",
          "name": "dueDate",
          "type": "uint256"
        },
        {
          "internalType": "bool",
          "name": "isLent",
          "type": "bool"
        },
        {
          "internalType": "bool",
          "name": "isReturned",
          "type": "bool"
        },
        {
          "internalType": "string",
          "name": "reason",
          "type": "string"
        },
        {
          "internalType": "bool",
          "name": "exists",
          "type": "bool"
        }
      ],
      "stateMutability": "view",
      "type": "function",
      "constant": true
    },
    {
      "inputs": [],
      "name": "memberCount",
      "outputs": [
        {
          "internalType": "uint256",
          "name": "",
          "type": "uint256"
        }
      ],
      "stateMutability": "view",
      "type": "function",
      "constant": true
    },
    {
      "inputs": [
        {
          "internalType": "address",
          "name": "",
          "type": "address"
        }
      ],
      "name": "members",
      "outputs": [
        {
          "internalType": "address",
          "name": "memberAddress",
          "type": "address"
        },
        {
          "internalType": "string",
          "name": "username",
          "type": "string"
        },
        {
          "internalType": "string",
          "name": "myPassword",
          "type": "string"
        },
        {
          "internalType": "uint256",
          "name": "friendScore",
          "type": "uint256"
        },
        {
          "internalType": "uint256",
          "name": "balance",
          "type": "uint256"
        },
        {
          "internalType": "bool",
          "name": "isPending",
          "type": "bool"
        },
        {
          "internalType": "uint256",
          "name": "dateAdded",
          "type": "uint256"
        },
        {
          "internalType": "bool",
          "name": "exists",
          "type": "bool"
        }
      ],
      "stateMutability": "view",
      "type": "function",
      "constant": true
    },
    {
      "inputs": [],
      "name": "owner",
      "outputs": [
        {
          "internalType": "address",
          "name": "",
          "type": "address"
        }
      ],
      "stateMutability": "view",
      "type": "function",
      "constant": true
    },
    {
      "inputs": [
        {
          "internalType": "address",
          "name": "",
          "type": "address"
        },
        {
          "internalType": "address",
          "name": "",
          "type": "address"
        }
      ],
      "name": "votes",
      "outputs": [
        {
          "internalType": "int256",
          "name": "",
          "type": "int256"
        }
      ],
      "stateMutability": "view",
      "type": "function",
      "constant": true
    },
    {
      "inputs": [
        {
          "internalType": "address",
          "name": "newMemberAddress",
          "type": "address"
        }
      ],
      "name": "proposeInvite",
      "outputs": [],
      "stateMutability": "nonpayable",
      "type": "function"
    },
    {
      "inputs": [
        {
          "internalType": "address",
          "name": "candidateAddress",
          "type": "address"
        },
        {
          "internalType": "bool",
          "name": "vote",
          "type": "bool"
        }
      ],
      "name": "voteOnPendingPerson",
      "outputs": [],
      "stateMutability": "nonpayable",
      "type": "function"
    },
    {
      "inputs": [
        {
          "internalType": "string",
          "name": "username",
          "type": "string"
        }
      ],
      "name": "join",
      "outputs": [],
      "stateMutability": "nonpayable",
      "type": "function"
    },
    {
      "inputs": [],
      "name": "depositFunds",
      "outputs": [],
      "stateMutability": "payable",
      "type": "function",
      "payable": true
    },
    {
      "inputs": [
        {
          "internalType": "uint256",
          "name": "amount",
          "type": "uint256"
        },
        {
          "internalType": "uint256",
          "name": "interestRate",
          "type": "uint256"
        },
        {
          "internalType": "uint256",
          "name": "dueDate",
          "type": "uint256"
        },
        {
          "internalType": "string",
          "name": "reason",
          "type": "string"
        }
      ],
      "name": "requestLoan",
      "outputs": [
        {
          "components": [
            {
              "internalType": "uint256",
              "name": "id",
              "type": "uint256"
            },
            {
              "internalType": "address",
              "name": "borrower",
              "type": "address"
            },
            {
              "internalType": "uint256",
              "name": "amount",
              "type": "uint256"
            },
            {
              "internalType": "uint256",
              "name": "interest",
              "type": "uint256"
            },
            {
              "internalType": "uint256",
              "name": "filled",
              "type": "uint256"
            },
            {
              "internalType": "uint256",
              "name": "dueDate",
              "type": "uint256"
            },
            {
              "internalType": "bool",
              "name": "isLent",
              "type": "bool"
            },
            {
              "internalType": "bool",
              "name": "isReturned",
              "type": "bool"
            },
            {
              "internalType": "string",
              "name": "reason",
              "type": "string"
            },
            {
              "internalType": "bool",
              "name": "exists",
              "type": "bool"
            }
          ],
          "internalType": "struct FriendLend.Loan",
          "name": "",
          "type": "tuple"
        }
      ],
      "stateMutability": "nonpayable",
      "type": "function"
    },
    {
      "inputs": [
        {
          "internalType": "uint256",
          "name": "loanId",
          "type": "uint256"
        },
        {
          "internalType": "uint256",
          "name": "contribution",
          "type": "uint256"
        }
      ],
      "name": "fillLoanRequest",
      "outputs": [],
      "stateMutability": "nonpayable",
      "type": "function"
    },
    {
      "inputs": [
        {
          "internalType": "uint256",
          "name": "amount",
          "type": "uint256"
        }
      ],
      "name": "withdrawFunds",
      "outputs": [],
      "stateMutability": "nonpayable",
      "type": "function"
    },
    {
      "inputs": [
        {
          "internalType": "uint256",
          "name": "loanId",
          "type": "uint256"
        }
      ],
      "name": "cancelLoan",
      "outputs": [],
      "stateMutability": "nonpayable",
      "type": "function"
    },
    {
      "inputs": [
        {
          "internalType": "uint256",
          "name": "loanId",
          "type": "uint256"
        }
      ],
      "name": "payLoan",
      "outputs": [],
      "stateMutability": "nonpayable",
      "type": "function"
    },
    {
      "inputs": [],
      "name": "canJoin",
      "outputs": [
        {
          "internalType": "bool",
          "name": "cj",
          "type": "bool"
        }
      ],
      "stateMutability": "view",
      "type": "function",
      "constant": true
    },
    {
      "inputs": [],
      "name": "getAllConfirmedMembers",
      "outputs": [
        {
          "components": [
            {
              "internalType": "address",
              "name": "memberAddress",
              "type": "address"
            },
            {
              "internalType": "string",
              "name": "username",
              "type": "string"
            },
            {
              "internalType": "string",
              "name": "myPassword",
              "type": "string"
            },
            {
              "internalType": "uint256",
              "name": "friendScore",
              "type": "uint256"
            },
            {
              "internalType": "uint256",
              "name": "balance",
              "type": "uint256"
            },
            {
              "internalType": "bool",
              "name": "isPending",
              "type": "bool"
            },
            {
              "internalType": "uint256",
              "name": "dateAdded",
              "type": "uint256"
            },
            {
              "internalType": "bool",
              "name": "exists",
              "type": "bool"
            }
          ],
          "internalType": "struct FriendLend.Member[]",
          "name": "",
          "type": "tuple[]"
        }
      ],
      "stateMutability": "view",
      "type": "function",
      "constant": true
    },
    {
      "inputs": [],
      "name": "getAllOpenLoans",
      "outputs": [
        {
          "components": [
            {
              "internalType": "uint256",
              "name": "id",
              "type": "uint256"
            },
            {
              "internalType": "address",
              "name": "borrower",
              "type": "address"
            },
            {
              "internalType": "uint256",
              "name": "amount",
              "type": "uint256"
            },
            {
              "internalType": "uint256",
              "name": "interest",
              "type": "uint256"
            },
            {
              "internalType": "uint256",
              "name": "filled",
              "type": "uint256"
            },
            {
              "internalType": "uint256",
              "name": "dueDate",
              "type": "uint256"
            },
            {
              "internalType": "bool",
              "name": "isLent",
              "type": "bool"
            },
            {
              "internalType": "bool",
              "name": "isReturned",
              "type": "bool"
            },
            {
              "internalType": "string",
              "name": "reason",
              "type": "string"
            },
            {
              "internalType": "bool",
              "name": "exists",
              "type": "bool"
            }
          ],
          "internalType": "struct FriendLend.Loan[]",
          "name": "",
          "type": "tuple[]"
        }
      ],
      "stateMutability": "view",
      "type": "function",
      "constant": true
    },
    {
      "inputs": [],
      "name": "getPendingMembers",
      "outputs": [
        {
          "components": [
            {
              "internalType": "address",
              "name": "memberAddress",
              "type": "address"
            },
            {
              "internalType": "string",
              "name": "username",
              "type": "string"
            },
            {
              "internalType": "string",
              "name": "myPassword",
              "type": "string"
            },
            {
              "internalType": "uint256",
              "name": "friendScore",
              "type": "uint256"
            },
            {
              "internalType": "uint256",
              "name": "balance",
              "type": "uint256"
            },
            {
              "internalType": "bool",
              "name": "isPending",
              "type": "bool"
            },
            {
              "internalType": "uint256",
              "name": "dateAdded",
              "type": "uint256"
            },
            {
              "internalType": "bool",
              "name": "exists",
              "type": "bool"
            }
          ],
          "internalType": "struct FriendLend.Member[]",
          "name": "",
          "type": "tuple[]"
        }
      ],
      "stateMutability": "view",
      "type": "function",
      "constant": true
    },
    {
      "inputs": [],
      "name": "getMembersToVoteOn",
      "outputs": [
        {
          "components": [
            {
              "internalType": "address",
              "name": "memberAddress",
              "type": "address"
            },
            {
              "internalType": "string",
              "name": "username",
              "type": "string"
            },
            {
              "internalType": "string",
              "name": "myPassword",
              "type": "string"
            },
            {
              "internalType": "uint256",
              "name": "friendScore",
              "type": "uint256"
            },
            {
              "internalType": "uint256",
              "name": "balance",
              "type": "uint256"
            },
            {
              "internalType": "bool",
              "name": "isPending",
              "type": "bool"
            },
            {
              "internalType": "uint256",
              "name": "dateAdded",
              "type": "uint256"
            },
            {
              "internalType": "bool",
              "name": "exists",
              "type": "bool"
            }
          ],
          "internalType": "struct FriendLend.Member[]",
          "name": "",
          "type": "tuple[]"
        }
      ],
      "stateMutability": "view",
      "type": "function",
      "constant": true
    },
    {
      "inputs": [],
      "name": "getPortfolio",
      "outputs": [
        {
          "components": [
            {
              "internalType": "uint256",
              "name": "amount",
              "type": "uint256"
            },
            {
              "internalType": "uint256",
              "name": "interest",
              "type": "uint256"
            },
            {
              "internalType": "uint256",
              "name": "dueDate",
              "type": "uint256"
            },
            {
              "internalType": "address",
              "name": "borrower",
              "type": "address"
            },
            {
              "internalType": "string",
              "name": "username",
              "type": "string"
            },
            {
              "internalType": "string",
              "name": "reason",
              "type": "string"
            }
          ],
          "internalType": "struct FriendLend.Investment[]",
          "name": "",
          "type": "tuple[]"
        }
      ],
      "stateMutability": "view",
      "type": "function",
      "constant": true
    }
  ],
  "bytecode": "0x6080604052600060055560006006553480156200001b57600080fd5b50604051620055cd380380620055cd833981810160405262000041919081019062000469565b336000806101000a81548173ffffffffffffffffffffffffffffffffffffffff021916908373ffffffffffffffffffffffffffffffffffffffff1602179055506040518061010001604052806000809054906101000a900473ffffffffffffffffffffffffffffffffffffffff1673ffffffffffffffffffffffffffffffffffffffff16815260200183815260200182815260200160008152602001600081526020016000151581526020016000815260200160011515815250600160008060009054906101000a900473ffffffffffffffffffffffffffffffffffffffff1673ffffffffffffffffffffffffffffffffffffffff1673ffffffffffffffffffffffffffffffffffffffff16815260200190815260200160002060008201518160000160006101000a81548173ffffffffffffffffffffffffffffffffffffffff021916908373ffffffffffffffffffffffffffffffffffffffff1602179055506020820151816001019080519060200190620001c0929190620002d7565b506040820151816002019080519060200190620001df929190620002d7565b50606082015181600301556080820151816004015560a08201518160050160006101000a81548160ff02191690831515021790555060c0820151816006015560e08201518160070160006101000a81548160ff02191690831515021790555090505060016005600082825401925050819055506002339080600181540180825580915050600190039060005260206000200160009091909190916101000a81548173ffffffffffffffffffffffffffffffffffffffff021916908373ffffffffffffffffffffffffffffffffffffffff1602179055508260039080519060200190620002cd9291906200035e565b505050506200059b565b828054600181600116156101000203166002900490600052602060002090601f016020900481019282601f106200031a57805160ff19168380011785556200034b565b828001600101855582156200034b579182015b828111156200034a5782518255916020019190600101906200032d565b5b5090506200035a9190620003e5565b5090565b828054600181600116156101000203166002900490600052602060002090601f016020900481019282601f10620003a157805160ff1916838001178555620003d2565b82800160010185558215620003d2579182015b82811115620003d1578251825591602001919060010190620003b4565b5b509050620003e19190620003e5565b5090565b6200040a91905b8082111562000406576000816000905550600101620003ec565b5090565b90565b600082601f8301126200041f57600080fd5b815162000436620004308262000538565b6200050a565b915080825260208301602083018583830111156200045357600080fd5b6200046083828462000565565b50505092915050565b6000806000606084860312156200047f57600080fd5b600084015167ffffffffffffffff8111156200049a57600080fd5b620004a8868287016200040d565b935050602084015167ffffffffffffffff811115620004c657600080fd5b620004d4868287016200040d565b925050604084015167ffffffffffffffff811115620004f257600080fd5b62000500868287016200040d565b9150509250925092565b6000604051905081810181811067ffffffffffffffff821117156200052e57600080fd5b8060405250919050565b600067ffffffffffffffff8211156200055057600080fd5b601f19601f8301169050602081019050919050565b60005b838110156200058557808201518184015260208101905062000568565b8381111562000595576000848401525b50505050565b61502280620005ab6000396000f3fe60806040526004361061014b5760003560e01c80638da5cb5b116100b6578063cad1b9061161006f578063cad1b90614610497578063cb95fe7a146104d4578063d3d03458146104ff578063e1ec3c681461052a578063e2c41dbc14610570578063fd0717bd1461057a5761014b565b80638da5cb5b146103875780638fc5336e146103b257806398533871146103dd578063a86eaca41461041a578063a8d7b3ec14610445578063bdbfa3de1461046e5761014b565b806352264c5b1161010857806352264c5b1461027757806369fdfd45146102a05780636a786b07146102cb578063783cec80146102f45780637ba3f54b1461031f578063847332941461034a5761014b565b8063017ebb911461015057806308ae4b0c1461017957806311aee380146101bd578063155dd5ee146101e857806319c68002146102115780634cc7e18b1461024e575b600080fd5b34801561015c57600080fd5b5061017760048036036101729190810190613de5565b6105b7565b005b34801561018557600080fd5b506101a0600480360361019b9190810190613de5565b6108d5565b6040516101b49897969594939291906149c7565b60405180910390f35b3480156101c957600080fd5b506101d2610a87565b6040516101df9190614d13565b60405180910390f35b3480156101f457600080fd5b5061020f600480360361020a9190810190613ec7565b610a8d565b005b34801561021d57600080fd5b5061023860048036036102339190810190613ef0565b610c3c565b6040516102459190614d13565b60405180910390f35b34801561025a57600080fd5b5061027560048036036102709190810190613f2c565b610c61565b005b34801561028357600080fd5b5061029e60048036036102999190810190613e4a565b610f5d565b005b3480156102ac57600080fd5b506102b56112dd565b6040516102c29190614a97565b60405180910390f35b3480156102d757600080fd5b506102f260048036036102ed9190810190613e86565b6116f9565b005b34801561030057600080fd5b506103096118f7565b6040516103169190614aef565b60405180910390f35b34801561032b57600080fd5b50610334611995565b6040516103419190614a97565b60405180910390f35b34801561035657600080fd5b50610371600480360361036c9190810190613f68565b611fea565b60405161037e9190614cf1565b60405180910390f35b34801561039357600080fd5b5061039c612237565b6040516103a991906149ac565b60405180910390f35b3480156103be57600080fd5b506103c761225c565b6040516103d49190614a75565b60405180910390f35b3480156103e957600080fd5b5061040460048036036103ff9190810190613de5565b6125a3565b6040516104119190614d13565b60405180910390f35b34801561042657600080fd5b5061042f6125bb565b60405161043c9190614ab9565b60405180910390f35b34801561045157600080fd5b5061046c60048036036104679190810190613ec7565b6126e0565b005b34801561047a57600080fd5b5061049560048036036104909190810190613ec7565b612cbe565b005b3480156104a357600080fd5b506104be60048036036104b99190810190613e0e565b61303b565b6040516104cb9190614ad4565b60405180910390f35b3480156104e057600080fd5b506104e9613060565b6040516104f69190614a97565b60405180910390f35b34801561050b57600080fd5b506105146136b7565b6040516105219190614a53565b60405180910390f35b34801561053657600080fd5b50610551600480360361054c9190810190613ec7565b61374c565b6040516105679a99989796959493929190614d2e565b60405180910390f35b61057861388c565b005b34801561058657600080fd5b506105a1600480360361059c9190810190613ec7565b61396e565b6040516105ae91906149ac565b60405180910390f35b600160003373ffffffffffffffffffffffffffffffffffffffff1673ffffffffffffffffffffffffffffffffffffffff16815260200190815260200160002060050160009054906101000a900460ff1615610647576040517f08c379a000000000000000000000000000000000000000000000000000000000815260040161063e90614cd1565b60405180910390fd5b600160008273ffffffffffffffffffffffffffffffffffffffff1673ffffffffffffffffffffffffffffffffffffffff16815260200190815260200160002060070160009054906101000a900460ff16156106d7576040517f08c379a00000000000000000000000000000000000000000000000000000000081526004016106ce90614b91565b60405180910390fd5b6040518061010001604052808273ffffffffffffffffffffffffffffffffffffffff16815260200160405180602001604052806000815250815260200160405180602001604052806000815250815260200160008152602001600081526020016001151581526020016000815260200160011515815250600160008373ffffffffffffffffffffffffffffffffffffffff1673ffffffffffffffffffffffffffffffffffffffff16815260200190815260200160002060008201518160000160006101000a81548173ffffffffffffffffffffffffffffffffffffffff021916908373ffffffffffffffffffffffffffffffffffffffff16021790555060208201518160010190805190602001906107f0929190613af0565b50604082015181600201908051906020019061080d929190613af0565b50606082015181600301556080820151816004015560a08201518160050160006101000a81548160ff02191690831515021790555060c0820151816006015560e08201518160070160006101000a81548160ff0219169083151502179055509050506002819080600181540180825580915050600190039060005260206000200160009091909190916101000a81548173ffffffffffffffffffffffffffffffffffffffff021916908373ffffffffffffffffffffffffffffffffffffffff16021790555050565b60016020528060005260406000206000915090508060000160009054906101000a900473ffffffffffffffffffffffffffffffffffffffff1690806001018054600181600116156101000203166002900480601f0160208091040260200160405190810160405280929190818152602001828054600181600116156101000203166002900480156109a75780601f1061097c576101008083540402835291602001916109a7565b820191906000526020600020905b81548152906001019060200180831161098a57829003601f168201915b505050505090806002018054600181600116156101000203166002900480601f016020809104026020016040519081016040528092919081815260200182805460018160011615610100020316600290048015610a455780601f10610a1a57610100808354040283529160200191610a45565b820191906000526020600020905b815481529060010190602001808311610a2857829003601f168201915b5050505050908060030154908060040154908060050160009054906101000a900460ff16908060060154908060070160009054906101000a900460ff16905088565b60055481565b600160003373ffffffffffffffffffffffffffffffffffffffff1673ffffffffffffffffffffffffffffffffffffffff16815260200190815260200160002060050160009054906101000a900460ff1615610b1d576040517f08c379a0000000000000000000000000000000000000000000000000000000008152600401610b1490614cd1565b60405180910390fd5b80600160003373ffffffffffffffffffffffffffffffffffffffff1673ffffffffffffffffffffffffffffffffffffffff168152602001908152602001600020600401541015610ba2576040517f08c379a0000000000000000000000000000000000000000000000000000000008152600401610b9990614c51565b60405180910390fd5b80600160003373ffffffffffffffffffffffffffffffffffffffff1673ffffffffffffffffffffffffffffffffffffffff168152602001908152602001600020600401600082825403925050819055503373ffffffffffffffffffffffffffffffffffffffff166108fc829081150290604051600060405180830381858888f19350505050158015610c38573d6000803e3d6000fd5b5050565b6008602052816000526040600020602052806000526040600020600091509150505481565b600160003373ffffffffffffffffffffffffffffffffffffffff1673ffffffffffffffffffffffffffffffffffffffff16815260200190815260200160002060050160009054906101000a900460ff1615610cf1576040517f08c379a0000000000000000000000000000000000000000000000000000000008152600401610ce890614cd1565b60405180910390fd5b60078281548110610cfe57fe5b906000526020600020906009020160080160009054906101000a900460ff16610d5c576040517f08c379a0000000000000000000000000000000000000000000000000000000008152600401610d5390614bb1565b60405180910390fd5b600060078381548110610d6b57fe5b90600052602060002090600902016004015460078481548110610d8a57fe5b90600052602060002090600902016002015403905081811015610dab578091505b8160078481548110610db957fe5b90600052602060002090600902016004016000828254019250508190555081600160003373ffffffffffffffffffffffffffffffffffffffff1673ffffffffffffffffffffffffffffffffffffffff168152602001908152602001600020600401541015610e5c576040517f08c379a0000000000000000000000000000000000000000000000000000000008152600401610e5390614c51565b60405180910390fd5b81600160003373ffffffffffffffffffffffffffffffffffffffff1673ffffffffffffffffffffffffffffffffffffffff16815260200190815260200160002060040160008282540392505081905550816008600085815260200190815260200160002060003373ffffffffffffffffffffffffffffffffffffffff1673ffffffffffffffffffffffffffffffffffffffff1681526020019081526020016000206000828254019250508190555060078381548110610f1757fe5b90600052602060002090600902016002015460078481548110610f3657fe5b9060005260206000209060090201600401541415610f5857610f57836139aa565b5b505050565b600160003373ffffffffffffffffffffffffffffffffffffffff1673ffffffffffffffffffffffffffffffffffffffff16815260200190815260200160002060050160009054906101000a900460ff1615610fed576040517f08c379a0000000000000000000000000000000000000000000000000000000008152600401610fe490614cd1565b60405180910390fd5b3373ffffffffffffffffffffffffffffffffffffffff168273ffffffffffffffffffffffffffffffffffffffff16141561105c576040517f08c379a000000000000000000000000000000000000000000000000000000000815260040161105390614cb1565b60405180910390fd5b600160008373ffffffffffffffffffffffffffffffffffffffff1673ffffffffffffffffffffffffffffffffffffffff16815260200190815260200160002060050160009054906101000a900460ff166110eb576040517f08c379a00000000000000000000000000000000000000000000000000000000081526004016110e290614bf1565b60405180910390fd5b6000600460008473ffffffffffffffffffffffffffffffffffffffff1673ffffffffffffffffffffffffffffffffffffffff16815260200190815260200160002060003373ffffffffffffffffffffffffffffffffffffffff1673ffffffffffffffffffffffffffffffffffffffff16815260200190815260200160002054146111aa576040517f08c379a00000000000000000000000000000000000000000000000000000000081526004016111a190614b11565b60405180910390fd5b8015611237576001600460008473ffffffffffffffffffffffffffffffffffffffff1673ffffffffffffffffffffffffffffffffffffffff16815260200190815260200160002060003373ffffffffffffffffffffffffffffffffffffffff1673ffffffffffffffffffffffffffffffffffffffff168152602001908152602001600020819055506112d9565b7fffffffffffffffffffffffffffffffffffffffffffffffffffffffffffffffff600460008473ffffffffffffffffffffffffffffffffffffffff1673ffffffffffffffffffffffffffffffffffffffff16815260200190815260200160002060003373ffffffffffffffffffffffffffffffffffffffff1673ffffffffffffffffffffffffffffffffffffffff168152602001908152602001600020819055505b5050565b6060600160003373ffffffffffffffffffffffffffffffffffffffff1673ffffffffffffffffffffffffffffffffffffffff16815260200190815260200160002060050160009054906101000a900460ff161561136f576040517f08c379a000000000000000000000000000000000000000000000000000000000815260040161136690614cd1565b60405180910390fd5b60606005546040519080825280602002602001820160405280156113ad57816020015b61139a613b70565b8152602001906001900390816113925790505b509050600080905060008090505b6002805490508110156116f05760016000600283815481106113d957fe5b9060005260206000200160009054906101000a900473ffffffffffffffffffffffffffffffffffffffff1673ffffffffffffffffffffffffffffffffffffffff1673ffffffffffffffffffffffffffffffffffffffff16815260200190815260200160002060050160009054906101000a900460ff166116e357600160006002838154811061146457fe5b9060005260206000200160009054906101000a900473ffffffffffffffffffffffffffffffffffffffff1673ffffffffffffffffffffffffffffffffffffffff1673ffffffffffffffffffffffffffffffffffffffff168152602001908152602001600020604051806101000160405290816000820160009054906101000a900473ffffffffffffffffffffffffffffffffffffffff1673ffffffffffffffffffffffffffffffffffffffff1673ffffffffffffffffffffffffffffffffffffffff168152602001600182018054600181600116156101000203166002900480601f0160208091040260200160405190810160405280929190818152602001828054600181600116156101000203166002900480156115c45780601f10611599576101008083540402835291602001916115c4565b820191906000526020600020905b8154815290600101906020018083116115a757829003601f168201915b50505050508152602001600282018054600181600116156101000203166002900480601f0160208091040260200160405190810160405280929190818152602001828054600181600116156101000203166002900480156116665780601f1061163b57610100808354040283529160200191611666565b820191906000526020600020905b81548152906001019060200180831161164957829003601f168201915b5050505050815260200160038201548152602001600482015481526020016005820160009054906101000a900460ff16151515158152602001600682015481526020016007820160009054906101000a900460ff1615151515815250508383815181106116cf57fe5b602002602001018190525081806001019250505b80806001019150506113bb565b50819250505090565b6117016125bb565b611740576040517f08c379a000000000000000000000000000000000000000000000000000000000815260040161173790614b31565b60405180910390fd5b600160003373ffffffffffffffffffffffffffffffffffffffff1673ffffffffffffffffffffffffffffffffffffffff16815260200190815260200160002060050160009054906101000a900460ff166117cf576040517f08c379a00000000000000000000000000000000000000000000000000000000081526004016117c690614c71565b60405180910390fd5b80600160003373ffffffffffffffffffffffffffffffffffffffff1673ffffffffffffffffffffffffffffffffffffffff1681526020019081526020016000206001019080519060200190611825929190613bcf565b5060018060003373ffffffffffffffffffffffffffffffffffffffff1673ffffffffffffffffffffffffffffffffffffffff16815260200190815260200160002060050160006101000a81548160ff0219169083151502179055506002339080600181540180825580915050600190039060005260206000200160009091909190916101000a81548173ffffffffffffffffffffffffffffffffffffffff021916908373ffffffffffffffffffffffffffffffffffffffff160217905550600160056000828254019250508190555050565b60038054600181600116156101000203166002900480601f01602080910402602001604051908101604052809291908181526020018280546001816001161561010002031660029004801561198d5780601f106119625761010080835404028352916020019161198d565b820191906000526020600020905b81548152906001019060200180831161197057829003601f168201915b505050505081565b6060600160003373ffffffffffffffffffffffffffffffffffffffff1673ffffffffffffffffffffffffffffffffffffffff16815260200190815260200160002060050160009054906101000a900460ff1615611a27576040517f08c379a0000000000000000000000000000000000000000000000000000000008152600401611a1e90614cd1565b60405180910390fd5b600080905060008090505b600280549050811015611ba0576001600060028381548110611a5057fe5b9060005260206000200160009054906101000a900473ffffffffffffffffffffffffffffffffffffffff1673ffffffffffffffffffffffffffffffffffffffff1673ffffffffffffffffffffffffffffffffffffffff16815260200190815260200160002060050160009054906101000a900460ff168015611b85575060006004600060028481548110611ae057fe5b9060005260206000200160009054906101000a900473ffffffffffffffffffffffffffffffffffffffff1673ffffffffffffffffffffffffffffffffffffffff1673ffffffffffffffffffffffffffffffffffffffff16815260200190815260200160002060003373ffffffffffffffffffffffffffffffffffffffff1673ffffffffffffffffffffffffffffffffffffffff16815260200190815260200160002054145b15611b935781806001019250505b8080600101915050611a32565b50606081604051908082528060200260200182016040528015611bdd57816020015b611bca613b70565b815260200190600190039081611bc25790505b509050600080905060008090505b600280549050811015611fe0576001600060028381548110611c0957fe5b9060005260206000200160009054906101000a900473ffffffffffffffffffffffffffffffffffffffff1673ffffffffffffffffffffffffffffffffffffffff1673ffffffffffffffffffffffffffffffffffffffff16815260200190815260200160002060050160009054906101000a900460ff168015611d3e575060006004600060028481548110611c9957fe5b9060005260206000200160009054906101000a900473ffffffffffffffffffffffffffffffffffffffff1673ffffffffffffffffffffffffffffffffffffffff1673ffffffffffffffffffffffffffffffffffffffff16815260200190815260200160002060003373ffffffffffffffffffffffffffffffffffffffff1673ffffffffffffffffffffffffffffffffffffffff16815260200190815260200160002054145b15611fd3576001600060028381548110611d5457fe5b9060005260206000200160009054906101000a900473ffffffffffffffffffffffffffffffffffffffff1673ffffffffffffffffffffffffffffffffffffffff1673ffffffffffffffffffffffffffffffffffffffff168152602001908152602001600020604051806101000160405290816000820160009054906101000a900473ffffffffffffffffffffffffffffffffffffffff1673ffffffffffffffffffffffffffffffffffffffff1673ffffffffffffffffffffffffffffffffffffffff168152602001600182018054600181600116156101000203166002900480601f016020809104026020016040519081016040528092919081815260200182805460018160011615610100020316600290048015611eb45780601f10611e8957610100808354040283529160200191611eb4565b820191906000526020600020905b815481529060010190602001808311611e9757829003601f168201915b50505050508152602001600282018054600181600116156101000203166002900480601f016020809104026020016040519081016040528092919081815260200182805460018160011615610100020316600290048015611f565780601f10611f2b57610100808354040283529160200191611f56565b820191906000526020600020905b815481529060010190602001808311611f3957829003601f168201915b5050505050815260200160038201548152602001600482015481526020016005820160009054906101000a900460ff16151515158152602001600682015481526020016007820160009054906101000a900460ff161515151581525050838381518110611fbf57fe5b602002602001018190525081806001019250505b8080600101915050611beb565b5081935050505090565b611ff2613c4f565b600160003373ffffffffffffffffffffffffffffffffffffffff1673ffffffffffffffffffffffffffffffffffffffff16815260200190815260200160002060050160009054906101000a900460ff1615612082576040517f08c379a000000000000000000000000000000000000000000000000000000000815260040161207990614cd1565b60405180910390fd5b61208a613c4f565b60405180610140016040528060065481526020013373ffffffffffffffffffffffffffffffffffffffff1681526020018781526020018681526020016000815260200185815260200160001515815260200160001515815260200184815260200160011515815250905060078190806001815401808255809150506001900390600052602060002090600902016000909190919091506000820151816000015560208201518160010160006101000a81548173ffffffffffffffffffffffffffffffffffffffff021916908373ffffffffffffffffffffffffffffffffffffffff16021790555060408201518160020155606082015181600301556080820151816004015560a0820151816005015560c08201518160060160006101000a81548160ff02191690831515021790555060e08201518160060160016101000a81548160ff0219169083151502179055506101008201518160070190805190602001906121f6929190613af0565b506101208201518160080160006101000a81548160ff0219169083151502179055505050600160066000828254019250508190555080915050949350505050565b6000809054906101000a900473ffffffffffffffffffffffffffffffffffffffff1681565b6060600160003373ffffffffffffffffffffffffffffffffffffffff1673ffffffffffffffffffffffffffffffffffffffff16815260200190815260200160002060050160009054906101000a900460ff16156122ee576040517f08c379a00000000000000000000000000000000000000000000000000000000081526004016122e590614cd1565b60405180910390fd5b600080905060008090505b60078054905081101561234a576007818154811061231357fe5b906000526020600020906009020160060160009054906101000a900460ff1661233d576001820191505b80806001019150506122f9565b50600080905060608260405190808252806020026020018201604052801561238c57816020015b612379613cbe565b8152602001906001900390816123715790505b50905060008090505b60078054905081101561259957600781815481106123af57fe5b906000526020600020906009020160060160009054906101000a900460ff1661258c57600781815481106123df57fe5b906000526020600020906009020160405180610140016040529081600082015481526020016001820160009054906101000a900473ffffffffffffffffffffffffffffffffffffffff1673ffffffffffffffffffffffffffffffffffffffff1673ffffffffffffffffffffffffffffffffffffffff168152602001600282015481526020016003820154815260200160048201548152602001600582015481526020016006820160009054906101000a900460ff161515151581526020016006820160019054906101000a900460ff16151515158152602001600782018054600181600116156101000203166002900480601f0160208091040260200160405190810160405280929190818152602001828054600181600116156101000203166002900480156125505780601f1061252557610100808354040283529160200191612550565b820191906000526020600020905b81548152906001019060200180831161253357829003601f168201915b505050505081526020016008820160009054906101000a900460ff16151515158152505082848151811061258057fe5b60200260200101819052505b8080600101915050612395565b5080935050505090565b60096020528060005260406000206000915090505481565b6000806000905060008090505b6002805490508110156126a7576001600460003373ffffffffffffffffffffffffffffffffffffffff1673ffffffffffffffffffffffffffffffffffffffff16815260200190815260200160002060006002848154811061262557fe5b9060005260206000200160009054906101000a900473ffffffffffffffffffffffffffffffffffffffff1673ffffffffffffffffffffffffffffffffffffffff1673ffffffffffffffffffffffffffffffffffffffff16815260200190815260200160002054141561269a5781806001019250505b80806001019150506125c8565b506706f05b59d3b20000600554670de0b6b3a76400008302816126c657fe5b0411156126d75760019150506126dd565b60009150505b90565b600160003373ffffffffffffffffffffffffffffffffffffffff1673ffffffffffffffffffffffffffffffffffffffff16815260200190815260200160002060050160009054906101000a900460ff1615612770576040517f08c379a000000000000000000000000000000000000000000000000000000000815260040161276790614cd1565b60405180910390fd5b6007818154811061277d57fe5b906000526020600020906009020160080160009054906101000a900460ff166127db576040517f08c379a00000000000000000000000000000000000000000000000000000000081526004016127d290614bb1565b60405180910390fd5b3373ffffffffffffffffffffffffffffffffffffffff16600782815481106127ff57fe5b906000526020600020906009020160010160009054906101000a900473ffffffffffffffffffffffffffffffffffffffff1673ffffffffffffffffffffffffffffffffffffffff1614612887576040517f08c379a000000000000000000000000000000000000000000000000000000000815260040161287e90614b71565b60405180910390fd5b6007818154811061289457fe5b906000526020600020906009020160060160009054906101000a900460ff166128f2576040517f08c379a00000000000000000000000000000000000000000000000000000000081526004016128e990614b51565b60405180910390fd5b600781815481106128ff57fe5b906000526020600020906009020160020154600160006007848154811061292257fe5b906000526020600020906009020160010160009054906101000a900473ffffffffffffffffffffffffffffffffffffffff1673ffffffffffffffffffffffffffffffffffffffff1673ffffffffffffffffffffffffffffffffffffffff16815260200190815260200160002060040154116129d2576040517f08c379a00000000000000000000000000000000000000000000000000000000081526004016129c990614bd1565b60405180910390fd5b600781815481106129df57fe5b906000526020600020906009020160020154600782815481106129fe57fe5b906000526020600020906009020160030154600101026001600060078481548110612a2557fe5b906000526020600020906009020160010160009054906101000a900473ffffffffffffffffffffffffffffffffffffffff1673ffffffffffffffffffffffffffffffffffffffff1673ffffffffffffffffffffffffffffffffffffffff1681526020019081526020016000206004016000828254039250508190555060008090505b600280549050811015612c8357600060086000848152602001908152602001600020600060028481548110612ad857fe5b9060005260206000200160009054906101000a900473ffffffffffffffffffffffffffffffffffffffff1673ffffffffffffffffffffffffffffffffffffffff1673ffffffffffffffffffffffffffffffffffffffff168152602001908152602001600020541115612c765760086000838152602001908152602001600020600060028381548110612b6657fe5b9060005260206000200160009054906101000a900473ffffffffffffffffffffffffffffffffffffffff1673ffffffffffffffffffffffffffffffffffffffff1673ffffffffffffffffffffffffffffffffffffffff1681526020019081526020016000205460078381548110612bd957fe5b906000526020600020906009020160030154600101026001600060028481548110612c0057fe5b9060005260206000200160009054906101000a900473ffffffffffffffffffffffffffffffffffffffff1673ffffffffffffffffffffffffffffffffffffffff1673ffffffffffffffffffffffffffffffffffffffff168152602001908152602001600020600401600082825401925050819055505b8080600101915050612aa7565b50600160078281548110612c9357fe5b906000526020600020906009020160060160016101000a81548160ff02191690831515021790555050565b3373ffffffffffffffffffffffffffffffffffffffff1660078281548110612ce257fe5b906000526020600020906009020160010160009054906101000a900473ffffffffffffffffffffffffffffffffffffffff1673ffffffffffffffffffffffffffffffffffffffff1614612d6a576040517f08c379a0000000000000000000000000000000000000000000000000000000008152600401612d6190614b71565b60405180910390fd5b60078181548110612d7757fe5b906000526020600020906009020160080160009054906101000a900460ff16612dd5576040517f08c379a0000000000000000000000000000000000000000000000000000000008152600401612dcc90614c11565b60405180910390fd5b60078181548110612de257fe5b906000526020600020906009020160060160009054906101000a900460ff1615612e41576040517f08c379a0000000000000000000000000000000000000000000000000000000008152600401612e3890614c91565b60405180910390fd5b600060078281548110612e5057fe5b906000526020600020906009020160080160006101000a81548160ff02191690831515021790555060008090505b60028054905081101561303757600060086000848152602001908152602001600020600060028481548110612eaf57fe5b9060005260206000200160009054906101000a900473ffffffffffffffffffffffffffffffffffffffff1673ffffffffffffffffffffffffffffffffffffffff1673ffffffffffffffffffffffffffffffffffffffff16815260200190815260200160002054111561302a5760086000838152602001908152602001600020600060028381548110612f3d57fe5b9060005260206000200160009054906101000a900473ffffffffffffffffffffffffffffffffffffffff1673ffffffffffffffffffffffffffffffffffffffff1673ffffffffffffffffffffffffffffffffffffffff168152602001908152602001600020546001600060028481548110612fb457fe5b9060005260206000200160009054906101000a900473ffffffffffffffffffffffffffffffffffffffff1673ffffffffffffffffffffffffffffffffffffffff1673ffffffffffffffffffffffffffffffffffffffff168152602001908152602001600020600401600082825401925050819055505b8080600101915050612e7e565b5050565b6004602052816000526040600020602052806000526040600020600091509150505481565b6060600160003373ffffffffffffffffffffffffffffffffffffffff1673ffffffffffffffffffffffffffffffffffffffff16815260200190815260200160002060050160009054906101000a900460ff16156130f2576040517f08c379a00000000000000000000000000000000000000000000000000000000081526004016130e990614cd1565b60405180910390fd5b600080905060008090505b60028054905081101561326c57600160006002838154811061311b57fe5b9060005260206000200160009054906101000a900473ffffffffffffffffffffffffffffffffffffffff1673ffffffffffffffffffffffffffffffffffffffff1673ffffffffffffffffffffffffffffffffffffffff16815260200190815260200160002060050160009054906101000a900460ff1680156132515750600060046000600284815481106131ab57fe5b9060005260206000200160009054906101000a900473ffffffffffffffffffffffffffffffffffffffff1673ffffffffffffffffffffffffffffffffffffffff1673ffffffffffffffffffffffffffffffffffffffff16815260200190815260200160002060003373ffffffffffffffffffffffffffffffffffffffff1673ffffffffffffffffffffffffffffffffffffffff1681526020019081526020016000205414155b1561325f5781806001019250505b80806001019150506130fd565b506060816040519080825280602002602001820160405280156132a957816020015b613296613b70565b81526020019060019003908161328e5790505b509050600080905060008090505b6002805490508110156136ad5760016000600283815481106132d557fe5b9060005260206000200160009054906101000a900473ffffffffffffffffffffffffffffffffffffffff1673ffffffffffffffffffffffffffffffffffffffff1673ffffffffffffffffffffffffffffffffffffffff16815260200190815260200160002060050160009054906101000a900460ff16801561340b57506000600460006002848154811061336557fe5b9060005260206000200160009054906101000a900473ffffffffffffffffffffffffffffffffffffffff1673ffffffffffffffffffffffffffffffffffffffff1673ffffffffffffffffffffffffffffffffffffffff16815260200190815260200160002060003373ffffffffffffffffffffffffffffffffffffffff1673ffffffffffffffffffffffffffffffffffffffff1681526020019081526020016000205414155b156136a057600160006002838154811061342157fe5b9060005260206000200160009054906101000a900473ffffffffffffffffffffffffffffffffffffffff1673ffffffffffffffffffffffffffffffffffffffff1673ffffffffffffffffffffffffffffffffffffffff168152602001908152602001600020604051806101000160405290816000820160009054906101000a900473ffffffffffffffffffffffffffffffffffffffff1673ffffffffffffffffffffffffffffffffffffffff1673ffffffffffffffffffffffffffffffffffffffff168152602001600182018054600181600116156101000203166002900480601f0160208091040260200160405190810160405280929190818152602001828054600181600116156101000203166002900480156135815780601f1061355657610100808354040283529160200191613581565b820191906000526020600020905b81548152906001019060200180831161356457829003601f168201915b50505050508152602001600282018054600181600116156101000203166002900480601f0160208091040260200160405190810160405280929190818152602001828054600181600116156101000203166002900480156136235780601f106135f857610100808354040283529160200191613623565b820191906000526020600020905b81548152906001019060200180831161360657829003601f168201915b5050505050815260200160038201548152602001600482015481526020016005820160009054906101000a900460ff16151515158152602001600682015481526020016007820160009054906101000a900460ff16151515158152505083838151811061368c57fe5b602002602001018190525081806001019250505b80806001019150506132b7565b5081935050505090565b6060600160003373ffffffffffffffffffffffffffffffffffffffff1673ffffffffffffffffffffffffffffffffffffffff16815260200190815260200160002060050160009054906101000a900460ff1615613749576040517f08c379a000000000000000000000000000000000000000000000000000000000815260040161374090614cd1565b60405180910390fd5b90565b6007818154811061375957fe5b90600052602060002090600902016000915090508060000154908060010160009054906101000a900473ffffffffffffffffffffffffffffffffffffffff16908060020154908060030154908060040154908060050154908060060160009054906101000a900460ff16908060060160019054906101000a900460ff1690806007018054600181600116156101000203166002900480601f01602080910402602001604051908101604052809291908181526020018280546001816001161561010002031660029004801561386f5780601f106138445761010080835404028352916020019161386f565b820191906000526020600020905b81548152906001019060200180831161385257829003601f168201915b5050505050908060080160009054906101000a900460ff1690508a565b600160003373ffffffffffffffffffffffffffffffffffffffff1673ffffffffffffffffffffffffffffffffffffffff16815260200190815260200160002060050160009054906101000a900460ff161561391c576040517f08c379a000000000000000000000000000000000000000000000000000000000815260040161391390614cd1565b60405180910390fd5b34600160003373ffffffffffffffffffffffffffffffffffffffff1673ffffffffffffffffffffffffffffffffffffffff16815260200190815260200160002060040160008282540192505081905550565b6002818154811061397b57fe5b906000526020600020016000915054906101000a900473ffffffffffffffffffffffffffffffffffffffff1681565b80600782815481106139b857fe5b90600052602060002090600902016000015414613a0a576040517f08c379a0000000000000000000000000000000000000000000000000000000008152600401613a0190614c31565b60405180910390fd5b600160078281548110613a1957fe5b906000526020600020906009020160060160006101000a81548160ff02191690831515021790555060078181548110613a4e57fe5b9060005260206000209060090201600201546001600060078481548110613a7157fe5b906000526020600020906009020160010160009054906101000a900473ffffffffffffffffffffffffffffffffffffffff1673ffffffffffffffffffffffffffffffffffffffff1673ffffffffffffffffffffffffffffffffffffffff1681526020019081526020016000206004016000828254019250508190555050565b828054600181600116156101000203166002900490600052602060002090601f016020900481019282601f10613b3157805160ff1916838001178555613b5f565b82800160010185558215613b5f579182015b82811115613b5e578251825591602001919060010190613b43565b5b509050613b6c9190613d2d565b5090565b604051806101000160405280600073ffffffffffffffffffffffffffffffffffffffff16815260200160608152602001606081526020016000815260200160008152602001600015158152602001600081526020016000151581525090565b828054600181600116156101000203166002900490600052602060002090601f016020900481019282601f10613c1057805160ff1916838001178555613c3e565b82800160010185558215613c3e579182015b82811115613c3d578251825591602001919060010190613c22565b5b509050613c4b9190613d2d565b5090565b60405180610140016040528060008152602001600073ffffffffffffffffffffffffffffffffffffffff16815260200160008152602001600081526020016000815260200160008152602001600015158152602001600015158152602001606081526020016000151581525090565b60405180610140016040528060008152602001600073ffffffffffffffffffffffffffffffffffffffff16815260200160008152602001600081526020016000815260200160008152602001600015158152602001600015158152602001606081526020016000151581525090565b613d4f91905b80821115613d4b576000816000905550600101613d33565b5090565b90565b600081359050613d6181614fa7565b92915050565b600081359050613d7681614fbe565b92915050565b600082601f830112613d8d57600080fd5b8135613da0613d9b82614dfe565b614dd1565b91508082526020830160208301858383011115613dbc57600080fd5b613dc7838284614f54565b50505092915050565b600081359050613ddf81614fd5565b92915050565b600060208284031215613df757600080fd5b6000613e0584828501613d52565b91505092915050565b60008060408385031215613e2157600080fd5b6000613e2f85828601613d52565b9250506020613e4085828601613d52565b9150509250929050565b60008060408385031215613e5d57600080fd5b6000613e6b85828601613d52565b9250506020613e7c85828601613d67565b9150509250929050565b600060208284031215613e9857600080fd5b600082013567ffffffffffffffff811115613eb257600080fd5b613ebe84828501613d7c565b91505092915050565b600060208284031215613ed957600080fd5b6000613ee784828501613dd0565b91505092915050565b60008060408385031215613f0357600080fd5b6000613f1185828601613dd0565b9250506020613f2285828601613d52565b9150509250929050565b60008060408385031215613f3f57600080fd5b6000613f4d85828601613dd0565b9250506020613f5e85828601613dd0565b9150509250929050565b60008060008060808587031215613f7e57600080fd5b6000613f8c87828801613dd0565b9450506020613f9d87828801613dd0565b9350506040613fae87828801613dd0565b925050606085013567ffffffffffffffff811115613fcb57600080fd5b613fd787828801613d7c565b91505092959194509250565b6000613fef8383614693565b905092915050565b600061400383836147fd565b905092915050565b600061401783836148d7565b905092915050565b61402881614f02565b82525050565b61403781614f02565b82525050565b600061404882614e5a565b6140528185614ead565b93508360208202850161406485614e2a565b8060005b858110156140a057848403895281516140818582613fe3565b945061408c83614e86565b925060208a01995050600181019050614068565b50829750879550505050505092915050565b60006140bd82614e65565b6140c78185614ebe565b9350836020820285016140d985614e3a565b8060005b8581101561411557848403895281516140f68582613ff7565b945061410183614e93565b925060208a019950506001810190506140dd565b50829750879550505050505092915050565b600061413282614e70565b61413c8185614ecf565b93508360208202850161414e85614e4a565b8060005b8581101561418a578484038952815161416b858261400b565b945061417683614ea0565b925060208a01995050600181019050614152565b50829750879550505050505092915050565b6141a581614f14565b82525050565b6141b481614f14565b82525050565b6141c381614f20565b82525050565b60006141d482614e7b565b6141de8185614ee0565b93506141ee818560208601614f63565b6141f781614f96565b840191505092915050565b600061420d82614e7b565b6142178185614ef1565b9350614227818560208601614f63565b61423081614f96565b840191505092915050565b6000614248602083614ef1565b91507f616c726561647920766f74656420666f7220746869732063616e6469646174656000830152602082019050919050565b6000614288602183614ef1565b91507f4d656d62657220646f6573206e6f74206861766520656e6f75676820766f746560008301527f73000000000000000000000000000000000000000000000000000000000000006020830152604082019050919050565b60006142ee601a83614ef1565b91507f6c6f616e20616c7265616479206e6f74206265656e206c656e740000000000006000830152602082019050919050565b600061432e601a83614ef1565b91507f6f6e6c7920746865206c656e6465722063616e2063616e63656c0000000000006000830152602082019050919050565b600061436e601583614ef1565b91507f6d656d62657220616c72656164792065786973747300000000000000000000006000830152602082019050919050565b60006143ae602983614ef1565b91507f6c6f616e20646f6573206e6f74206578697374206f7220686173206265656e2060008301527f63616e63656c6c656400000000000000000000000000000000000000000000006020830152604082019050919050565b6000614414602783614ef1565b91507f796f7520646f206e6f74206861766520656e6f7567682062616c616e6365207460008301527f6f207265706179000000000000000000000000000000000000000000000000006020830152604082019050919050565b600061447a601983614ef1565b91507f43616e646964617465206d7573742062652070656e64696e67000000000000006000830152602082019050919050565b60006144ba601383614ef1565b91507f6c6f616e20646f6573206e6f74206578697374000000000000000000000000006000830152602082019050919050565b60006144fa600483614ef1565b91507f74657374000000000000000000000000000000000000000000000000000000006000830152602082019050919050565b600061453a601483614ef1565b91507f696e73756666696369656e742062616c616e63650000000000000000000000006000830152602082019050919050565b600061457a601e83614ef1565b91507f4d656d626572206d7573742062652070656e64696e6720746f206a6f696e00006000830152602082019050919050565b60006145ba601a83614ef1565b91507f6c6f616e20616c726561647920686173206265656e206c656e740000000000006000830152602082019050919050565b60006145fa601883614ef1565b91507f43616e6e6f7420766f746520666f7220796f757273656c6600000000000000006000830152602082019050919050565b600061463a602483614ef1565b91507f4f6e6c79206d656d626572732063616e2063616c6c20746869732066756e637460008301527f696f6e2e000000000000000000000000000000000000000000000000000000006020830152604082019050919050565b600060c0830160008301516146ab600086018261498e565b5060208301516146be602086018261498e565b5060408301516146d1604086018261498e565b5060608301516146e4606086018261401f565b50608083015184820360808601526146fc82826141c9565b91505060a083015184820360a086015261471682826141c9565b9150508091505092915050565b60006101408301600083015161473c600086018261498e565b50602083015161474f602086018261401f565b506040830151614762604086018261498e565b506060830151614775606086018261498e565b506080830151614788608086018261498e565b5060a083015161479b60a086018261498e565b5060c08301516147ae60c086018261419c565b5060e08301516147c160e086018261419c565b506101008301518482036101008601526147db82826141c9565b9150506101208301516147f261012086018261419c565b508091505092915050565b600061014083016000830151614816600086018261498e565b506020830151614829602086018261401f565b50604083015161483c604086018261498e565b50606083015161484f606086018261498e565b506080830151614862608086018261498e565b5060a083015161487560a086018261498e565b5060c083015161488860c086018261419c565b5060e083015161489b60e086018261419c565b506101008301518482036101008601526148b582826141c9565b9150506101208301516148cc61012086018261419c565b508091505092915050565b6000610100830160008301516148f0600086018261401f565b506020830151848203602086015261490882826141c9565b9150506040830151848203604086015261492282826141c9565b9150506060830151614937606086018261498e565b50608083015161494a608086018261498e565b5060a083015161495d60a086018261419c565b5060c083015161497060c086018261498e565b5060e083015161498360e086018261419c565b508091505092915050565b61499781614f4a565b82525050565b6149a681614f4a565b82525050565b60006020820190506149c1600083018461402e565b92915050565b6000610100820190506149dd600083018b61402e565b81810360208301526149ef818a614202565b90508181036040830152614a038189614202565b9050614a12606083018861499d565b614a1f608083018761499d565b614a2c60a08301866141ab565b614a3960c083018561499d565b614a4660e08301846141ab565b9998505050505050505050565b60006020820190508181036000830152614a6d818461403d565b905092915050565b60006020820190508181036000830152614a8f81846140b2565b905092915050565b60006020820190508181036000830152614ab18184614127565b905092915050565b6000602082019050614ace60008301846141ab565b92915050565b6000602082019050614ae960008301846141ba565b92915050565b60006020820190508181036000830152614b098184614202565b905092915050565b60006020820190508181036000830152614b2a8161423b565b9050919050565b60006020820190508181036000830152614b4a8161427b565b9050919050565b60006020820190508181036000830152614b6a816142e1565b9050919050565b60006020820190508181036000830152614b8a81614321565b9050919050565b60006020820190508181036000830152614baa81614361565b9050919050565b60006020820190508181036000830152614bca816143a1565b9050919050565b60006020820190508181036000830152614bea81614407565b9050919050565b60006020820190508181036000830152614c0a8161446d565b9050919050565b60006020820190508181036000830152614c2a816144ad565b9050919050565b60006020820190508181036000830152614c4a816144ed565b9050919050565b60006020820190508181036000830152614c6a8161452d565b9050919050565b60006020820190508181036000830152614c8a8161456d565b9050919050565b60006020820190508181036000830152614caa816145ad565b9050919050565b60006020820190508181036000830152614cca816145ed565b9050919050565b60006020820190508181036000830152614cea8161462d565b9050919050565b60006020820190508181036000830152614d0b8184614723565b905092915050565b6000602082019050614d28600083018461499d565b92915050565b600061014082019050614d44600083018d61499d565b614d51602083018c61402e565b614d5e604083018b61499d565b614d6b606083018a61499d565b614d78608083018961499d565b614d8560a083018861499d565b614d9260c08301876141ab565b614d9f60e08301866141ab565b818103610100830152614db28185614202565b9050614dc26101208301846141ab565b9b9a5050505050505050505050565b6000604051905081810181811067ffffffffffffffff82111715614df457600080fd5b8060405250919050565b600067ffffffffffffffff821115614e1557600080fd5b601f19601f8301169050602081019050919050565b6000819050602082019050919050565b6000819050602082019050919050565b6000819050602082019050919050565b600081519050919050565b600081519050919050565b600081519050919050565b600081519050919050565b6000602082019050919050565b6000602082019050919050565b6000602082019050919050565b600082825260208201905092915050565b600082825260208201905092915050565b600082825260208201905092915050565b600082825260208201905092915050565b600082825260208201905092915050565b6000614f0d82614f2a565b9050919050565b60008115159050919050565b6000819050919050565b600073ffffffffffffffffffffffffffffffffffffffff82169050919050565b6000819050919050565b82818337600083830152505050565b60005b83811015614f81578082015181840152602081019050614f66565b83811115614f90576000848401525b50505050565b6000601f19601f8301169050919050565b614fb081614f02565b8114614fbb57600080fd5b50565b614fc781614f14565b8114614fd257600080fd5b50565b614fde81614f4a565b8114614fe957600080fd5b5056fea26469706673582212202cc0c78225ff492a8d4e23dce620de96b593fb81cf0a4d2d1c0cb622db0ca0d264736f6c63430006000033",
  "source": "// SPDX-License-Identifier: MIT\npragma solidity ^0.6.0;\npragma experimental ABIEncoderV2;\n\ncontract FriendLend {\n    struct Member {\n        address memberAddress;\n        string username;\n        string myPassword;\n        uint256 friendScore;\n        uint256 balance;\n        bool isPending;\n        uint256 dateAdded;\n        bool exists;\n    }\n\n    struct Loan {\n        uint id;\n        address borrower;\n        uint256 amount;\n        uint256 interest;\n        uint256 filled;\n        uint256 dueDate;\n        bool isLent;\n        bool isReturned;\n        string reason;\n        bool exists;\n    }\n\n    struct Investment {\n        uint256 amount;\n        uint256 interest;\n        uint256 dueDate;\n        address borrower;\n        string username;\n        string reason;\n    }\n\n    address public owner; //address of group creator\n    mapping(address => Member) public members; //mapping to member structs\n    address[] public allMembers; //array of all member addresses\n    string public groupName;\n    mapping(address => mapping(address => int)) public votes; //mapping of candidate addresses to a mapping of the people and their votes for the candidate\n    uint public memberCount = 0; //number of confirmed members\n\n    uint currLoanId = 0;\n    Loan[] public loans; //list of all lones\n    mapping(uint => mapping(address => uint)) public loanContributions;\n    mapping(address => uint256) public bannedMembers;\n\n    constructor(\n        string memory theGroupName,\n        string memory myUsername,\n        string memory myPassword\n    ) public {\n        owner = msg.sender;\n        members[owner] = Member(\n            owner,\n            myUsername,\n            myPassword,\n            0,\n            0,\n            false,\n            0,\n            true\n        );\n        memberCount += 1;\n        allMembers.push(msg.sender);\n        groupName = theGroupName;\n    }\n\n    modifier onlyOwner() {\n        require(msg.sender == owner, \"Only owner can call this function.\");\n        _;\n    }\n\n    modifier onlyMembers() {\n        require(\n            !members[msg.sender].isPending,\n            \"Only members can call this function.\"\n        );\n        _;\n    }\n\n    function proposeInvite(address newMemberAddress) public onlyMembers {\n        // Logic to propose a new member\n        require(!members[newMemberAddress].exists, \"member already exists\");\n        members[newMemberAddress] = Member(\n            newMemberAddress,\n            \"\",\n            \"\",\n            0,\n            0,\n            true,\n            0,\n            true\n        );\n        allMembers.push(newMemberAddress);\n    }\n\n    function voteOnPendingPerson(\n        address candidateAddress,\n        bool vote\n    ) public onlyMembers {\n        // Logic to vote on a pending member\n        require(candidateAddress != msg.sender, \"Cannot vote for yourself\");\n        require(\n            members[candidateAddress].isPending,\n            \"Candidate must be pending\"\n        );\n        require(\n            votes[candidateAddress][msg.sender] == 0,\n            \"already voted for this candidate\"\n        );\n        if (vote) {\n            votes[candidateAddress][msg.sender] = 1;\n        } else {\n            votes[candidateAddress][msg.sender] = -1;\n        }\n    }\n\n    function join(string memory username) public {\n        require(canJoin(), \"Member does not have enough votes\");\n        require(\n            members[msg.sender].isPending,\n            \"Member must be pending to join\"\n        );\n        members[msg.sender].username = username;\n        members[msg.sender].isPending = true;\n        allMembers.push(msg.sender);\n        memberCount += 1;\n    }\n\n    function depositFunds() public payable onlyMembers {\n        // Logic to deposit funds into the lending pool\n        members[msg.sender].balance += msg.value;\n    }\n\n    // FE: would be very helpful if this returned the loan struct at the end of the function\n    // FE: can we do date objects? or is the int the only option\n    // FE: either this function or the getAllOpenLoans function is not working\n    function requestLoan(\n        uint256 amount,\n        uint256 interestRate,\n        uint256 dueDate,\n        string memory reason\n    ) public onlyMembers returns (Loan memory) {\n        // Logic to request a new loan\n        Loan memory loan = Loan(\n            currLoanId,\n            msg.sender,\n            amount,\n            interestRate,\n            0,\n            dueDate,\n            false,\n            false,\n            reason,\n            true\n        );\n        loans.push(loan);\n        currLoanId += 1;\n        return loan;\n    }\n\n    function lendLoan(uint loanId) private {\n        require(loans[loanId].id == loanId, \"test\");\n        loans[loanId].isLent = true;\n        members[loans[loanId].borrower].balance += loans[loanId].amount;\n    }\n\n    function fillLoanRequest(\n        uint loanId,\n        uint256 contribution\n    ) public onlyMembers {\n        // Logic to contribute to a loan request\n        require(\n            loans[loanId].exists,\n            \"loan does not exist or has been cancelled\"\n        );\n        uint256 togo = loans[loanId].amount - loans[loanId].filled;\n        if (togo < contribution) {\n            contribution = togo;\n        }\n        loans[loanId].filled += contribution;\n        require(\n            members[msg.sender].balance >= contribution,\n            \"insufficient balance\"\n        );\n        members[msg.sender].balance -= contribution;\n        loanContributions[loanId][msg.sender] += contribution;\n        if (loans[loanId].filled == loans[loanId].amount) {\n            lendLoan(loanId);\n        }\n    }\n\n    function withdrawFunds(uint256 amount) public onlyMembers {\n        // Logic to withdraw funds from the lending pool\n        require(members[msg.sender].balance >= amount, \"insufficient balance\");\n        members[msg.sender].balance -= amount;\n        payable(address(msg.sender)).transfer(amount);\n    }\n\n    function cancelLoan(uint256 loanId) public {\n        require(\n            loans[loanId].borrower == msg.sender,\n            \"only the lender can cancel\"\n        );\n        require(loans[loanId].exists, \"loan does not exist\");\n        require(!loans[loanId].isLent, \"loan already has been lent\");\n        loans[loanId].exists = false;\n        for (uint i = 0; i < allMembers.length; i++) {\n            // repay all people who contributed\n            if (loanContributions[loanId][allMembers[i]] > 0) {\n                members[allMembers[i]].balance += loanContributions[loanId][\n                    allMembers[i]\n                ];\n            }\n        }\n    }\n\n    function payLoan(uint256 loanId) public onlyMembers {\n        require(\n            loans[loanId].exists,\n            \"loan does not exist or has been cancelled\"\n        );\n        require(\n            loans[loanId].borrower == msg.sender,\n            \"only the lender can cancel\"\n        );\n        require(loans[loanId].isLent, \"loan already not been lent\");\n        require(\n            members[loans[loanId].borrower].balance > loans[loanId].amount,\n            \"you do not have enough balance to repay\"\n        );\n        // Logic to pay off an outstanding loan early\n\n        members[loans[loanId].borrower].balance -=\n            (1 + loans[loanId].interest) *\n            loans[loanId].amount;\n        for (uint i = 0; i < allMembers.length; i++) {\n            // repay all people who contribute their contributions + interest\n            if (loanContributions[loanId][allMembers[i]] > 0) {\n                members[allMembers[i]].balance +=\n                    (1 + loans[loanId].interest) *\n                    loanContributions[loanId][allMembers[i]];\n            }\n        }\n        loans[loanId].isReturned = true;\n    }\n\n    function canJoin() public view returns (bool cj) {\n        uint sum = 0;\n\n        for (uint i = 0; i < allMembers.length; i++) {\n            if (votes[msg.sender][allMembers[i]] == 1) {\n                sum++;\n            }\n        }\n        if ((sum * 1e18) / memberCount > 5e17) {\n            return true;\n        } else {\n            return false;\n        }\n    }\n\n    function getAllConfirmedMembers()\n        public\n        view\n        onlyMembers\n        returns (Member[] memory)\n    {\n        // Logic to retrieve all non-pending members\n        Member[] memory nonPending = new Member[](memberCount);\n        uint j = 0;\n        for (uint i = 0; i < allMembers.length; i++) {\n            if (!members[allMembers[i]].isPending) {\n                nonPending[j] = members[allMembers[i]];\n                j++;\n            }\n        }\n        return nonPending;\n    }\n\n    function getAllOpenLoans() public view onlyMembers returns (Loan[] memory) {\n        // Logic to get all open loan requests\n        uint count = 0;\n        for (uint i = 0; i < loans.length; i++) {\n            if (!loans[i].isLent) {\n                count += 1;\n            }\n        }\n        uint j = 0;\n        Loan[] memory openLoans = new Loan[](count);\n        for (uint i = 0; i < loans.length; i++) {\n            if (!loans[i].isLent) {\n                openLoans[j] = loans[i];\n            }\n        }\n        return openLoans;\n    }\n\n    function getPendingMembers()\n        public\n        view\n        onlyMembers\n        returns (Member[] memory)\n    {\n        //returns all pending members the user has voted on\n        uint count = 0;\n        for (uint i = 0; i < allMembers.length; i++) {\n            if (\n                members[allMembers[i]].isPending &&\n                votes[allMembers[i]][msg.sender] != 0\n            ) {\n                count++;\n            }\n        }\n\n        Member[] memory pending = new Member[](count);\n        uint j = 0;\n        for (uint i = 0; i < allMembers.length; i++) {\n            if (\n                members[allMembers[i]].isPending &&\n                votes[allMembers[i]][msg.sender] != 0\n            ) {\n                pending[j] = members[allMembers[i]];\n                j++;\n            }\n        }\n        return pending;\n    }\n\n    function getMembersToVoteOn()\n        public\n        view\n        onlyMembers\n        returns (Member[] memory)\n    {\n        // Logic to list all pending members the sender has not voted on\n        uint count = 0;\n        for (uint i = 0; i < allMembers.length; i++) {\n            if (\n                members[allMembers[i]].isPending &&\n                votes[allMembers[i]][msg.sender] == 0\n            ) {\n                count++;\n            }\n        }\n\n        Member[] memory pending = new Member[](count);\n        uint j = 0;\n        for (uint i = 0; i < allMembers.length; i++) {\n            if (\n                members[allMembers[i]].isPending &&\n                votes[allMembers[i]][msg.sender] == 0\n            ) {\n                pending[j] = members[allMembers[i]];\n                j++;\n            }\n        }\n        return pending;\n    }\n\n    function getPortfolio()\n        public\n        view\n        onlyMembers\n        returns (Investment[] memory)\n    {}\n    // System and helper functions are not fully implemented due to their complex nature\n    // and requirement for further specifications.\n\n    // ... Additional functions like autoPayLoan, default, calculateInterest, updateFriendScore, checkMembershipStatus ...\n}\n",
  "sourcePath": "/Users/joeyladerer/Documents/Berkeley/CS194/defi-friendlend/backend/contracts/FriendLend.sol",
  "compiler": {
    "name": "solc",
    "version": "0.6.0+commit.26b70077.Emscripten.clang"
  },
  "schemaVersion": "3.4.16",
  "updatedAt": "2023-11-15T02:49:50.645Z",
  "networkType": "ethereum",
  "devdoc": {
    "methods": {}
  },
  "userdoc": {
    "methods": {}
  }
}